{
	"src/farm/GenericStake.sol": {
		"WakandaPoolInitializable": {
			"abi": [
				{
					"inputs": [],
					"stateMutability": "nonpayable",
					"type": "constructor"
				},
				{
					"anonymous": false,
					"inputs": [
						{
							"indexed": false,
							"internalType": "address",
							"name": "tokenRecovered",
							"type": "address"
						},
						{
							"indexed": false,
							"internalType": "uint256",
							"name": "amount",
							"type": "uint256"
						}
					],
					"name": "AdminTokenRecovery",
					"type": "event"
				},
				{
					"anonymous": false,
					"inputs": [
						{
							"indexed": true,
							"internalType": "address",
							"name": "user",
							"type": "address"
						},
						{
							"indexed": false,
							"internalType": "uint256",
							"name": "amount",
							"type": "uint256"
						}
					],
					"name": "Deposit",
					"type": "event"
				},
				{
					"anonymous": false,
					"inputs": [
						{
							"indexed": true,
							"internalType": "address",
							"name": "user",
							"type": "address"
						},
						{
							"indexed": false,
							"internalType": "uint256",
							"name": "amount",
							"type": "uint256"
						}
					],
					"name": "EmergencyWithdraw",
					"type": "event"
				},
				{
					"anonymous": false,
					"inputs": [
						{
							"indexed": false,
							"internalType": "uint256",
							"name": "poolLimitPerUser",
							"type": "uint256"
						}
					],
					"name": "NewPoolLimit",
					"type": "event"
				},
				{
					"anonymous": false,
					"inputs": [
						{
							"indexed": false,
							"internalType": "uint256",
							"name": "rewardPerBlock",
							"type": "uint256"
						}
					],
					"name": "NewRewardPerBlock",
					"type": "event"
				},
				{
					"anonymous": false,
					"inputs": [
						{
							"indexed": false,
							"internalType": "uint256",
							"name": "startBlock",
							"type": "uint256"
						},
						{
							"indexed": false,
							"internalType": "uint256",
							"name": "endBlock",
							"type": "uint256"
						}
					],
					"name": "NewStartAndEndBlocks",
					"type": "event"
				},
				{
					"anonymous": false,
					"inputs": [
						{
							"indexed": true,
							"internalType": "address",
							"name": "previousOwner",
							"type": "address"
						},
						{
							"indexed": true,
							"internalType": "address",
							"name": "newOwner",
							"type": "address"
						}
					],
					"name": "OwnershipTransferred",
					"type": "event"
				},
				{
					"anonymous": false,
					"inputs": [
						{
							"indexed": false,
							"internalType": "uint256",
							"name": "blockNumber",
							"type": "uint256"
						}
					],
					"name": "RewardsStop",
					"type": "event"
				},
				{
					"anonymous": false,
					"inputs": [
						{
							"indexed": true,
							"internalType": "address",
							"name": "user",
							"type": "address"
						},
						{
							"indexed": false,
							"internalType": "uint256",
							"name": "amount",
							"type": "uint256"
						}
					],
					"name": "Withdraw",
					"type": "event"
				},
				{
					"inputs": [],
					"name": "GenericStakeFactory",
					"outputs": [
						{
							"internalType": "address",
							"name": "",
							"type": "address"
						}
					],
					"stateMutability": "view",
					"type": "function"
				},
				{
					"inputs": [],
					"name": "PRECISION_FACTOR",
					"outputs": [
						{
							"internalType": "uint256",
							"name": "",
							"type": "uint256"
						}
					],
					"stateMutability": "view",
					"type": "function"
				},
				{
					"inputs": [],
					"name": "accTokenPerShare",
					"outputs": [
						{
							"internalType": "uint256",
							"name": "",
							"type": "uint256"
						}
					],
					"stateMutability": "view",
					"type": "function"
				},
				{
					"inputs": [],
					"name": "availableRewards",
					"outputs": [
						{
							"internalType": "uint256",
							"name": "",
							"type": "uint256"
						}
					],
					"stateMutability": "view",
					"type": "function"
				},
				{
					"inputs": [],
					"name": "bonusEndBlock",
					"outputs": [
						{
							"internalType": "uint256",
							"name": "",
							"type": "uint256"
						}
					],
					"stateMutability": "view",
					"type": "function"
				},
				{
					"inputs": [
						{
							"internalType": "uint256",
							"name": "_amount",
							"type": "uint256"
						}
					],
					"name": "deposit",
					"outputs": [],
					"stateMutability": "nonpayable",
					"type": "function"
				},
				{
					"inputs": [
						{
							"internalType": "uint256",
							"name": "_amount",
							"type": "uint256"
						}
					],
					"name": "emergencyRewardWithdraw",
					"outputs": [],
					"stateMutability": "nonpayable",
					"type": "function"
				},
				{
					"inputs": [],
					"name": "emergencyWithdraw",
					"outputs": [],
					"stateMutability": "nonpayable",
					"type": "function"
				},
				{
					"inputs": [],
					"name": "hasUserLimit",
					"outputs": [
						{
							"internalType": "bool",
							"name": "",
							"type": "bool"
						}
					],
					"stateMutability": "view",
					"type": "function"
				},
				{
					"inputs": [
						{
							"internalType": "contract IBEP20",
							"name": "_stakedToken",
							"type": "address"
						},
						{
							"internalType": "contract IBEP20",
							"name": "_rewardToken",
							"type": "address"
						},
						{
							"internalType": "uint256",
							"name": "_rewardPerBlock",
							"type": "uint256"
						},
						{
							"internalType": "uint256",
							"name": "_startBlock",
							"type": "uint256"
						},
						{
							"internalType": "uint256",
							"name": "_bonusEndBlock",
							"type": "uint256"
						},
						{
							"internalType": "uint256",
							"name": "_poolLimitPerUser",
							"type": "uint256"
						},
						{
							"internalType": "address",
							"name": "_admin",
							"type": "address"
						}
					],
					"name": "initialize",
					"outputs": [],
					"stateMutability": "nonpayable",
					"type": "function"
				},
				{
					"inputs": [],
					"name": "isInitialized",
					"outputs": [
						{
							"internalType": "bool",
							"name": "",
							"type": "bool"
						}
					],
					"stateMutability": "view",
					"type": "function"
				},
				{
					"inputs": [],
					"name": "lastRewardBlock",
					"outputs": [
						{
							"internalType": "uint256",
							"name": "",
							"type": "uint256"
						}
					],
					"stateMutability": "view",
					"type": "function"
				},
				{
					"inputs": [],
					"name": "owner",
					"outputs": [
						{
							"internalType": "address",
							"name": "",
							"type": "address"
						}
					],
					"stateMutability": "view",
					"type": "function"
				},
				{
					"inputs": [
						{
							"internalType": "address",
							"name": "_user",
							"type": "address"
						}
					],
					"name": "pendingReward",
					"outputs": [
						{
							"internalType": "uint256",
							"name": "",
							"type": "uint256"
						}
					],
					"stateMutability": "view",
					"type": "function"
				},
				{
					"inputs": [],
					"name": "poolLimitPerUser",
					"outputs": [
						{
							"internalType": "uint256",
							"name": "",
							"type": "uint256"
						}
					],
					"stateMutability": "view",
					"type": "function"
				},
				{
					"inputs": [
						{
							"internalType": "address",
							"name": "_tokenAddress",
							"type": "address"
						},
						{
							"internalType": "uint256",
							"name": "_tokenAmount",
							"type": "uint256"
						}
					],
					"name": "recoverWrongTokens",
					"outputs": [],
					"stateMutability": "nonpayable",
					"type": "function"
				},
				{
					"inputs": [],
					"name": "renounceOwnership",
					"outputs": [],
					"stateMutability": "nonpayable",
					"type": "function"
				},
				{
					"inputs": [],
					"name": "rewardPerBlock",
					"outputs": [
						{
							"internalType": "uint256",
							"name": "",
							"type": "uint256"
						}
					],
					"stateMutability": "view",
					"type": "function"
				},
				{
					"inputs": [],
					"name": "rewardToken",
					"outputs": [
						{
							"internalType": "contract IBEP20",
							"name": "",
							"type": "address"
						}
					],
					"stateMutability": "view",
					"type": "function"
				},
				{
					"inputs": [],
					"name": "stakedByUsers",
					"outputs": [
						{
							"internalType": "uint256",
							"name": "",
							"type": "uint256"
						}
					],
					"stateMutability": "view",
					"type": "function"
				},
				{
					"inputs": [],
					"name": "stakedToken",
					"outputs": [
						{
							"internalType": "contract IBEP20",
							"name": "",
							"type": "address"
						}
					],
					"stateMutability": "view",
					"type": "function"
				},
				{
					"inputs": [],
					"name": "startBlock",
					"outputs": [
						{
							"internalType": "uint256",
							"name": "",
							"type": "uint256"
						}
					],
					"stateMutability": "view",
					"type": "function"
				},
				{
					"inputs": [],
					"name": "stopReward",
					"outputs": [],
					"stateMutability": "nonpayable",
					"type": "function"
				},
				{
					"inputs": [],
					"name": "totalWKDStaked",
					"outputs": [
						{
							"internalType": "uint256",
							"name": "",
							"type": "uint256"
						}
					],
					"stateMutability": "view",
					"type": "function"
				},
				{
					"inputs": [
						{
							"internalType": "address",
							"name": "newOwner",
							"type": "address"
						}
					],
					"name": "transferOwnership",
					"outputs": [],
					"stateMutability": "nonpayable",
					"type": "function"
				},
				{
					"inputs": [
						{
							"internalType": "bool",
							"name": "_hasUserLimit",
							"type": "bool"
						},
						{
							"internalType": "uint256",
							"name": "_poolLimitPerUser",
							"type": "uint256"
						}
					],
					"name": "updatePoolLimitPerUser",
					"outputs": [],
					"stateMutability": "nonpayable",
					"type": "function"
				},
				{
					"inputs": [
						{
							"internalType": "uint256",
							"name": "_rewardPerBlock",
							"type": "uint256"
						}
					],
					"name": "updateRewardPerBlock",
					"outputs": [],
					"stateMutability": "nonpayable",
					"type": "function"
				},
				{
					"inputs": [
						{
							"internalType": "uint256",
							"name": "_startBlock",
							"type": "uint256"
						},
						{
							"internalType": "uint256",
							"name": "_bonusEndBlock",
							"type": "uint256"
						}
					],
					"name": "updateStartAndEndBlocks",
					"outputs": [],
					"stateMutability": "nonpayable",
					"type": "function"
				},
				{
					"inputs": [
						{
							"internalType": "address",
							"name": "",
							"type": "address"
						}
					],
					"name": "userInfo",
					"outputs": [
						{
							"internalType": "uint256",
							"name": "amount",
							"type": "uint256"
						},
						{
							"internalType": "uint256",
							"name": "rewardDebt",
							"type": "uint256"
						}
					],
					"stateMutability": "view",
					"type": "function"
				},
				{
					"inputs": [
						{
							"internalType": "uint256",
							"name": "_amount",
							"type": "uint256"
						}
					],
					"name": "withdraw",
					"outputs": [],
					"stateMutability": "nonpayable",
					"type": "function"
				}
			],
			"devdoc": {
				"kind": "dev",
				"methods": {
					"owner()": {
						"details": "Returns the address of the current owner."
					},
					"recoverWrongTokens(address,uint256)": {
						"details": "This function is only callable by admin.",
						"params": {
							"_tokenAddress": ": the address of the token to withdraw",
							"_tokenAmount": ": the number of tokens to withdraw"
						}
					},
					"renounceOwnership()": {
						"details": "Leaves the contract without owner. It will not be possible to call `onlyOwner` functions anymore. Can only be called by the current owner. NOTE: Renouncing ownership will leave the contract without an owner, thereby removing any functionality that is only available to the owner."
					},
					"transferOwnership(address)": {
						"details": "Transfers ownership of the contract to a new account (`newOwner`). Can only be called by the current owner."
					},
					"updateStartAndEndBlocks(uint256,uint256)": {
						"details": "This function is only callable by owner.",
						"params": {
							"_bonusEndBlock": ": the new end block",
							"_startBlock": ": the new start block"
						}
					}
				},
				"version": 1
			},
			"evm": {
				"assembly": "    /* \"src/farm/GenericStake.sol\":452:12329  contract WakandaPoolInitializable is Ownable, ReentrancyGuard {... */\n  mstore(0x40, 0x80)\n    /* \"src/farm/GenericStake.sol\":2205:2275  constructor() public {... */\n  callvalue\n  dup1\n  iszero\n  tag_1\n  jumpi\n  0x00\n  dup1\n  revert\ntag_1:\n  pop\n    /* \"https://github.com/OpenZeppelin/openzeppelin-contracts/blob/v3.3.0/contracts/access/Ownable.sol\":882:899  address msgSender */\n  0x00\n    /* \"https://github.com/OpenZeppelin/openzeppelin-contracts/blob/v3.3.0/contracts/access/Ownable.sol\":902:914  _msgSender() */\n  tag_6\n    /* \"https://github.com/OpenZeppelin/openzeppelin-contracts/blob/v3.3.0/contracts/access/Ownable.sol\":902:912  _msgSender */\n  shl(0x20, tag_7)\n    /* \"https://github.com/OpenZeppelin/openzeppelin-contracts/blob/v3.3.0/contracts/access/Ownable.sol\":902:914  _msgSender() */\n  0x20\n  shr\n  jump\t// in\ntag_6:\n    /* \"https://github.com/OpenZeppelin/openzeppelin-contracts/blob/v3.3.0/contracts/access/Ownable.sol\":882:914  address msgSender = _msgSender() */\n  swap1\n  pop\n    /* \"https://github.com/OpenZeppelin/openzeppelin-contracts/blob/v3.3.0/contracts/access/Ownable.sol\":933:942  msgSender */\n  dup1\n    /* \"https://github.com/OpenZeppelin/openzeppelin-contracts/blob/v3.3.0/contracts/access/Ownable.sol\":924:930  _owner */\n  0x00\n  dup1\n    /* \"https://github.com/OpenZeppelin/openzeppelin-contracts/blob/v3.3.0/contracts/access/Ownable.sol\":924:942  _owner = msgSender */\n  0x0100\n  exp\n  dup2\n  sload\n  dup2\n  0xffffffffffffffffffffffffffffffffffffffff\n  mul\n  not\n  and\n  swap1\n  dup4\n  0xffffffffffffffffffffffffffffffffffffffff\n  and\n  mul\n  or\n  swap1\n  sstore\n  pop\n    /* \"https://github.com/OpenZeppelin/openzeppelin-contracts/blob/v3.3.0/contracts/access/Ownable.sol\":990:999  msgSender */\n  dup1\n    /* \"https://github.com/OpenZeppelin/openzeppelin-contracts/blob/v3.3.0/contracts/access/Ownable.sol\":957:1000  OwnershipTransferred(address(0), msgSender) */\n  0xffffffffffffffffffffffffffffffffffffffff\n  and\n    /* \"https://github.com/OpenZeppelin/openzeppelin-contracts/blob/v3.3.0/contracts/access/Ownable.sol\":986:987  0 */\n  0x00\n    /* \"https://github.com/OpenZeppelin/openzeppelin-contracts/blob/v3.3.0/contracts/access/Ownable.sol\":957:1000  OwnershipTransferred(address(0), msgSender) */\n  0xffffffffffffffffffffffffffffffffffffffff\n  and\n  0x8be0079c531659141344cd1fd0a4f28419497f9722a3daafe3b4186f6b6457e0\n  mload(0x40)\n  mload(0x40)\n  dup1\n  swap2\n  sub\n  swap1\n  log3\n    /* \"https://github.com/OpenZeppelin/openzeppelin-contracts/blob/v3.3.0/contracts/access/Ownable.sol\":848:1007  constructor () internal {... */\n  pop\n    /* \"https://github.com/OpenZeppelin/openzeppelin-contracts/blob/v3.3.0/contracts/utils/ReentrancyGuard.sol\":1645:1646  1 */\n  0x01\n    /* \"https://github.com/OpenZeppelin/openzeppelin-contracts/blob/v3.3.0/contracts/utils/ReentrancyGuard.sol\":1760:1767  _status */\n  dup1\n    /* \"https://github.com/OpenZeppelin/openzeppelin-contracts/blob/v3.3.0/contracts/utils/ReentrancyGuard.sol\":1760:1782  _status = _NOT_ENTERED */\n  dup2\n  swap1\n  sstore\n  pop\n    /* \"src/farm/GenericStake.sol\":2258:2268  msg.sender */\n  caller\n    /* \"src/farm/GenericStake.sol\":2236:2255  GenericStakeFactory */\n  0x02\n  0x00\n    /* \"src/farm/GenericStake.sol\":2236:2268  GenericStakeFactory = msg.sender */\n  0x0100\n  exp\n  dup2\n  sload\n  dup2\n  0xffffffffffffffffffffffffffffffffffffffff\n  mul\n  not\n  and\n  swap1\n  dup4\n  0xffffffffffffffffffffffffffffffffffffffff\n  and\n  mul\n  or\n  swap1\n  sstore\n  pop\n    /* \"src/farm/GenericStake.sol\":452:12329  contract WakandaPoolInitializable is Ownable, ReentrancyGuard {... */\n  jump(tag_10)\n    /* \"https://github.com/OpenZeppelin/openzeppelin-contracts/blob/v3.3.0/contracts/GSN/Context.sol\":598:702  function _msgSender() internal view virtual returns (address payable) {... */\ntag_7:\n    /* \"https://github.com/OpenZeppelin/openzeppelin-contracts/blob/v3.3.0/contracts/GSN/Context.sol\":651:666  address payable */\n  0x00\n    /* \"https://github.com/OpenZeppelin/openzeppelin-contracts/blob/v3.3.0/contracts/GSN/Context.sol\":685:695  msg.sender */\n  caller\n    /* \"https://github.com/OpenZeppelin/openzeppelin-contracts/blob/v3.3.0/contracts/GSN/Context.sol\":678:695  return msg.sender */\n  swap1\n  pop\n    /* \"https://github.com/OpenZeppelin/openzeppelin-contracts/blob/v3.3.0/contracts/GSN/Context.sol\":598:702  function _msgSender() internal view virtual returns (address payable) {... */\n  swap1\n  jump\t// out\n    /* \"src/farm/GenericStake.sol\":452:12329  contract WakandaPoolInitializable is Ownable, ReentrancyGuard {... */\ntag_10:\n  dataSize(sub_0)\n  dup1\n  dataOffset(sub_0)\n  0x00\n  codecopy\n  0x00\n  return\nstop\n\nsub_0: assembly {\n        /* \"src/farm/GenericStake.sol\":452:12329  contract WakandaPoolInitializable is Ownable, ReentrancyGuard {... */\n      mstore(0x40, 0x80)\n      callvalue\n      dup1\n      iszero\n      tag_1\n      jumpi\n      0x00\n      dup1\n      revert\n    tag_1:\n      pop\n      jumpi(tag_2, lt(calldatasize, 0x04))\n      shr(0xe0, calldataload(0x00))\n      dup1\n      0x8ae39cac\n      gt\n      tag_33\n      jumpi\n      dup1\n      0xb6b55f25\n      gt\n      tag_34\n      jumpi\n      dup1\n      0xf2fde38b\n      gt\n      tag_35\n      jumpi\n      dup1\n      0xf2fde38b\n      eq\n      tag_29\n      jumpi\n      dup1\n      0xf36cc893\n      eq\n      tag_30\n      jumpi\n      dup1\n      0xf40f0f52\n      eq\n      tag_31\n      jumpi\n      dup1\n      0xf7c618c1\n      eq\n      tag_32\n      jumpi\n      jump(tag_2)\n    tag_35:\n      dup1\n      0xb6b55f25\n      eq\n      tag_25\n      jumpi\n      dup1\n      0xcc7a262e\n      eq\n      tag_26\n      jumpi\n      dup1\n      0xccd34cd5\n      eq\n      tag_27\n      jumpi\n      dup1\n      0xdb2e21bc\n      eq\n      tag_28\n      jumpi\n      jump(tag_2)\n    tag_34:\n      dup1\n      0x92e8990e\n      gt\n      tag_36\n      jumpi\n      dup1\n      0x92e8990e\n      eq\n      tag_21\n      jumpi\n      dup1\n      0x9513997f\n      eq\n      tag_22\n      jumpi\n      dup1\n      0xa0b40905\n      eq\n      tag_23\n      jumpi\n      dup1\n      0xa9f8d181\n      eq\n      tag_24\n      jumpi\n      jump(tag_2)\n    tag_36:\n      dup1\n      0x8ae39cac\n      eq\n      tag_18\n      jumpi\n      dup1\n      0x8da5cb5b\n      eq\n      tag_19\n      jumpi\n      dup1\n      0x8f662915\n      eq\n      tag_20\n      jumpi\n      jump(tag_2)\n    tag_33:\n      dup1\n      0x3f138d4b\n      gt\n      tag_37\n      jumpi\n      dup1\n      0x715018a6\n      gt\n      tag_38\n      jumpi\n      dup1\n      0x715018a6\n      eq\n      tag_14\n      jumpi\n      dup1\n      0x80dc0672\n      eq\n      tag_15\n      jumpi\n      dup1\n      0x83a5041c\n      eq\n      tag_16\n      jumpi\n      dup1\n      0x879d9090\n      eq\n      tag_17\n      jumpi\n      jump(tag_2)\n    tag_38:\n      dup1\n      0x3f138d4b\n      eq\n      tag_10\n      jumpi\n      dup1\n      0x48cd4cb1\n      eq\n      tag_11\n      jumpi\n      dup1\n      0x514f4a42\n      eq\n      tag_12\n      jumpi\n      dup1\n      0x66fe9f8a\n      eq\n      tag_13\n      jumpi\n      jump(tag_2)\n    tag_37:\n      dup1\n      0x2de68155\n      gt\n      tag_39\n      jumpi\n      dup1\n      0x2de68155\n      eq\n      tag_6\n      jumpi\n      dup1\n      0x2e1a7d4d\n      eq\n      tag_7\n      jumpi\n      dup1\n      0x3279beab\n      eq\n      tag_8\n      jumpi\n      dup1\n      0x392e53cd\n      eq\n      tag_9\n      jumpi\n      jump(tag_2)\n    tag_39:\n      dup1\n      0x01f8a976\n      eq\n      tag_3\n      jumpi\n      dup1\n      0x1959a002\n      eq\n      tag_4\n      jumpi\n      dup1\n      0x1aed6553\n      eq\n      tag_5\n      jumpi\n    tag_2:\n      0x00\n      dup1\n      revert\n        /* \"src/farm/GenericStake.sol\":8855:9027  function updateRewardPerBlock(uint256 _rewardPerBlock) external onlyOwner {... */\n    tag_3:\n      tag_40\n      0x04\n      dup1\n      calldatasize\n      sub\n      0x20\n      dup2\n      lt\n      iszero\n      tag_41\n      jumpi\n      0x00\n      dup1\n      revert\n    tag_41:\n      dup2\n      add\n      swap1\n      dup1\n      dup1\n      calldataload\n      swap1\n      0x20\n      add\n      swap1\n      swap3\n      swap2\n      swap1\n      pop\n      pop\n      pop\n      tag_42\n      jump\t// in\n    tag_40:\n      stop\n        /* \"src/farm/GenericStake.sol\":1540:1584  mapping(address => UserInfo) public userInfo */\n    tag_4:\n      tag_43\n      0x04\n      dup1\n      calldatasize\n      sub\n      0x20\n      dup2\n      lt\n      iszero\n      tag_44\n      jumpi\n      0x00\n      dup1\n      revert\n    tag_44:\n      dup2\n      add\n      swap1\n      dup1\n      dup1\n      calldataload\n      0xffffffffffffffffffffffffffffffffffffffff\n      and\n      swap1\n      0x20\n      add\n      swap1\n      swap3\n      swap2\n      swap1\n      pop\n      pop\n      pop\n      tag_45\n      jump\t// in\n    tag_43:\n      mload(0x40)\n      dup1\n      dup4\n      dup2\n      mstore\n      0x20\n      add\n      dup3\n      dup2\n      mstore\n      0x20\n      add\n      swap3\n      pop\n      pop\n      pop\n      mload(0x40)\n      dup1\n      swap2\n      sub\n      swap1\n      return\n        /* \"src/farm/GenericStake.sol\":959:987  uint256 public bonusEndBlock */\n    tag_5:\n      tag_46\n      tag_47\n      jump\t// in\n    tag_46:\n      mload(0x40)\n      dup1\n      dup3\n      dup2\n      mstore\n      0x20\n      add\n      swap2\n      pop\n      pop\n      mload(0x40)\n      dup1\n      swap2\n      sub\n      swap1\n      return\n        /* \"src/farm/GenericStake.sol\":12237:12327  function totalWKDStaked() public view returns (uint) {... */\n    tag_6:\n      tag_48\n      tag_49\n      jump\t// in\n    tag_48:\n      mload(0x40)\n      dup1\n      dup3\n      dup2\n      mstore\n      0x20\n      add\n      swap2\n      pop\n      pop\n      mload(0x40)\n      dup1\n      swap2\n      sub\n      swap1\n      return\n        /* \"src/farm/GenericStake.sol\":5291:6111  function withdraw(uint256 _amount) external nonReentrant {... */\n    tag_7:\n      tag_50\n      0x04\n      dup1\n      calldatasize\n      sub\n      0x20\n      dup2\n      lt\n      iszero\n      tag_51\n      jumpi\n      0x00\n      dup1\n      revert\n    tag_51:\n      dup2\n      add\n      swap1\n      dup1\n      dup1\n      calldataload\n      swap1\n      0x20\n      add\n      swap1\n      swap3\n      swap2\n      swap1\n      pop\n      pop\n      pop\n      tag_52\n      jump\t// in\n    tag_50:\n      stop\n        /* \"src/farm/GenericStake.sol\":6938:7126  function emergencyRewardWithdraw(uint256 _amount) external onlyOwner {... */\n    tag_8:\n      tag_53\n      0x04\n      dup1\n      calldatasize\n      sub\n      0x20\n      dup2\n      lt\n      iszero\n      tag_54\n      jumpi\n      0x00\n      dup1\n      revert\n    tag_54:\n      dup2\n      add\n      swap1\n      dup1\n      dup1\n      calldataload\n      swap1\n      0x20\n      add\n      swap1\n      swap3\n      swap2\n      swap1\n      pop\n      pop\n      pop\n      tag_55\n      jump\t// in\n    tag_53:\n      stop\n        /* \"src/farm/GenericStake.sol\":778:803  bool public isInitialized */\n    tag_9:\n      tag_56\n      tag_57\n      jump\t// in\n    tag_56:\n      mload(0x40)\n      dup1\n      dup3\n      iszero\n      iszero\n      dup2\n      mstore\n      0x20\n      add\n      swap2\n      pop\n      pop\n      mload(0x40)\n      dup1\n      swap2\n      sub\n      swap1\n      return\n        /* \"src/farm/GenericStake.sol\":7408:7786  function recoverWrongTokens(address _tokenAddress, uint256 _tokenAmount)... */\n    tag_10:\n      tag_58\n      0x04\n      dup1\n      calldatasize\n      sub\n      0x40\n      dup2\n      lt\n      iszero\n      tag_59\n      jumpi\n      0x00\n      dup1\n      revert\n    tag_59:\n      dup2\n      add\n      swap1\n      dup1\n      dup1\n      calldataload\n      0xffffffffffffffffffffffffffffffffffffffff\n      and\n      swap1\n      0x20\n      add\n      swap1\n      swap3\n      swap2\n      swap1\n      dup1\n      calldataload\n      swap1\n      0x20\n      add\n      swap1\n      swap3\n      swap2\n      swap1\n      pop\n      pop\n      pop\n      tag_60\n      jump\t// in\n    tag_58:\n      stop\n        /* \"src/farm/GenericStake.sol\":1042:1067  uint256 public startBlock */\n    tag_11:\n      tag_61\n      tag_62\n      jump\t// in\n    tag_61:\n      mload(0x40)\n      dup1\n      dup3\n      dup2\n      mstore\n      0x20\n      add\n      swap2\n      pop\n      pop\n      mload(0x40)\n      dup1\n      swap2\n      sub\n      swap1\n      return\n        /* \"src/farm/GenericStake.sol\":633:667  address public GenericStakeFactory */\n    tag_12:\n      tag_63\n      tag_64\n      jump\t// in\n    tag_63:\n      mload(0x40)\n      dup1\n      dup3\n      0xffffffffffffffffffffffffffffffffffffffff\n      and\n      dup2\n      mstore\n      0x20\n      add\n      swap2\n      pop\n      pop\n      mload(0x40)\n      dup1\n      swap2\n      sub\n      swap1\n      return\n        /* \"src/farm/GenericStake.sol\":1193:1224  uint256 public poolLimitPerUser */\n    tag_13:\n      tag_65\n      tag_66\n      jump\t// in\n    tag_65:\n      mload(0x40)\n      dup1\n      dup3\n      dup2\n      mstore\n      0x20\n      add\n      swap2\n      pop\n      pop\n      mload(0x40)\n      dup1\n      swap2\n      sub\n      swap1\n      return\n        /* \"https://github.com/OpenZeppelin/openzeppelin-contracts/blob/v3.3.0/contracts/access/Ownable.sol\":1706:1851  function renounceOwnership() public virtual onlyOwner {... */\n    tag_14:\n      tag_67\n      tag_68\n      jump\t// in\n    tag_67:\n      stop\n        /* \"src/farm/GenericStake.sol\":7870:7956  function stopReward() external onlyOwner {... */\n    tag_15:\n      tag_69\n      tag_70\n      jump\t// in\n    tag_69:\n      stop\n        /* \"src/farm/GenericStake.sol\":2713:3917  function initialize(... */\n    tag_16:\n      tag_71\n      0x04\n      dup1\n      calldatasize\n      sub\n      0xe0\n      dup2\n      lt\n      iszero\n      tag_72\n      jumpi\n      0x00\n      dup1\n      revert\n    tag_72:\n      dup2\n      add\n      swap1\n      dup1\n      dup1\n      calldataload\n      0xffffffffffffffffffffffffffffffffffffffff\n      and\n      swap1\n      0x20\n      add\n      swap1\n      swap3\n      swap2\n      swap1\n      dup1\n      calldataload\n      0xffffffffffffffffffffffffffffffffffffffff\n      and\n      swap1\n      0x20\n      add\n      swap1\n      swap3\n      swap2\n      swap1\n      dup1\n      calldataload\n      swap1\n      0x20\n      add\n      swap1\n      swap3\n      swap2\n      swap1\n      dup1\n      calldataload\n      swap1\n      0x20\n      add\n      swap1\n      swap3\n      swap2\n      swap1\n      dup1\n      calldataload\n      swap1\n      0x20\n      add\n      swap1\n      swap3\n      swap2\n      swap1\n      dup1\n      calldataload\n      swap1\n      0x20\n      add\n      swap1\n      swap3\n      swap2\n      swap1\n      dup1\n      calldataload\n      0xffffffffffffffffffffffffffffffffffffffff\n      and\n      swap1\n      0x20\n      add\n      swap1\n      swap3\n      swap2\n      swap1\n      pop\n      pop\n      pop\n      tag_73\n      jump\t// in\n    tag_71:\n      stop\n        /* \"src/farm/GenericStake.sol\":6117:6248  function availableRewards() public view returns (uint) {... */\n    tag_17:\n      tag_74\n      tag_75\n      jump\t// in\n    tag_74:\n      mload(0x40)\n      dup1\n      dup3\n      dup2\n      mstore\n      0x20\n      add\n      swap2\n      pop\n      pop\n      mload(0x40)\n      dup1\n      swap2\n      sub\n      swap1\n      return\n        /* \"src/farm/GenericStake.sol\":1268:1297  uint256 public rewardPerBlock */\n    tag_18:\n      tag_76\n      tag_77\n      jump\t// in\n    tag_76:\n      mload(0x40)\n      dup1\n      dup3\n      dup2\n      mstore\n      0x20\n      add\n      swap2\n      pop\n      pop\n      mload(0x40)\n      dup1\n      swap2\n      sub\n      swap1\n      return\n        /* \"https://github.com/OpenZeppelin/openzeppelin-contracts/blob/v3.3.0/contracts/access/Ownable.sol\":1083:1160  function owner() public view returns (address) {... */\n    tag_19:\n      tag_78\n      tag_79\n      jump\t// in\n    tag_78:\n      mload(0x40)\n      dup1\n      dup3\n      0xffffffffffffffffffffffffffffffffffffffff\n      and\n      dup2\n      mstore\n      0x20\n      add\n      swap2\n      pop\n      pop\n      mload(0x40)\n      dup1\n      swap2\n      sub\n      swap1\n      return\n        /* \"src/farm/GenericStake.sol\":841:872  uint256 public accTokenPerShare */\n    tag_20:\n      tag_80\n      tag_81\n      jump\t// in\n    tag_80:\n      mload(0x40)\n      dup1\n      dup3\n      dup2\n      mstore\n      0x20\n      add\n      swap2\n      pop\n      pop\n      mload(0x40)\n      dup1\n      swap2\n      sub\n      swap1\n      return\n        /* \"src/farm/GenericStake.sol\":714:738  bool public hasUserLimit */\n    tag_21:\n      tag_82\n      tag_83\n      jump\t// in\n    tag_82:\n      mload(0x40)\n      dup1\n      dup3\n      iszero\n      iszero\n      dup2\n      mstore\n      0x20\n      add\n      swap2\n      pop\n      pop\n      mload(0x40)\n      dup1\n      swap2\n      sub\n      swap1\n      return\n        /* \"src/farm/GenericStake.sol\":9263:9947  function updateStartAndEndBlocks(... */\n    tag_22:\n      tag_84\n      0x04\n      dup1\n      calldatasize\n      sub\n      0x40\n      dup2\n      lt\n      iszero\n      tag_85\n      jumpi\n      0x00\n      dup1\n      revert\n    tag_85:\n      dup2\n      add\n      swap1\n      dup1\n      dup1\n      calldataload\n      swap1\n      0x20\n      add\n      swap1\n      swap3\n      swap2\n      swap1\n      dup1\n      calldataload\n      swap1\n      0x20\n      add\n      swap1\n      swap3\n      swap2\n      swap1\n      pop\n      pop\n      pop\n      tag_86\n      jump\t// in\n    tag_84:\n      stop\n        /* \"src/farm/GenericStake.sol\":8174:8707  function updatePoolLimitPerUser(... */\n    tag_23:\n      tag_87\n      0x04\n      dup1\n      calldatasize\n      sub\n      0x40\n      dup2\n      lt\n      iszero\n      tag_88\n      jumpi\n      0x00\n      dup1\n      revert\n    tag_88:\n      dup2\n      add\n      swap1\n      dup1\n      dup1\n      calldataload\n      iszero\n      iszero\n      swap1\n      0x20\n      add\n      swap1\n      swap3\n      swap2\n      swap1\n      dup1\n      calldataload\n      swap1\n      0x20\n      add\n      swap1\n      swap3\n      swap2\n      swap1\n      pop\n      pop\n      pop\n      tag_89\n      jump\t// in\n    tag_87:\n      stop\n        /* \"src/farm/GenericStake.sol\":1122:1152  uint256 public lastRewardBlock */\n    tag_24:\n      tag_90\n      tag_91\n      jump\t// in\n    tag_90:\n      mload(0x40)\n      dup1\n      dup3\n      dup2\n      mstore\n      0x20\n      add\n      swap2\n      pop\n      pop\n      mload(0x40)\n      dup1\n      swap2\n      sub\n      swap1\n      return\n        /* \"src/farm/GenericStake.sol\":4069:5147  function deposit(uint256 _amount) external nonReentrant {... */\n    tag_25:\n      tag_92\n      0x04\n      dup1\n      calldatasize\n      sub\n      0x20\n      dup2\n      lt\n      iszero\n      tag_93\n      jumpi\n      0x00\n      dup1\n      revert\n    tag_93:\n      dup2\n      add\n      swap1\n      dup1\n      dup1\n      calldataload\n      swap1\n      0x20\n      add\n      swap1\n      swap3\n      swap2\n      swap1\n      pop\n      pop\n      pop\n      tag_94\n      jump\t// in\n    tag_92:\n      stop\n        /* \"src/farm/GenericStake.sol\":1450:1475  IBEP20 public stakedToken */\n    tag_26:\n      tag_95\n      tag_96\n      jump\t// in\n    tag_95:\n      mload(0x40)\n      dup1\n      dup3\n      0xffffffffffffffffffffffffffffffffffffffff\n      and\n      dup2\n      mstore\n      0x20\n      add\n      swap2\n      pop\n      pop\n      mload(0x40)\n      dup1\n      swap2\n      sub\n      swap1\n      return\n        /* \"src/farm/GenericStake.sol\":1332:1363  uint256 public PRECISION_FACTOR */\n    tag_27:\n      tag_97\n      tag_98\n      jump\t// in\n    tag_97:\n      mload(0x40)\n      dup1\n      dup3\n      dup2\n      mstore\n      0x20\n      add\n      swap2\n      pop\n      pop\n      mload(0x40)\n      dup1\n      swap2\n      sub\n      swap1\n      return\n        /* \"src/farm/GenericStake.sol\":6383:6826  function emergencyWithdraw() external nonReentrant {... */\n    tag_28:\n      tag_99\n      tag_100\n      jump\t// in\n    tag_99:\n      stop\n        /* \"https://github.com/OpenZeppelin/openzeppelin-contracts/blob/v3.3.0/contracts/access/Ownable.sol\":2000:2240  function transferOwnership(address newOwner) public virtual onlyOwner {... */\n    tag_29:\n      tag_101\n      0x04\n      dup1\n      calldatasize\n      sub\n      0x20\n      dup2\n      lt\n      iszero\n      tag_102\n      jumpi\n      0x00\n      dup1\n      revert\n    tag_102:\n      dup2\n      add\n      swap1\n      dup1\n      dup1\n      calldataload\n      0xffffffffffffffffffffffffffffffffffffffff\n      and\n      swap1\n      0x20\n      add\n      swap1\n      swap3\n      swap2\n      swap1\n      pop\n      pop\n      pop\n      tag_103\n      jump\t// in\n    tag_101:\n      stop\n        /* \"src/farm/GenericStake.sol\":878:906  uint256 public stakedByUsers */\n    tag_30:\n      tag_104\n      tag_105\n      jump\t// in\n    tag_104:\n      mload(0x40)\n      dup1\n      dup3\n      dup2\n      mstore\n      0x20\n      add\n      swap2\n      pop\n      pop\n      mload(0x40)\n      dup1\n      swap2\n      sub\n      swap1\n      return\n        /* \"src/farm/GenericStake.sol\":10113:11046  function pendingReward(address _user) external view returns (uint256) {... */\n    tag_31:\n      tag_106\n      0x04\n      dup1\n      calldatasize\n      sub\n      0x20\n      dup2\n      lt\n      iszero\n      tag_107\n      jumpi\n      0x00\n      dup1\n      revert\n    tag_107:\n      dup2\n      add\n      swap1\n      dup1\n      dup1\n      calldataload\n      0xffffffffffffffffffffffffffffffffffffffff\n      and\n      swap1\n      0x20\n      add\n      swap1\n      swap3\n      swap2\n      swap1\n      pop\n      pop\n      pop\n      tag_108\n      jump\t// in\n    tag_106:\n      mload(0x40)\n      dup1\n      dup3\n      dup2\n      mstore\n      0x20\n      add\n      swap2\n      pop\n      pop\n      mload(0x40)\n      dup1\n      swap2\n      sub\n      swap1\n      return\n        /* \"src/farm/GenericStake.sol\":1394:1419  IBEP20 public rewardToken */\n    tag_32:\n      tag_109\n      tag_110\n      jump\t// in\n    tag_109:\n      mload(0x40)\n      dup1\n      dup3\n      0xffffffffffffffffffffffffffffffffffffffff\n      and\n      dup2\n      mstore\n      0x20\n      add\n      swap2\n      pop\n      pop\n      mload(0x40)\n      dup1\n      swap2\n      sub\n      swap1\n      return\n        /* \"src/farm/GenericStake.sol\":8855:9027  function updateRewardPerBlock(uint256 _rewardPerBlock) external onlyOwner {... */\n    tag_42:\n        /* \"https://github.com/OpenZeppelin/openzeppelin-contracts/blob/v3.3.0/contracts/access/Ownable.sol\":1297:1309  _msgSender() */\n      tag_112\n        /* \"https://github.com/OpenZeppelin/openzeppelin-contracts/blob/v3.3.0/contracts/access/Ownable.sol\":1297:1307  _msgSender */\n      tag_113\n        /* \"https://github.com/OpenZeppelin/openzeppelin-contracts/blob/v3.3.0/contracts/access/Ownable.sol\":1297:1309  _msgSender() */\n      jump\t// in\n    tag_112:\n        /* \"https://github.com/OpenZeppelin/openzeppelin-contracts/blob/v3.3.0/contracts/access/Ownable.sol\":1287:1309  _owner == _msgSender() */\n      0xffffffffffffffffffffffffffffffffffffffff\n      and\n        /* \"https://github.com/OpenZeppelin/openzeppelin-contracts/blob/v3.3.0/contracts/access/Ownable.sol\":1287:1293  _owner */\n      0x00\n      dup1\n      sload\n      swap1\n      0x0100\n      exp\n      swap1\n      div\n      0xffffffffffffffffffffffffffffffffffffffff\n      and\n        /* \"https://github.com/OpenZeppelin/openzeppelin-contracts/blob/v3.3.0/contracts/access/Ownable.sol\":1287:1309  _owner == _msgSender() */\n      0xffffffffffffffffffffffffffffffffffffffff\n      and\n      eq\n        /* \"https://github.com/OpenZeppelin/openzeppelin-contracts/blob/v3.3.0/contracts/access/Ownable.sol\":1279:1346  require(_owner == _msgSender(), \"Ownable: caller is not the owner\") */\n      tag_114\n      jumpi\n      mload(0x40)\n      0x08c379a000000000000000000000000000000000000000000000000000000000\n      dup2\n      mstore\n      0x04\n      add\n      dup1\n      dup1\n      0x20\n      add\n      dup3\n      dup2\n      sub\n      dup3\n      mstore\n      0x20\n      dup2\n      mstore\n      0x20\n      add\n      dup1\n      0x4f776e61626c653a2063616c6c6572206973206e6f7420746865206f776e6572\n      dup2\n      mstore\n      pop\n      0x20\n      add\n      swap2\n      pop\n      pop\n      mload(0x40)\n      dup1\n      swap2\n      sub\n      swap1\n      revert\n    tag_114:\n        /* \"src/farm/GenericStake.sol\":8956:8971  _rewardPerBlock */\n      dup1\n        /* \"src/farm/GenericStake.sol\":8939:8953  rewardPerBlock */\n      0x09\n        /* \"src/farm/GenericStake.sol\":8939:8971  rewardPerBlock = _rewardPerBlock */\n      dup2\n      swap1\n      sstore\n      pop\n        /* \"src/farm/GenericStake.sol\":8986:9020  NewRewardPerBlock(_rewardPerBlock) */\n      0x0c4d677eef92893ac7ec52faf8140fc6c851ab4736302b4f3a89dfb20696a0df\n        /* \"src/farm/GenericStake.sol\":9004:9019  _rewardPerBlock */\n      dup2\n        /* \"src/farm/GenericStake.sol\":8986:9020  NewRewardPerBlock(_rewardPerBlock) */\n      mload(0x40)\n      dup1\n      dup3\n      dup2\n      mstore\n      0x20\n      add\n      swap2\n      pop\n      pop\n      mload(0x40)\n      dup1\n      swap2\n      sub\n      swap1\n      log1\n        /* \"src/farm/GenericStake.sol\":8855:9027  function updateRewardPerBlock(uint256 _rewardPerBlock) external onlyOwner {... */\n      pop\n      jump\t// out\n        /* \"src/farm/GenericStake.sol\":1540:1584  mapping(address => UserInfo) public userInfo */\n    tag_45:\n      mstore(0x20, 0x0d)\n      dup1\n      0x00\n      mstore\n      keccak256(0x00, 0x40)\n      0x00\n      swap2\n      pop\n      swap1\n      pop\n      dup1\n      0x00\n      add\n      sload\n      swap1\n      dup1\n      0x01\n      add\n      sload\n      swap1\n      pop\n      dup3\n      jump\t// out\n        /* \"src/farm/GenericStake.sol\":959:987  uint256 public bonusEndBlock */\n    tag_47:\n      sload(0x05)\n      dup2\n      jump\t// out\n        /* \"src/farm/GenericStake.sol\":12237:12327  function totalWKDStaked() public view returns (uint) {... */\n    tag_49:\n        /* \"src/farm/GenericStake.sol\":12284:12288  uint */\n      0x00\n        /* \"src/farm/GenericStake.sol\":12307:12320  stakedByUsers */\n      sload(0x04)\n        /* \"src/farm/GenericStake.sol\":12300:12320  return stakedByUsers */\n      swap1\n      pop\n        /* \"src/farm/GenericStake.sol\":12237:12327  function totalWKDStaked() public view returns (uint) {... */\n      swap1\n      jump\t// out\n        /* \"src/farm/GenericStake.sol\":5291:6111  function withdraw(uint256 _amount) external nonReentrant {... */\n    tag_52:\n        /* \"https://github.com/OpenZeppelin/openzeppelin-contracts/blob/v3.3.0/contracts/utils/ReentrancyGuard.sol\":1688:1689  2 */\n      0x02\n        /* \"https://github.com/OpenZeppelin/openzeppelin-contracts/blob/v3.3.0/contracts/utils/ReentrancyGuard.sol\":2277:2284  _status */\n      sload(0x01)\n        /* \"https://github.com/OpenZeppelin/openzeppelin-contracts/blob/v3.3.0/contracts/utils/ReentrancyGuard.sol\":2277:2296  _status != _ENTERED */\n      eq\n      iszero\n        /* \"https://github.com/OpenZeppelin/openzeppelin-contracts/blob/v3.3.0/contracts/utils/ReentrancyGuard.sol\":2269:2332  require(_status != _ENTERED, \"ReentrancyGuard: reentrant call\") */\n      tag_118\n      jumpi\n      mload(0x40)\n      0x08c379a000000000000000000000000000000000000000000000000000000000\n      dup2\n      mstore\n      0x04\n      add\n      dup1\n      dup1\n      0x20\n      add\n      dup3\n      dup2\n      sub\n      dup3\n      mstore\n      0x1f\n      dup2\n      mstore\n      0x20\n      add\n      dup1\n      0x5265656e7472616e637947756172643a207265656e7472616e742063616c6c00\n      dup2\n      mstore\n      pop\n      0x20\n      add\n      swap2\n      pop\n      pop\n      mload(0x40)\n      dup1\n      swap2\n      sub\n      swap1\n      revert\n    tag_118:\n        /* \"https://github.com/OpenZeppelin/openzeppelin-contracts/blob/v3.3.0/contracts/utils/ReentrancyGuard.sol\":1688:1689  2 */\n      0x02\n        /* \"https://github.com/OpenZeppelin/openzeppelin-contracts/blob/v3.3.0/contracts/utils/ReentrancyGuard.sol\":2407:2414  _status */\n      0x01\n        /* \"https://github.com/OpenZeppelin/openzeppelin-contracts/blob/v3.3.0/contracts/utils/ReentrancyGuard.sol\":2407:2425  _status = _ENTERED */\n      dup2\n      swap1\n      sstore\n      pop\n        /* \"src/farm/GenericStake.sol\":5358:5379  UserInfo storage user */\n      0x00\n        /* \"src/farm/GenericStake.sol\":5382:5390  userInfo */\n      0x0d\n        /* \"src/farm/GenericStake.sol\":5382:5402  userInfo[msg.sender] */\n      0x00\n        /* \"src/farm/GenericStake.sol\":5391:5401  msg.sender */\n      caller\n        /* \"src/farm/GenericStake.sol\":5382:5402  userInfo[msg.sender] */\n      0xffffffffffffffffffffffffffffffffffffffff\n      and\n      0xffffffffffffffffffffffffffffffffffffffff\n      and\n      dup2\n      mstore\n      0x20\n      add\n      swap1\n      dup2\n      mstore\n      0x20\n      add\n      0x00\n      keccak256\n        /* \"src/farm/GenericStake.sol\":5358:5402  UserInfo storage user = userInfo[msg.sender] */\n      swap1\n      pop\n        /* \"src/farm/GenericStake.sol\":5435:5442  _amount */\n      dup2\n        /* \"src/farm/GenericStake.sol\":5420:5424  user */\n      dup2\n        /* \"src/farm/GenericStake.sol\":5420:5431  user.amount */\n      0x00\n      add\n      sload\n        /* \"src/farm/GenericStake.sol\":5420:5442  user.amount >= _amount */\n      lt\n      iszero\n        /* \"src/farm/GenericStake.sol\":5412:5474  require(user.amount >= _amount, \"Amount to withdraw too high\") */\n      tag_120\n      jumpi\n      mload(0x40)\n      0x08c379a000000000000000000000000000000000000000000000000000000000\n      dup2\n      mstore\n      0x04\n      add\n      dup1\n      dup1\n      0x20\n      add\n      dup3\n      dup2\n      sub\n      dup3\n      mstore\n      0x1b\n      dup2\n      mstore\n      0x20\n      add\n      dup1\n      0x416d6f756e7420746f20776974686472617720746f6f20686967680000000000\n      dup2\n      mstore\n      pop\n      0x20\n      add\n      swap2\n      pop\n      pop\n      mload(0x40)\n      dup1\n      swap2\n      sub\n      swap1\n      revert\n    tag_120:\n        /* \"src/farm/GenericStake.sol\":5501:5508  _amount */\n      dup2\n        /* \"src/farm/GenericStake.sol\":5484:5497  stakedByUsers */\n      0x04\n      0x00\n        /* \"src/farm/GenericStake.sol\":5484:5508  stakedByUsers -= _amount */\n      dup3\n      dup3\n      sload\n      sub\n      swap3\n      pop\n      pop\n      dup2\n      swap1\n      sstore\n      pop\n        /* \"src/farm/GenericStake.sol\":5519:5532  _updatePool() */\n      tag_121\n        /* \"src/farm/GenericStake.sol\":5519:5530  _updatePool */\n      tag_122\n        /* \"src/farm/GenericStake.sol\":5519:5532  _updatePool() */\n      jump\t// in\n    tag_121:\n        /* \"src/farm/GenericStake.sol\":5543:5558  uint256 pending */\n      0x00\n        /* \"src/farm/GenericStake.sol\":5561:5689  user... */\n      tag_123\n        /* \"src/farm/GenericStake.sol\":5673:5677  user */\n      dup3\n        /* \"src/farm/GenericStake.sol\":5673:5688  user.rewardDebt */\n      0x01\n      add\n      sload\n        /* \"src/farm/GenericStake.sol\":5561:5655  user... */\n      tag_124\n        /* \"src/farm/GenericStake.sol\":5638:5654  PRECISION_FACTOR */\n      sload(0x0a)\n        /* \"src/farm/GenericStake.sol\":5561:5620  user... */\n      tag_125\n        /* \"src/farm/GenericStake.sol\":5603:5619  accTokenPerShare */\n      sload(0x03)\n        /* \"src/farm/GenericStake.sol\":5561:5565  user */\n      dup8\n        /* \"src/farm/GenericStake.sol\":5561:5585  user... */\n      0x00\n      add\n      sload\n        /* \"src/farm/GenericStake.sol\":5561:5602  user... */\n      tag_126\n      swap1\n        /* \"src/farm/GenericStake.sol\":5561:5620  user... */\n      swap2\n      swap1\n      0xffffffff\n      and\n      jump\t// in\n    tag_125:\n        /* \"src/farm/GenericStake.sol\":5561:5637  user... */\n      tag_127\n      swap1\n        /* \"src/farm/GenericStake.sol\":5561:5655  user... */\n      swap2\n      swap1\n      0xffffffff\n      and\n      jump\t// in\n    tag_124:\n        /* \"src/farm/GenericStake.sol\":5561:5672  user... */\n      tag_128\n      swap1\n        /* \"src/farm/GenericStake.sol\":5561:5689  user... */\n      swap2\n      swap1\n      0xffffffff\n      and\n      jump\t// in\n    tag_123:\n        /* \"src/farm/GenericStake.sol\":5543:5689  uint256 pending = user... */\n      swap1\n      pop\n        /* \"src/farm/GenericStake.sol\":5714:5715  0 */\n      0x00\n        /* \"src/farm/GenericStake.sol\":5704:5711  _amount */\n      dup4\n        /* \"src/farm/GenericStake.sol\":5704:5715  _amount > 0 */\n      gt\n        /* \"src/farm/GenericStake.sol\":5700:5848  if (_amount > 0) {... */\n      iszero\n      tag_129\n      jumpi\n        /* \"src/farm/GenericStake.sol\":5745:5769  user.amount.sub(_amount) */\n      tag_130\n        /* \"src/farm/GenericStake.sol\":5761:5768  _amount */\n      dup4\n        /* \"src/farm/GenericStake.sol\":5745:5749  user */\n      dup4\n        /* \"src/farm/GenericStake.sol\":5745:5756  user.amount */\n      0x00\n      add\n      sload\n        /* \"src/farm/GenericStake.sol\":5745:5760  user.amount.sub */\n      tag_128\n      swap1\n        /* \"src/farm/GenericStake.sol\":5745:5769  user.amount.sub(_amount) */\n      swap2\n      swap1\n      0xffffffff\n      and\n      jump\t// in\n    tag_130:\n        /* \"src/farm/GenericStake.sol\":5731:5735  user */\n      dup3\n        /* \"src/farm/GenericStake.sol\":5731:5742  user.amount */\n      0x00\n      add\n        /* \"src/farm/GenericStake.sol\":5731:5769  user.amount = user.amount.sub(_amount) */\n      dup2\n      swap1\n      sstore\n      pop\n        /* \"src/farm/GenericStake.sol\":5783:5837  stakedToken.safeTransfer(address(msg.sender), _amount) */\n      tag_131\n        /* \"src/farm/GenericStake.sol\":5816:5826  msg.sender */\n      caller\n        /* \"src/farm/GenericStake.sol\":5829:5836  _amount */\n      dup5\n        /* \"src/farm/GenericStake.sol\":5783:5794  stakedToken */\n      0x0c\n      0x00\n      swap1\n      sload\n      swap1\n      0x0100\n      exp\n      swap1\n      div\n      0xffffffffffffffffffffffffffffffffffffffff\n      and\n        /* \"src/farm/GenericStake.sol\":5783:5807  stakedToken.safeTransfer */\n      0xffffffffffffffffffffffffffffffffffffffff\n      and\n      tag_132\n      swap1\n        /* \"src/farm/GenericStake.sol\":5783:5837  stakedToken.safeTransfer(address(msg.sender), _amount) */\n      swap3\n      swap2\n      swap1\n      0xffffffff\n      and\n      jump\t// in\n    tag_131:\n        /* \"src/farm/GenericStake.sol\":5700:5848  if (_amount > 0) {... */\n    tag_129:\n        /* \"src/farm/GenericStake.sol\":5872:5873  0 */\n      0x00\n        /* \"src/farm/GenericStake.sol\":5862:5869  pending */\n      dup2\n        /* \"src/farm/GenericStake.sol\":5862:5873  pending > 0 */\n      gt\n        /* \"src/farm/GenericStake.sol\":5858:5954  if (pending > 0) {... */\n      iszero\n      tag_133\n      jumpi\n        /* \"src/farm/GenericStake.sol\":5889:5943  rewardToken.safeTransfer(address(msg.sender), pending) */\n      tag_134\n        /* \"src/farm/GenericStake.sol\":5922:5932  msg.sender */\n      caller\n        /* \"src/farm/GenericStake.sol\":5935:5942  pending */\n      dup3\n        /* \"src/farm/GenericStake.sol\":5889:5900  rewardToken */\n      0x0b\n      0x00\n      swap1\n      sload\n      swap1\n      0x0100\n      exp\n      swap1\n      div\n      0xffffffffffffffffffffffffffffffffffffffff\n      and\n        /* \"src/farm/GenericStake.sol\":5889:5913  rewardToken.safeTransfer */\n      0xffffffffffffffffffffffffffffffffffffffff\n      and\n      tag_132\n      swap1\n        /* \"src/farm/GenericStake.sol\":5889:5943  rewardToken.safeTransfer(address(msg.sender), pending) */\n      swap3\n      swap2\n      swap1\n      0xffffffff\n      and\n      jump\t// in\n    tag_134:\n        /* \"src/farm/GenericStake.sol\":5858:5954  if (pending > 0) {... */\n    tag_133:\n        /* \"src/farm/GenericStake.sol\":5982:6059  user.amount.mul(accTokenPerShare).div(... */\n      tag_135\n        /* \"src/farm/GenericStake.sol\":6033:6049  PRECISION_FACTOR */\n      sload(0x0a)\n        /* \"src/farm/GenericStake.sol\":5982:6015  user.amount.mul(accTokenPerShare) */\n      tag_136\n        /* \"src/farm/GenericStake.sol\":5998:6014  accTokenPerShare */\n      sload(0x03)\n        /* \"src/farm/GenericStake.sol\":5982:5986  user */\n      dup6\n        /* \"src/farm/GenericStake.sol\":5982:5993  user.amount */\n      0x00\n      add\n      sload\n        /* \"src/farm/GenericStake.sol\":5982:5997  user.amount.mul */\n      tag_126\n      swap1\n        /* \"src/farm/GenericStake.sol\":5982:6015  user.amount.mul(accTokenPerShare) */\n      swap2\n      swap1\n      0xffffffff\n      and\n      jump\t// in\n    tag_136:\n        /* \"src/farm/GenericStake.sol\":5982:6019  user.amount.mul(accTokenPerShare).div */\n      tag_127\n      swap1\n        /* \"src/farm/GenericStake.sol\":5982:6059  user.amount.mul(accTokenPerShare).div(... */\n      swap2\n      swap1\n      0xffffffff\n      and\n      jump\t// in\n    tag_135:\n        /* \"src/farm/GenericStake.sol\":5964:5968  user */\n      dup3\n        /* \"src/farm/GenericStake.sol\":5964:5979  user.rewardDebt */\n      0x01\n      add\n        /* \"src/farm/GenericStake.sol\":5964:6059  user.rewardDebt = user.amount.mul(accTokenPerShare).div(... */\n      dup2\n      swap1\n      sstore\n      pop\n        /* \"src/farm/GenericStake.sol\":6084:6094  msg.sender */\n      caller\n        /* \"src/farm/GenericStake.sol\":6075:6104  Withdraw(msg.sender, _amount) */\n      0xffffffffffffffffffffffffffffffffffffffff\n      and\n      0x884edad9ce6fa2440d8a54cc123490eb96d2768479d49ff9c7366125a9424364\n        /* \"src/farm/GenericStake.sol\":6096:6103  _amount */\n      dup5\n        /* \"src/farm/GenericStake.sol\":6075:6104  Withdraw(msg.sender, _amount) */\n      mload(0x40)\n      dup1\n      dup3\n      dup2\n      mstore\n      0x20\n      add\n      swap2\n      pop\n      pop\n      mload(0x40)\n      dup1\n      swap2\n      sub\n      swap1\n      log2\n        /* \"https://github.com/OpenZeppelin/openzeppelin-contracts/blob/v3.3.0/contracts/utils/ReentrancyGuard.sol\":2436:2437  _ */\n      pop\n      pop\n        /* \"https://github.com/OpenZeppelin/openzeppelin-contracts/blob/v3.3.0/contracts/utils/ReentrancyGuard.sol\":1645:1646  1 */\n      0x01\n        /* \"https://github.com/OpenZeppelin/openzeppelin-contracts/blob/v3.3.0/contracts/utils/ReentrancyGuard.sol\":2580:2587  _status */\n      dup1\n        /* \"https://github.com/OpenZeppelin/openzeppelin-contracts/blob/v3.3.0/contracts/utils/ReentrancyGuard.sol\":2580:2602  _status = _NOT_ENTERED */\n      dup2\n      swap1\n      sstore\n      pop\n        /* \"src/farm/GenericStake.sol\":5291:6111  function withdraw(uint256 _amount) external nonReentrant {... */\n      pop\n      jump\t// out\n        /* \"src/farm/GenericStake.sol\":6938:7126  function emergencyRewardWithdraw(uint256 _amount) external onlyOwner {... */\n    tag_55:\n        /* \"https://github.com/OpenZeppelin/openzeppelin-contracts/blob/v3.3.0/contracts/access/Ownable.sol\":1297:1309  _msgSender() */\n      tag_138\n        /* \"https://github.com/OpenZeppelin/openzeppelin-contracts/blob/v3.3.0/contracts/access/Ownable.sol\":1297:1307  _msgSender */\n      tag_113\n        /* \"https://github.com/OpenZeppelin/openzeppelin-contracts/blob/v3.3.0/contracts/access/Ownable.sol\":1297:1309  _msgSender() */\n      jump\t// in\n    tag_138:\n        /* \"https://github.com/OpenZeppelin/openzeppelin-contracts/blob/v3.3.0/contracts/access/Ownable.sol\":1287:1309  _owner == _msgSender() */\n      0xffffffffffffffffffffffffffffffffffffffff\n      and\n        /* \"https://github.com/OpenZeppelin/openzeppelin-contracts/blob/v3.3.0/contracts/access/Ownable.sol\":1287:1293  _owner */\n      0x00\n      dup1\n      sload\n      swap1\n      0x0100\n      exp\n      swap1\n      div\n      0xffffffffffffffffffffffffffffffffffffffff\n      and\n        /* \"https://github.com/OpenZeppelin/openzeppelin-contracts/blob/v3.3.0/contracts/access/Ownable.sol\":1287:1309  _owner == _msgSender() */\n      0xffffffffffffffffffffffffffffffffffffffff\n      and\n      eq\n        /* \"https://github.com/OpenZeppelin/openzeppelin-contracts/blob/v3.3.0/contracts/access/Ownable.sol\":1279:1346  require(_owner == _msgSender(), \"Ownable: caller is not the owner\") */\n      tag_139\n      jumpi\n      mload(0x40)\n      0x08c379a000000000000000000000000000000000000000000000000000000000\n      dup2\n      mstore\n      0x04\n      add\n      dup1\n      dup1\n      0x20\n      add\n      dup3\n      dup2\n      sub\n      dup3\n      mstore\n      0x20\n      dup2\n      mstore\n      0x20\n      add\n      dup1\n      0x4f776e61626c653a2063616c6c6572206973206e6f7420746865206f776e6572\n      dup2\n      mstore\n      pop\n      0x20\n      add\n      swap2\n      pop\n      pop\n      mload(0x40)\n      dup1\n      swap2\n      sub\n      swap1\n      revert\n    tag_139:\n        /* \"src/farm/GenericStake.sol\":7036:7054  availableRewards() */\n      tag_141\n        /* \"src/farm/GenericStake.sol\":7036:7052  availableRewards */\n      tag_75\n        /* \"src/farm/GenericStake.sol\":7036:7054  availableRewards() */\n      jump\t// in\n    tag_141:\n        /* \"src/farm/GenericStake.sol\":7025:7032  _amount */\n      dup2\n        /* \"src/farm/GenericStake.sol\":7025:7054  _amount <= availableRewards() */\n      gt\n      iszero\n        /* \"src/farm/GenericStake.sol\":7017:7055  require(_amount <= availableRewards()) */\n      tag_142\n      jumpi\n      0x00\n      dup1\n      revert\n    tag_142:\n        /* \"src/farm/GenericStake.sol\":7065:7119  rewardToken.safeTransfer(address(msg.sender), _amount) */\n      tag_143\n        /* \"src/farm/GenericStake.sol\":7098:7108  msg.sender */\n      caller\n        /* \"src/farm/GenericStake.sol\":7111:7118  _amount */\n      dup3\n        /* \"src/farm/GenericStake.sol\":7065:7076  rewardToken */\n      0x0b\n      0x00\n      swap1\n      sload\n      swap1\n      0x0100\n      exp\n      swap1\n      div\n      0xffffffffffffffffffffffffffffffffffffffff\n      and\n        /* \"src/farm/GenericStake.sol\":7065:7089  rewardToken.safeTransfer */\n      0xffffffffffffffffffffffffffffffffffffffff\n      and\n      tag_132\n      swap1\n        /* \"src/farm/GenericStake.sol\":7065:7119  rewardToken.safeTransfer(address(msg.sender), _amount) */\n      swap3\n      swap2\n      swap1\n      0xffffffff\n      and\n      jump\t// in\n    tag_143:\n        /* \"src/farm/GenericStake.sol\":6938:7126  function emergencyRewardWithdraw(uint256 _amount) external onlyOwner {... */\n      pop\n      jump\t// out\n        /* \"src/farm/GenericStake.sol\":778:803  bool public isInitialized */\n    tag_57:\n      0x02\n      0x15\n      swap1\n      sload\n      swap1\n      0x0100\n      exp\n      swap1\n      div\n      0xff\n      and\n      dup2\n      jump\t// out\n        /* \"src/farm/GenericStake.sol\":7408:7786  function recoverWrongTokens(address _tokenAddress, uint256 _tokenAmount)... */\n    tag_60:\n        /* \"https://github.com/OpenZeppelin/openzeppelin-contracts/blob/v3.3.0/contracts/access/Ownable.sol\":1297:1309  _msgSender() */\n      tag_145\n        /* \"https://github.com/OpenZeppelin/openzeppelin-contracts/blob/v3.3.0/contracts/access/Ownable.sol\":1297:1307  _msgSender */\n      tag_113\n        /* \"https://github.com/OpenZeppelin/openzeppelin-contracts/blob/v3.3.0/contracts/access/Ownable.sol\":1297:1309  _msgSender() */\n      jump\t// in\n    tag_145:\n        /* \"https://github.com/OpenZeppelin/openzeppelin-contracts/blob/v3.3.0/contracts/access/Ownable.sol\":1287:1309  _owner == _msgSender() */\n      0xffffffffffffffffffffffffffffffffffffffff\n      and\n        /* \"https://github.com/OpenZeppelin/openzeppelin-contracts/blob/v3.3.0/contracts/access/Ownable.sol\":1287:1293  _owner */\n      0x00\n      dup1\n      sload\n      swap1\n      0x0100\n      exp\n      swap1\n      div\n      0xffffffffffffffffffffffffffffffffffffffff\n      and\n        /* \"https://github.com/OpenZeppelin/openzeppelin-contracts/blob/v3.3.0/contracts/access/Ownable.sol\":1287:1309  _owner == _msgSender() */\n      0xffffffffffffffffffffffffffffffffffffffff\n      and\n      eq\n        /* \"https://github.com/OpenZeppelin/openzeppelin-contracts/blob/v3.3.0/contracts/access/Ownable.sol\":1279:1346  require(_owner == _msgSender(), \"Ownable: caller is not the owner\") */\n      tag_146\n      jumpi\n      mload(0x40)\n      0x08c379a000000000000000000000000000000000000000000000000000000000\n      dup2\n      mstore\n      0x04\n      add\n      dup1\n      dup1\n      0x20\n      add\n      dup3\n      dup2\n      sub\n      dup3\n      mstore\n      0x20\n      dup2\n      mstore\n      0x20\n      add\n      dup1\n      0x4f776e61626c653a2063616c6c6572206973206e6f7420746865206f776e6572\n      dup2\n      mstore\n      pop\n      0x20\n      add\n      swap2\n      pop\n      pop\n      mload(0x40)\n      dup1\n      swap2\n      sub\n      swap1\n      revert\n    tag_146:\n        /* \"src/farm/GenericStake.sol\":7576:7587  stakedToken */\n      0x0c\n      0x00\n      swap1\n      sload\n      swap1\n      0x0100\n      exp\n      swap1\n      div\n      0xffffffffffffffffffffffffffffffffffffffff\n      and\n        /* \"src/farm/GenericStake.sol\":7551:7588  _tokenAddress != address(stakedToken) */\n      0xffffffffffffffffffffffffffffffffffffffff\n      and\n        /* \"src/farm/GenericStake.sol\":7551:7564  _tokenAddress */\n      dup3\n        /* \"src/farm/GenericStake.sol\":7551:7588  _tokenAddress != address(stakedToken) */\n      0xffffffffffffffffffffffffffffffffffffffff\n      and\n      eq\n      iszero\n        /* \"src/farm/GenericStake.sol\":7530:7636  require(... */\n      tag_148\n      jumpi\n      mload(0x40)\n      0x08c379a000000000000000000000000000000000000000000000000000000000\n      dup2\n      mstore\n      0x04\n      add\n      dup1\n      dup1\n      0x20\n      add\n      dup3\n      dup2\n      sub\n      dup3\n      mstore\n      0x16\n      dup2\n      mstore\n      0x20\n      add\n      dup1\n      0x43616e6e6f74206265207374616b656420746f6b656e00000000000000000000\n      dup2\n      mstore\n      pop\n      0x20\n      add\n      swap2\n      pop\n      pop\n      mload(0x40)\n      dup1\n      swap2\n      sub\n      swap1\n      revert\n    tag_148:\n        /* \"src/farm/GenericStake.sol\":7647:7716  IBEP20(_tokenAddress).safeTransfer(address(msg.sender), _tokenAmount) */\n      tag_149\n        /* \"src/farm/GenericStake.sol\":7690:7700  msg.sender */\n      caller\n        /* \"src/farm/GenericStake.sol\":7703:7715  _tokenAmount */\n      dup3\n        /* \"src/farm/GenericStake.sol\":7654:7667  _tokenAddress */\n      dup5\n        /* \"src/farm/GenericStake.sol\":7647:7681  IBEP20(_tokenAddress).safeTransfer */\n      0xffffffffffffffffffffffffffffffffffffffff\n      and\n      tag_132\n      swap1\n        /* \"src/farm/GenericStake.sol\":7647:7716  IBEP20(_tokenAddress).safeTransfer(address(msg.sender), _tokenAmount) */\n      swap3\n      swap2\n      swap1\n      0xffffffff\n      and\n      jump\t// in\n    tag_149:\n        /* \"src/farm/GenericStake.sol\":7732:7779  AdminTokenRecovery(_tokenAddress, _tokenAmount) */\n      0x74545154aac348a3eac92596bd1971957ca94795f4e954ec5f613b55fab78129\n        /* \"src/farm/GenericStake.sol\":7751:7764  _tokenAddress */\n      dup3\n        /* \"src/farm/GenericStake.sol\":7766:7778  _tokenAmount */\n      dup3\n        /* \"src/farm/GenericStake.sol\":7732:7779  AdminTokenRecovery(_tokenAddress, _tokenAmount) */\n      mload(0x40)\n      dup1\n      dup4\n      0xffffffffffffffffffffffffffffffffffffffff\n      and\n      dup2\n      mstore\n      0x20\n      add\n      dup3\n      dup2\n      mstore\n      0x20\n      add\n      swap3\n      pop\n      pop\n      pop\n      mload(0x40)\n      dup1\n      swap2\n      sub\n      swap1\n      log1\n        /* \"src/farm/GenericStake.sol\":7408:7786  function recoverWrongTokens(address _tokenAddress, uint256 _tokenAmount)... */\n      pop\n      pop\n      jump\t// out\n        /* \"src/farm/GenericStake.sol\":1042:1067  uint256 public startBlock */\n    tag_62:\n      sload(0x06)\n      dup2\n      jump\t// out\n        /* \"src/farm/GenericStake.sol\":633:667  address public GenericStakeFactory */\n    tag_64:\n      0x02\n      0x00\n      swap1\n      sload\n      swap1\n      0x0100\n      exp\n      swap1\n      div\n      0xffffffffffffffffffffffffffffffffffffffff\n      and\n      dup2\n      jump\t// out\n        /* \"src/farm/GenericStake.sol\":1193:1224  uint256 public poolLimitPerUser */\n    tag_66:\n      sload(0x08)\n      dup2\n      jump\t// out\n        /* \"https://github.com/OpenZeppelin/openzeppelin-contracts/blob/v3.3.0/contracts/access/Ownable.sol\":1706:1851  function renounceOwnership() public virtual onlyOwner {... */\n    tag_68:\n        /* \"https://github.com/OpenZeppelin/openzeppelin-contracts/blob/v3.3.0/contracts/access/Ownable.sol\":1297:1309  _msgSender() */\n      tag_151\n        /* \"https://github.com/OpenZeppelin/openzeppelin-contracts/blob/v3.3.0/contracts/access/Ownable.sol\":1297:1307  _msgSender */\n      tag_113\n        /* \"https://github.com/OpenZeppelin/openzeppelin-contracts/blob/v3.3.0/contracts/access/Ownable.sol\":1297:1309  _msgSender() */\n      jump\t// in\n    tag_151:\n        /* \"https://github.com/OpenZeppelin/openzeppelin-contracts/blob/v3.3.0/contracts/access/Ownable.sol\":1287:1309  _owner == _msgSender() */\n      0xffffffffffffffffffffffffffffffffffffffff\n      and\n        /* \"https://github.com/OpenZeppelin/openzeppelin-contracts/blob/v3.3.0/contracts/access/Ownable.sol\":1287:1293  _owner */\n      0x00\n      dup1\n      sload\n      swap1\n      0x0100\n      exp\n      swap1\n      div\n      0xffffffffffffffffffffffffffffffffffffffff\n      and\n        /* \"https://github.com/OpenZeppelin/openzeppelin-contracts/blob/v3.3.0/contracts/access/Ownable.sol\":1287:1309  _owner == _msgSender() */\n      0xffffffffffffffffffffffffffffffffffffffff\n      and\n      eq\n        /* \"https://github.com/OpenZeppelin/openzeppelin-contracts/blob/v3.3.0/contracts/access/Ownable.sol\":1279:1346  require(_owner == _msgSender(), \"Ownable: caller is not the owner\") */\n      tag_152\n      jumpi\n      mload(0x40)\n      0x08c379a000000000000000000000000000000000000000000000000000000000\n      dup2\n      mstore\n      0x04\n      add\n      dup1\n      dup1\n      0x20\n      add\n      dup3\n      dup2\n      sub\n      dup3\n      mstore\n      0x20\n      dup2\n      mstore\n      0x20\n      add\n      dup1\n      0x4f776e61626c653a2063616c6c6572206973206e6f7420746865206f776e6572\n      dup2\n      mstore\n      pop\n      0x20\n      add\n      swap2\n      pop\n      pop\n      mload(0x40)\n      dup1\n      swap2\n      sub\n      swap1\n      revert\n    tag_152:\n        /* \"https://github.com/OpenZeppelin/openzeppelin-contracts/blob/v3.3.0/contracts/access/Ownable.sol\":1812:1813  0 */\n      0x00\n        /* \"https://github.com/OpenZeppelin/openzeppelin-contracts/blob/v3.3.0/contracts/access/Ownable.sol\":1775:1815  OwnershipTransferred(_owner, address(0)) */\n      0xffffffffffffffffffffffffffffffffffffffff\n      and\n        /* \"https://github.com/OpenZeppelin/openzeppelin-contracts/blob/v3.3.0/contracts/access/Ownable.sol\":1796:1802  _owner */\n      0x00\n      dup1\n      sload\n      swap1\n      0x0100\n      exp\n      swap1\n      div\n      0xffffffffffffffffffffffffffffffffffffffff\n      and\n        /* \"https://github.com/OpenZeppelin/openzeppelin-contracts/blob/v3.3.0/contracts/access/Ownable.sol\":1775:1815  OwnershipTransferred(_owner, address(0)) */\n      0xffffffffffffffffffffffffffffffffffffffff\n      and\n      0x8be0079c531659141344cd1fd0a4f28419497f9722a3daafe3b4186f6b6457e0\n      mload(0x40)\n      mload(0x40)\n      dup1\n      swap2\n      sub\n      swap1\n      log3\n        /* \"https://github.com/OpenZeppelin/openzeppelin-contracts/blob/v3.3.0/contracts/access/Ownable.sol\":1842:1843  0 */\n      0x00\n        /* \"https://github.com/OpenZeppelin/openzeppelin-contracts/blob/v3.3.0/contracts/access/Ownable.sol\":1825:1831  _owner */\n      dup1\n      0x00\n        /* \"https://github.com/OpenZeppelin/openzeppelin-contracts/blob/v3.3.0/contracts/access/Ownable.sol\":1825:1844  _owner = address(0) */\n      0x0100\n      exp\n      dup2\n      sload\n      dup2\n      0xffffffffffffffffffffffffffffffffffffffff\n      mul\n      not\n      and\n      swap1\n      dup4\n      0xffffffffffffffffffffffffffffffffffffffff\n      and\n      mul\n      or\n      swap1\n      sstore\n      pop\n        /* \"https://github.com/OpenZeppelin/openzeppelin-contracts/blob/v3.3.0/contracts/access/Ownable.sol\":1706:1851  function renounceOwnership() public virtual onlyOwner {... */\n      jump\t// out\n        /* \"src/farm/GenericStake.sol\":7870:7956  function stopReward() external onlyOwner {... */\n    tag_70:\n        /* \"https://github.com/OpenZeppelin/openzeppelin-contracts/blob/v3.3.0/contracts/access/Ownable.sol\":1297:1309  _msgSender() */\n      tag_155\n        /* \"https://github.com/OpenZeppelin/openzeppelin-contracts/blob/v3.3.0/contracts/access/Ownable.sol\":1297:1307  _msgSender */\n      tag_113\n        /* \"https://github.com/OpenZeppelin/openzeppelin-contracts/blob/v3.3.0/contracts/access/Ownable.sol\":1297:1309  _msgSender() */\n      jump\t// in\n    tag_155:\n        /* \"https://github.com/OpenZeppelin/openzeppelin-contracts/blob/v3.3.0/contracts/access/Ownable.sol\":1287:1309  _owner == _msgSender() */\n      0xffffffffffffffffffffffffffffffffffffffff\n      and\n        /* \"https://github.com/OpenZeppelin/openzeppelin-contracts/blob/v3.3.0/contracts/access/Ownable.sol\":1287:1293  _owner */\n      0x00\n      dup1\n      sload\n      swap1\n      0x0100\n      exp\n      swap1\n      div\n      0xffffffffffffffffffffffffffffffffffffffff\n      and\n        /* \"https://github.com/OpenZeppelin/openzeppelin-contracts/blob/v3.3.0/contracts/access/Ownable.sol\":1287:1309  _owner == _msgSender() */\n      0xffffffffffffffffffffffffffffffffffffffff\n      and\n      eq\n        /* \"https://github.com/OpenZeppelin/openzeppelin-contracts/blob/v3.3.0/contracts/access/Ownable.sol\":1279:1346  require(_owner == _msgSender(), \"Ownable: caller is not the owner\") */\n      tag_156\n      jumpi\n      mload(0x40)\n      0x08c379a000000000000000000000000000000000000000000000000000000000\n      dup2\n      mstore\n      0x04\n      add\n      dup1\n      dup1\n      0x20\n      add\n      dup3\n      dup2\n      sub\n      dup3\n      mstore\n      0x20\n      dup2\n      mstore\n      0x20\n      add\n      dup1\n      0x4f776e61626c653a2063616c6c6572206973206e6f7420746865206f776e6572\n      dup2\n      mstore\n      pop\n      0x20\n      add\n      swap2\n      pop\n      pop\n      mload(0x40)\n      dup1\n      swap2\n      sub\n      swap1\n      revert\n    tag_156:\n        /* \"src/farm/GenericStake.sol\":7937:7949  block.number */\n      number\n        /* \"src/farm/GenericStake.sol\":7921:7934  bonusEndBlock */\n      0x05\n        /* \"src/farm/GenericStake.sol\":7921:7949  bonusEndBlock = block.number */\n      dup2\n      swap1\n      sstore\n      pop\n        /* \"src/farm/GenericStake.sol\":7870:7956  function stopReward() external onlyOwner {... */\n      jump\t// out\n        /* \"src/farm/GenericStake.sol\":2713:3917  function initialize(... */\n    tag_73:\n        /* \"src/farm/GenericStake.sol\":2978:2991  isInitialized */\n      0x02\n      0x15\n      swap1\n      sload\n      swap1\n      0x0100\n      exp\n      swap1\n      div\n      0xff\n      and\n        /* \"src/farm/GenericStake.sol\":2977:2991  !isInitialized */\n      iszero\n        /* \"src/farm/GenericStake.sol\":2969:3015  require(!isInitialized, \"Already initialized\") */\n      tag_159\n      jumpi\n      mload(0x40)\n      0x08c379a000000000000000000000000000000000000000000000000000000000\n      dup2\n      mstore\n      0x04\n      add\n      dup1\n      dup1\n      0x20\n      add\n      dup3\n      dup2\n      sub\n      dup3\n      mstore\n      0x13\n      dup2\n      mstore\n      0x20\n      add\n      dup1\n      0x416c726561647920696e697469616c697a656400000000000000000000000000\n      dup2\n      mstore\n      pop\n      0x20\n      add\n      swap2\n      pop\n      pop\n      mload(0x40)\n      dup1\n      swap2\n      sub\n      swap1\n      revert\n    tag_159:\n        /* \"src/farm/GenericStake.sol\":3047:3066  GenericStakeFactory */\n      0x02\n      0x00\n      swap1\n      sload\n      swap1\n      0x0100\n      exp\n      swap1\n      div\n      0xffffffffffffffffffffffffffffffffffffffff\n      and\n        /* \"src/farm/GenericStake.sol\":3033:3066  msg.sender == GenericStakeFactory */\n      0xffffffffffffffffffffffffffffffffffffffff\n      and\n        /* \"src/farm/GenericStake.sol\":3033:3043  msg.sender */\n      caller\n        /* \"src/farm/GenericStake.sol\":3033:3066  msg.sender == GenericStakeFactory */\n      0xffffffffffffffffffffffffffffffffffffffff\n      and\n      eq\n        /* \"src/farm/GenericStake.sol\":3025:3082  require(msg.sender == GenericStakeFactory, \"Not factory\") */\n      tag_160\n      jumpi\n      mload(0x40)\n      0x08c379a000000000000000000000000000000000000000000000000000000000\n      dup2\n      mstore\n      0x04\n      add\n      dup1\n      dup1\n      0x20\n      add\n      dup3\n      dup2\n      sub\n      dup3\n      mstore\n      0x0b\n      dup2\n      mstore\n      0x20\n      add\n      dup1\n      0x4e6f7420666163746f7279000000000000000000000000000000000000000000\n      dup2\n      mstore\n      pop\n      0x20\n      add\n      swap2\n      pop\n      pop\n      mload(0x40)\n      dup1\n      swap2\n      sub\n      swap1\n      revert\n    tag_160:\n        /* \"src/farm/GenericStake.sol\":3151:3155  true */\n      0x01\n        /* \"src/farm/GenericStake.sol\":3135:3148  isInitialized */\n      0x02\n      0x15\n        /* \"src/farm/GenericStake.sol\":3135:3155  isInitialized = true */\n      0x0100\n      exp\n      dup2\n      sload\n      dup2\n      0xff\n      mul\n      not\n      and\n      swap1\n      dup4\n      iszero\n      iszero\n      mul\n      or\n      swap1\n      sstore\n      pop\n        /* \"src/farm/GenericStake.sol\":3180:3192  _stakedToken */\n      dup7\n        /* \"src/farm/GenericStake.sol\":3166:3177  stakedToken */\n      0x0c\n      0x00\n        /* \"src/farm/GenericStake.sol\":3166:3192  stakedToken = _stakedToken */\n      0x0100\n      exp\n      dup2\n      sload\n      dup2\n      0xffffffffffffffffffffffffffffffffffffffff\n      mul\n      not\n      and\n      swap1\n      dup4\n      0xffffffffffffffffffffffffffffffffffffffff\n      and\n      mul\n      or\n      swap1\n      sstore\n      pop\n        /* \"src/farm/GenericStake.sol\":3216:3228  _rewardToken */\n      dup6\n        /* \"src/farm/GenericStake.sol\":3202:3213  rewardToken */\n      0x0b\n      0x00\n        /* \"src/farm/GenericStake.sol\":3202:3228  rewardToken = _rewardToken */\n      0x0100\n      exp\n      dup2\n      sload\n      dup2\n      0xffffffffffffffffffffffffffffffffffffffff\n      mul\n      not\n      and\n      swap1\n      dup4\n      0xffffffffffffffffffffffffffffffffffffffff\n      and\n      mul\n      or\n      swap1\n      sstore\n      pop\n        /* \"src/farm/GenericStake.sol\":3255:3270  _rewardPerBlock */\n      dup5\n        /* \"src/farm/GenericStake.sol\":3238:3252  rewardPerBlock */\n      0x09\n        /* \"src/farm/GenericStake.sol\":3238:3270  rewardPerBlock = _rewardPerBlock */\n      dup2\n      swap1\n      sstore\n      pop\n        /* \"src/farm/GenericStake.sol\":3293:3304  _startBlock */\n      dup4\n        /* \"src/farm/GenericStake.sol\":3280:3290  startBlock */\n      0x06\n        /* \"src/farm/GenericStake.sol\":3280:3304  startBlock = _startBlock */\n      dup2\n      swap1\n      sstore\n      pop\n        /* \"src/farm/GenericStake.sol\":3330:3344  _bonusEndBlock */\n      dup3\n        /* \"src/farm/GenericStake.sol\":3314:3327  bonusEndBlock */\n      0x05\n        /* \"src/farm/GenericStake.sol\":3314:3344  bonusEndBlock = _bonusEndBlock */\n      dup2\n      swap1\n      sstore\n      pop\n        /* \"src/farm/GenericStake.sol\":3379:3380  0 */\n      0x00\n        /* \"src/farm/GenericStake.sol\":3359:3376  _poolLimitPerUser */\n      dup3\n        /* \"src/farm/GenericStake.sol\":3359:3380  _poolLimitPerUser > 0 */\n      gt\n        /* \"src/farm/GenericStake.sol\":3355:3476  if (_poolLimitPerUser > 0) {... */\n      iszero\n      tag_161\n      jumpi\n        /* \"src/farm/GenericStake.sol\":3411:3415  true */\n      0x01\n        /* \"src/farm/GenericStake.sol\":3396:3408  hasUserLimit */\n      0x02\n      0x14\n        /* \"src/farm/GenericStake.sol\":3396:3415  hasUserLimit = true */\n      0x0100\n      exp\n      dup2\n      sload\n      dup2\n      0xff\n      mul\n      not\n      and\n      swap1\n      dup4\n      iszero\n      iszero\n      mul\n      or\n      swap1\n      sstore\n      pop\n        /* \"src/farm/GenericStake.sol\":3448:3465  _poolLimitPerUser */\n      dup2\n        /* \"src/farm/GenericStake.sol\":3429:3445  poolLimitPerUser */\n      0x08\n        /* \"src/farm/GenericStake.sol\":3429:3465  poolLimitPerUser = _poolLimitPerUser */\n      dup2\n      swap1\n      sstore\n      pop\n        /* \"src/farm/GenericStake.sol\":3355:3476  if (_poolLimitPerUser > 0) {... */\n    tag_161:\n        /* \"src/farm/GenericStake.sol\":3486:3513  uint256 decimalsRewardToken */\n      0x00\n        /* \"src/farm/GenericStake.sol\":3524:3535  rewardToken */\n      0x0b\n      0x00\n      swap1\n      sload\n      swap1\n      0x0100\n      exp\n      swap1\n      div\n      0xffffffffffffffffffffffffffffffffffffffff\n      and\n        /* \"src/farm/GenericStake.sol\":3524:3544  rewardToken.decimals */\n      0xffffffffffffffffffffffffffffffffffffffff\n      and\n      0x313ce567\n        /* \"src/farm/GenericStake.sol\":3524:3546  rewardToken.decimals() */\n      mload(0x40)\n      dup2\n      0xffffffff\n      and\n      0xe0\n      shl\n      dup2\n      mstore\n      0x04\n      add\n      0x20\n      mload(0x40)\n      dup1\n      dup4\n      sub\n      dup2\n      dup7\n      dup1\n      extcodesize\n      iszero\n      dup1\n      iszero\n      tag_162\n      jumpi\n      0x00\n      dup1\n      revert\n    tag_162:\n      pop\n      gas\n      staticcall\n      iszero\n      dup1\n      iszero\n      tag_164\n      jumpi\n      returndatasize\n      0x00\n      dup1\n      returndatacopy\n      revert(0x00, returndatasize)\n    tag_164:\n      pop\n      pop\n      pop\n      pop\n      mload(0x40)\n      returndatasize\n      0x20\n      dup2\n      lt\n      iszero\n      tag_165\n      jumpi\n      0x00\n      dup1\n      revert\n    tag_165:\n      dup2\n      add\n      swap1\n      dup1\n      dup1\n      mload\n      swap1\n      0x20\n      add\n      swap1\n      swap3\n      swap2\n      swap1\n      pop\n      pop\n      pop\n        /* \"src/farm/GenericStake.sol\":3516:3547  uint256(rewardToken.decimals()) */\n      0xff\n      and\n        /* \"src/farm/GenericStake.sol\":3486:3547  uint256 decimalsRewardToken = uint256(rewardToken.decimals()) */\n      swap1\n      pop\n        /* \"src/farm/GenericStake.sol\":3587:3589  30 */\n      0x1e\n        /* \"src/farm/GenericStake.sol\":3565:3584  decimalsRewardToken */\n      dup2\n        /* \"src/farm/GenericStake.sol\":3565:3589  decimalsRewardToken < 30 */\n      lt\n        /* \"src/farm/GenericStake.sol\":3557:3616  require(decimalsRewardToken < 30, \"Must be inferior to 30\") */\n      tag_166\n      jumpi\n      mload(0x40)\n      0x08c379a000000000000000000000000000000000000000000000000000000000\n      dup2\n      mstore\n      0x04\n      add\n      dup1\n      dup1\n      0x20\n      add\n      dup3\n      dup2\n      sub\n      dup3\n      mstore\n      0x16\n      dup2\n      mstore\n      0x20\n      add\n      dup1\n      0x4d75737420626520696e666572696f7220746f20333000000000000000000000\n      dup2\n      mstore\n      pop\n      0x20\n      add\n      swap2\n      pop\n      pop\n      mload(0x40)\n      dup1\n      swap2\n      sub\n      swap1\n      revert\n    tag_166:\n        /* \"src/farm/GenericStake.sol\":3659:3695  uint256(30).sub(decimalsRewardToken) */\n      tag_167\n        /* \"src/farm/GenericStake.sol\":3675:3694  decimalsRewardToken */\n      dup2\n        /* \"src/farm/GenericStake.sol\":3667:3669  30 */\n      0x1e\n        /* \"src/farm/GenericStake.sol\":3659:3674  uint256(30).sub */\n      tag_128\n      swap1\n        /* \"src/farm/GenericStake.sol\":3659:3695  uint256(30).sub(decimalsRewardToken) */\n      swap2\n      swap1\n      0xffffffff\n      and\n      jump\t// in\n    tag_167:\n        /* \"src/farm/GenericStake.sol\":3654:3656  10 */\n      0x0a\n        /* \"src/farm/GenericStake.sol\":3654:3696  10**(uint256(30).sub(decimalsRewardToken)) */\n      exp\n        /* \"src/farm/GenericStake.sol\":3627:3643  PRECISION_FACTOR */\n      0x0a\n        /* \"src/farm/GenericStake.sol\":3627:3697  PRECISION_FACTOR = uint256(10**(uint256(30).sub(decimalsRewardToken))) */\n      dup2\n      swap1\n      sstore\n      pop\n        /* \"src/farm/GenericStake.sol\":3779:3789  startBlock */\n      sload(0x06)\n        /* \"src/farm/GenericStake.sol\":3761:3776  lastRewardBlock */\n      0x07\n        /* \"src/farm/GenericStake.sol\":3761:3789  lastRewardBlock = startBlock */\n      dup2\n      swap1\n      sstore\n      pop\n        /* \"src/farm/GenericStake.sol\":3885:3910  transferOwnership(_admin) */\n      tag_168\n        /* \"src/farm/GenericStake.sol\":3903:3909  _admin */\n      dup3\n        /* \"src/farm/GenericStake.sol\":3885:3902  transferOwnership */\n      tag_103\n        /* \"src/farm/GenericStake.sol\":3885:3910  transferOwnership(_admin) */\n      jump\t// in\n    tag_168:\n        /* \"src/farm/GenericStake.sol\":2713:3917  function initialize(... */\n      pop\n      pop\n      pop\n      pop\n      pop\n      pop\n      pop\n      pop\n      jump\t// out\n        /* \"src/farm/GenericStake.sol\":6117:6248  function availableRewards() public view returns (uint) {... */\n    tag_75:\n        /* \"src/farm/GenericStake.sol\":6166:6170  uint */\n      0x00\n        /* \"src/farm/GenericStake.sol\":6228:6241  stakedByUsers */\n      sload(0x04)\n        /* \"src/farm/GenericStake.sol\":6189:6200  stakedToken */\n      0x0c\n      0x00\n      swap1\n      sload\n      swap1\n      0x0100\n      exp\n      swap1\n      div\n      0xffffffffffffffffffffffffffffffffffffffff\n      and\n        /* \"src/farm/GenericStake.sol\":6189:6210  stakedToken.balanceOf */\n      0xffffffffffffffffffffffffffffffffffffffff\n      and\n      0x70a08231\n        /* \"src/farm/GenericStake.sol\":6219:6223  this */\n      address\n        /* \"src/farm/GenericStake.sol\":6189:6225  stakedToken.balanceOf(address(this)) */\n      mload(0x40)\n      dup3\n      0xffffffff\n      and\n      0xe0\n      shl\n      dup2\n      mstore\n      0x04\n      add\n      dup1\n      dup3\n      0xffffffffffffffffffffffffffffffffffffffff\n      and\n      dup2\n      mstore\n      0x20\n      add\n      swap2\n      pop\n      pop\n      0x20\n      mload(0x40)\n      dup1\n      dup4\n      sub\n      dup2\n      dup7\n      dup1\n      extcodesize\n      iszero\n      dup1\n      iszero\n      tag_170\n      jumpi\n      0x00\n      dup1\n      revert\n    tag_170:\n      pop\n      gas\n      staticcall\n      iszero\n      dup1\n      iszero\n      tag_172\n      jumpi\n      returndatasize\n      0x00\n      dup1\n      returndatacopy\n      revert(0x00, returndatasize)\n    tag_172:\n      pop\n      pop\n      pop\n      pop\n      mload(0x40)\n      returndatasize\n      0x20\n      dup2\n      lt\n      iszero\n      tag_173\n      jumpi\n      0x00\n      dup1\n      revert\n    tag_173:\n      dup2\n      add\n      swap1\n      dup1\n      dup1\n      mload\n      swap1\n      0x20\n      add\n      swap1\n      swap3\n      swap2\n      swap1\n      pop\n      pop\n      pop\n        /* \"src/farm/GenericStake.sol\":6189:6241  stakedToken.balanceOf(address(this)) - stakedByUsers */\n      sub\n        /* \"src/farm/GenericStake.sol\":6182:6241  return stakedToken.balanceOf(address(this)) - stakedByUsers */\n      swap1\n      pop\n        /* \"src/farm/GenericStake.sol\":6117:6248  function availableRewards() public view returns (uint) {... */\n      swap1\n      jump\t// out\n        /* \"src/farm/GenericStake.sol\":1268:1297  uint256 public rewardPerBlock */\n    tag_77:\n      sload(0x09)\n      dup2\n      jump\t// out\n        /* \"https://github.com/OpenZeppelin/openzeppelin-contracts/blob/v3.3.0/contracts/access/Ownable.sol\":1083:1160  function owner() public view returns (address) {... */\n    tag_79:\n        /* \"https://github.com/OpenZeppelin/openzeppelin-contracts/blob/v3.3.0/contracts/access/Ownable.sol\":1121:1128  address */\n      0x00\n        /* \"https://github.com/OpenZeppelin/openzeppelin-contracts/blob/v3.3.0/contracts/access/Ownable.sol\":1147:1153  _owner */\n      dup1\n      0x00\n      swap1\n      sload\n      swap1\n      0x0100\n      exp\n      swap1\n      div\n      0xffffffffffffffffffffffffffffffffffffffff\n      and\n        /* \"https://github.com/OpenZeppelin/openzeppelin-contracts/blob/v3.3.0/contracts/access/Ownable.sol\":1140:1153  return _owner */\n      swap1\n      pop\n        /* \"https://github.com/OpenZeppelin/openzeppelin-contracts/blob/v3.3.0/contracts/access/Ownable.sol\":1083:1160  function owner() public view returns (address) {... */\n      swap1\n      jump\t// out\n        /* \"src/farm/GenericStake.sol\":841:872  uint256 public accTokenPerShare */\n    tag_81:\n      sload(0x03)\n      dup2\n      jump\t// out\n        /* \"src/farm/GenericStake.sol\":714:738  bool public hasUserLimit */\n    tag_83:\n      0x02\n      0x14\n      swap1\n      sload\n      swap1\n      0x0100\n      exp\n      swap1\n      div\n      0xff\n      and\n      dup2\n      jump\t// out\n        /* \"src/farm/GenericStake.sol\":9263:9947  function updateStartAndEndBlocks(... */\n    tag_86:\n        /* \"https://github.com/OpenZeppelin/openzeppelin-contracts/blob/v3.3.0/contracts/access/Ownable.sol\":1297:1309  _msgSender() */\n      tag_176\n        /* \"https://github.com/OpenZeppelin/openzeppelin-contracts/blob/v3.3.0/contracts/access/Ownable.sol\":1297:1307  _msgSender */\n      tag_113\n        /* \"https://github.com/OpenZeppelin/openzeppelin-contracts/blob/v3.3.0/contracts/access/Ownable.sol\":1297:1309  _msgSender() */\n      jump\t// in\n    tag_176:\n        /* \"https://github.com/OpenZeppelin/openzeppelin-contracts/blob/v3.3.0/contracts/access/Ownable.sol\":1287:1309  _owner == _msgSender() */\n      0xffffffffffffffffffffffffffffffffffffffff\n      and\n        /* \"https://github.com/OpenZeppelin/openzeppelin-contracts/blob/v3.3.0/contracts/access/Ownable.sol\":1287:1293  _owner */\n      0x00\n      dup1\n      sload\n      swap1\n      0x0100\n      exp\n      swap1\n      div\n      0xffffffffffffffffffffffffffffffffffffffff\n      and\n        /* \"https://github.com/OpenZeppelin/openzeppelin-contracts/blob/v3.3.0/contracts/access/Ownable.sol\":1287:1309  _owner == _msgSender() */\n      0xffffffffffffffffffffffffffffffffffffffff\n      and\n      eq\n        /* \"https://github.com/OpenZeppelin/openzeppelin-contracts/blob/v3.3.0/contracts/access/Ownable.sol\":1279:1346  require(_owner == _msgSender(), \"Ownable: caller is not the owner\") */\n      tag_177\n      jumpi\n      mload(0x40)\n      0x08c379a000000000000000000000000000000000000000000000000000000000\n      dup2\n      mstore\n      0x04\n      add\n      dup1\n      dup1\n      0x20\n      add\n      dup3\n      dup2\n      sub\n      dup3\n      mstore\n      0x20\n      dup2\n      mstore\n      0x20\n      add\n      dup1\n      0x4f776e61626c653a2063616c6c6572206973206e6f7420746865206f776e6572\n      dup2\n      mstore\n      pop\n      0x20\n      add\n      swap2\n      pop\n      pop\n      mload(0x40)\n      dup1\n      swap2\n      sub\n      swap1\n      revert\n    tag_177:\n        /* \"src/farm/GenericStake.sol\":9415:9425  startBlock */\n      sload(0x06)\n        /* \"src/farm/GenericStake.sol\":9400:9412  block.number */\n      number\n        /* \"src/farm/GenericStake.sol\":9400:9425  block.number < startBlock */\n      lt\n        /* \"src/farm/GenericStake.sol\":9392:9446  require(block.number < startBlock, \"Pool has started\") */\n      tag_179\n      jumpi\n      mload(0x40)\n      0x08c379a000000000000000000000000000000000000000000000000000000000\n      dup2\n      mstore\n      0x04\n      add\n      dup1\n      dup1\n      0x20\n      add\n      dup3\n      dup2\n      sub\n      dup3\n      mstore\n      0x10\n      dup2\n      mstore\n      0x20\n      add\n      dup1\n      0x506f6f6c20686173207374617274656400000000000000000000000000000000\n      dup2\n      mstore\n      pop\n      0x20\n      add\n      swap2\n      pop\n      pop\n      mload(0x40)\n      dup1\n      swap2\n      sub\n      swap1\n      revert\n    tag_179:\n        /* \"src/farm/GenericStake.sol\":9491:9505  _bonusEndBlock */\n      dup1\n        /* \"src/farm/GenericStake.sol\":9477:9488  _startBlock */\n      dup3\n        /* \"src/farm/GenericStake.sol\":9477:9505  _startBlock < _bonusEndBlock */\n      lt\n        /* \"src/farm/GenericStake.sol\":9456:9577  require(... */\n      tag_180\n      jumpi\n      mload(0x40)\n      0x08c379a000000000000000000000000000000000000000000000000000000000\n      dup2\n      mstore\n      0x04\n      add\n      dup1\n      dup1\n      0x20\n      add\n      dup3\n      dup2\n      sub\n      dup3\n      mstore\n      0x2e\n      dup2\n      mstore\n      0x20\n      add\n      dup1\n      data_55e8b512461165150226d7fb62af16288a660c0fc1f35821ba4ad8ad658a0bb0\n      0x2e\n      swap2\n      codecopy\n      0x40\n      add\n      swap2\n      pop\n      pop\n      mload(0x40)\n      dup1\n      swap2\n      sub\n      swap1\n      revert\n    tag_180:\n        /* \"src/farm/GenericStake.sol\":9623:9634  _startBlock */\n      dup2\n        /* \"src/farm/GenericStake.sol\":9608:9620  block.number */\n      number\n        /* \"src/farm/GenericStake.sol\":9608:9634  block.number < _startBlock */\n      lt\n        /* \"src/farm/GenericStake.sol\":9587:9708  require(... */\n      tag_181\n      jumpi\n      mload(0x40)\n      0x08c379a000000000000000000000000000000000000000000000000000000000\n      dup2\n      mstore\n      0x04\n      add\n      dup1\n      dup1\n      0x20\n      add\n      dup3\n      dup2\n      sub\n      dup3\n      mstore\n      0x30\n      dup2\n      mstore\n      0x20\n      add\n      dup1\n      data_8ddaf6510efec06eaa5007f0744244862092545bc763e566e2661c53c8ff3a7e\n      0x30\n      swap2\n      codecopy\n      0x40\n      add\n      swap2\n      pop\n      pop\n      mload(0x40)\n      dup1\n      swap2\n      sub\n      swap1\n      revert\n    tag_181:\n        /* \"src/farm/GenericStake.sol\":9732:9743  _startBlock */\n      dup2\n        /* \"src/farm/GenericStake.sol\":9719:9729  startBlock */\n      0x06\n        /* \"src/farm/GenericStake.sol\":9719:9743  startBlock = _startBlock */\n      dup2\n      swap1\n      sstore\n      pop\n        /* \"src/farm/GenericStake.sol\":9769:9783  _bonusEndBlock */\n      dup1\n        /* \"src/farm/GenericStake.sol\":9753:9766  bonusEndBlock */\n      0x05\n        /* \"src/farm/GenericStake.sol\":9753:9783  bonusEndBlock = _bonusEndBlock */\n      dup2\n      swap1\n      sstore\n      pop\n        /* \"src/farm/GenericStake.sol\":9865:9875  startBlock */\n      sload(0x06)\n        /* \"src/farm/GenericStake.sol\":9847:9862  lastRewardBlock */\n      0x07\n        /* \"src/farm/GenericStake.sol\":9847:9875  lastRewardBlock = startBlock */\n      dup2\n      swap1\n      sstore\n      pop\n        /* \"src/farm/GenericStake.sol\":9891:9940  NewStartAndEndBlocks(_startBlock, _bonusEndBlock) */\n      0x7cd0ab87d19036f3dfadadb232c78aa4879dda3f0c994a9d637532410ee2ce06\n        /* \"src/farm/GenericStake.sol\":9912:9923  _startBlock */\n      dup3\n        /* \"src/farm/GenericStake.sol\":9925:9939  _bonusEndBlock */\n      dup3\n        /* \"src/farm/GenericStake.sol\":9891:9940  NewStartAndEndBlocks(_startBlock, _bonusEndBlock) */\n      mload(0x40)\n      dup1\n      dup4\n      dup2\n      mstore\n      0x20\n      add\n      dup3\n      dup2\n      mstore\n      0x20\n      add\n      swap3\n      pop\n      pop\n      pop\n      mload(0x40)\n      dup1\n      swap2\n      sub\n      swap1\n      log1\n        /* \"src/farm/GenericStake.sol\":9263:9947  function updateStartAndEndBlocks(... */\n      pop\n      pop\n      jump\t// out\n        /* \"src/farm/GenericStake.sol\":8174:8707  function updatePoolLimitPerUser(... */\n    tag_89:\n        /* \"https://github.com/OpenZeppelin/openzeppelin-contracts/blob/v3.3.0/contracts/access/Ownable.sol\":1297:1309  _msgSender() */\n      tag_183\n        /* \"https://github.com/OpenZeppelin/openzeppelin-contracts/blob/v3.3.0/contracts/access/Ownable.sol\":1297:1307  _msgSender */\n      tag_113\n        /* \"https://github.com/OpenZeppelin/openzeppelin-contracts/blob/v3.3.0/contracts/access/Ownable.sol\":1297:1309  _msgSender() */\n      jump\t// in\n    tag_183:\n        /* \"https://github.com/OpenZeppelin/openzeppelin-contracts/blob/v3.3.0/contracts/access/Ownable.sol\":1287:1309  _owner == _msgSender() */\n      0xffffffffffffffffffffffffffffffffffffffff\n      and\n        /* \"https://github.com/OpenZeppelin/openzeppelin-contracts/blob/v3.3.0/contracts/access/Ownable.sol\":1287:1293  _owner */\n      0x00\n      dup1\n      sload\n      swap1\n      0x0100\n      exp\n      swap1\n      div\n      0xffffffffffffffffffffffffffffffffffffffff\n      and\n        /* \"https://github.com/OpenZeppelin/openzeppelin-contracts/blob/v3.3.0/contracts/access/Ownable.sol\":1287:1309  _owner == _msgSender() */\n      0xffffffffffffffffffffffffffffffffffffffff\n      and\n      eq\n        /* \"https://github.com/OpenZeppelin/openzeppelin-contracts/blob/v3.3.0/contracts/access/Ownable.sol\":1279:1346  require(_owner == _msgSender(), \"Ownable: caller is not the owner\") */\n      tag_184\n      jumpi\n      mload(0x40)\n      0x08c379a000000000000000000000000000000000000000000000000000000000\n      dup2\n      mstore\n      0x04\n      add\n      dup1\n      dup1\n      0x20\n      add\n      dup3\n      dup2\n      sub\n      dup3\n      mstore\n      0x20\n      dup2\n      mstore\n      0x20\n      add\n      dup1\n      0x4f776e61626c653a2063616c6c6572206973206e6f7420746865206f776e6572\n      dup2\n      mstore\n      pop\n      0x20\n      add\n      swap2\n      pop\n      pop\n      mload(0x40)\n      dup1\n      swap2\n      sub\n      swap1\n      revert\n    tag_184:\n        /* \"src/farm/GenericStake.sol\":8312:8324  hasUserLimit */\n      0x02\n      0x14\n      swap1\n      sload\n      swap1\n      0x0100\n      exp\n      swap1\n      div\n      0xff\n      and\n        /* \"src/farm/GenericStake.sol\":8304:8340  require(hasUserLimit, \"Must be set\") */\n      tag_186\n      jumpi\n      mload(0x40)\n      0x08c379a000000000000000000000000000000000000000000000000000000000\n      dup2\n      mstore\n      0x04\n      add\n      dup1\n      dup1\n      0x20\n      add\n      dup3\n      dup2\n      sub\n      dup3\n      mstore\n      0x0b\n      dup2\n      mstore\n      0x20\n      add\n      dup1\n      0x4d75737420626520736574000000000000000000000000000000000000000000\n      dup2\n      mstore\n      pop\n      0x20\n      add\n      swap2\n      pop\n      pop\n      mload(0x40)\n      dup1\n      swap2\n      sub\n      swap1\n      revert\n    tag_186:\n        /* \"src/farm/GenericStake.sol\":8354:8367  _hasUserLimit */\n      dup2\n        /* \"src/farm/GenericStake.sol\":8350:8656  if (_hasUserLimit) {... */\n      iszero\n      tag_187\n      jumpi\n        /* \"src/farm/GenericStake.sol\":8428:8444  poolLimitPerUser */\n      sload(0x08)\n        /* \"src/farm/GenericStake.sol\":8408:8425  _poolLimitPerUser */\n      dup2\n        /* \"src/farm/GenericStake.sol\":8408:8444  _poolLimitPerUser > poolLimitPerUser */\n      gt\n        /* \"src/farm/GenericStake.sol\":8383:8502  require(... */\n      tag_188\n      jumpi\n      mload(0x40)\n      0x08c379a000000000000000000000000000000000000000000000000000000000\n      dup2\n      mstore\n      0x04\n      add\n      dup1\n      dup1\n      0x20\n      add\n      dup3\n      dup2\n      sub\n      dup3\n      mstore\n      0x18\n      dup2\n      mstore\n      0x20\n      add\n      dup1\n      0x4e6577206c696d6974206d757374206265206869676865720000000000000000\n      dup2\n      mstore\n      pop\n      0x20\n      add\n      swap2\n      pop\n      pop\n      mload(0x40)\n      dup1\n      swap2\n      sub\n      swap1\n      revert\n    tag_188:\n        /* \"src/farm/GenericStake.sol\":8535:8552  _poolLimitPerUser */\n      dup1\n        /* \"src/farm/GenericStake.sol\":8516:8532  poolLimitPerUser */\n      0x08\n        /* \"src/farm/GenericStake.sol\":8516:8552  poolLimitPerUser = _poolLimitPerUser */\n      dup2\n      swap1\n      sstore\n      pop\n        /* \"src/farm/GenericStake.sol\":8350:8656  if (_hasUserLimit) {... */\n      jump(tag_189)\n    tag_187:\n        /* \"src/farm/GenericStake.sol\":8598:8611  _hasUserLimit */\n      dup2\n        /* \"src/farm/GenericStake.sol\":8583:8595  hasUserLimit */\n      0x02\n      0x14\n        /* \"src/farm/GenericStake.sol\":8583:8611  hasUserLimit = _hasUserLimit */\n      0x0100\n      exp\n      dup2\n      sload\n      dup2\n      0xff\n      mul\n      not\n      and\n      swap1\n      dup4\n      iszero\n      iszero\n      mul\n      or\n      swap1\n      sstore\n      pop\n        /* \"src/farm/GenericStake.sol\":8644:8645  0 */\n      0x00\n        /* \"src/farm/GenericStake.sol\":8625:8641  poolLimitPerUser */\n      0x08\n        /* \"src/farm/GenericStake.sol\":8625:8645  poolLimitPerUser = 0 */\n      dup2\n      swap1\n      sstore\n      pop\n        /* \"src/farm/GenericStake.sol\":8350:8656  if (_hasUserLimit) {... */\n    tag_189:\n        /* \"src/farm/GenericStake.sol\":8670:8700  NewPoolLimit(poolLimitPerUser) */\n      0x241f67ee5f41b7a5cabf911367329be7215900f602ebfc47f89dce2a6bcd847c\n        /* \"src/farm/GenericStake.sol\":8683:8699  poolLimitPerUser */\n      sload(0x08)\n        /* \"src/farm/GenericStake.sol\":8670:8700  NewPoolLimit(poolLimitPerUser) */\n      mload(0x40)\n      dup1\n      dup3\n      dup2\n      mstore\n      0x20\n      add\n      swap2\n      pop\n      pop\n      mload(0x40)\n      dup1\n      swap2\n      sub\n      swap1\n      log1\n        /* \"src/farm/GenericStake.sol\":8174:8707  function updatePoolLimitPerUser(... */\n      pop\n      pop\n      jump\t// out\n        /* \"src/farm/GenericStake.sol\":1122:1152  uint256 public lastRewardBlock */\n    tag_91:\n      sload(0x07)\n      dup2\n      jump\t// out\n        /* \"src/farm/GenericStake.sol\":4069:5147  function deposit(uint256 _amount) external nonReentrant {... */\n    tag_94:\n        /* \"https://github.com/OpenZeppelin/openzeppelin-contracts/blob/v3.3.0/contracts/utils/ReentrancyGuard.sol\":1688:1689  2 */\n      0x02\n        /* \"https://github.com/OpenZeppelin/openzeppelin-contracts/blob/v3.3.0/contracts/utils/ReentrancyGuard.sol\":2277:2284  _status */\n      sload(0x01)\n        /* \"https://github.com/OpenZeppelin/openzeppelin-contracts/blob/v3.3.0/contracts/utils/ReentrancyGuard.sol\":2277:2296  _status != _ENTERED */\n      eq\n      iszero\n        /* \"https://github.com/OpenZeppelin/openzeppelin-contracts/blob/v3.3.0/contracts/utils/ReentrancyGuard.sol\":2269:2332  require(_status != _ENTERED, \"ReentrancyGuard: reentrant call\") */\n      tag_191\n      jumpi\n      mload(0x40)\n      0x08c379a000000000000000000000000000000000000000000000000000000000\n      dup2\n      mstore\n      0x04\n      add\n      dup1\n      dup1\n      0x20\n      add\n      dup3\n      dup2\n      sub\n      dup3\n      mstore\n      0x1f\n      dup2\n      mstore\n      0x20\n      add\n      dup1\n      0x5265656e7472616e637947756172643a207265656e7472616e742063616c6c00\n      dup2\n      mstore\n      pop\n      0x20\n      add\n      swap2\n      pop\n      pop\n      mload(0x40)\n      dup1\n      swap2\n      sub\n      swap1\n      revert\n    tag_191:\n        /* \"https://github.com/OpenZeppelin/openzeppelin-contracts/blob/v3.3.0/contracts/utils/ReentrancyGuard.sol\":1688:1689  2 */\n      0x02\n        /* \"https://github.com/OpenZeppelin/openzeppelin-contracts/blob/v3.3.0/contracts/utils/ReentrancyGuard.sol\":2407:2414  _status */\n      0x01\n        /* \"https://github.com/OpenZeppelin/openzeppelin-contracts/blob/v3.3.0/contracts/utils/ReentrancyGuard.sol\":2407:2425  _status = _ENTERED */\n      dup2\n      swap1\n      sstore\n      pop\n        /* \"src/farm/GenericStake.sol\":4135:4156  UserInfo storage user */\n      0x00\n        /* \"src/farm/GenericStake.sol\":4159:4167  userInfo */\n      0x0d\n        /* \"src/farm/GenericStake.sol\":4159:4179  userInfo[msg.sender] */\n      0x00\n        /* \"src/farm/GenericStake.sol\":4168:4178  msg.sender */\n      caller\n        /* \"src/farm/GenericStake.sol\":4159:4179  userInfo[msg.sender] */\n      0xffffffffffffffffffffffffffffffffffffffff\n      and\n      0xffffffffffffffffffffffffffffffffffffffff\n      and\n      dup2\n      mstore\n      0x20\n      add\n      swap1\n      dup2\n      mstore\n      0x20\n      add\n      0x00\n      keccak256\n        /* \"src/farm/GenericStake.sol\":4135:4179  UserInfo storage user = userInfo[msg.sender] */\n      swap1\n      pop\n        /* \"src/farm/GenericStake.sol\":4194:4206  hasUserLimit */\n      0x02\n      0x14\n      swap1\n      sload\n      swap1\n      0x0100\n      exp\n      swap1\n      div\n      0xff\n      and\n        /* \"src/farm/GenericStake.sol\":4190:4359  if (hasUserLimit) {... */\n      iszero\n      tag_193\n      jumpi\n        /* \"src/farm/GenericStake.sol\":4275:4291  poolLimitPerUser */\n      sload(0x08)\n        /* \"src/farm/GenericStake.sol\":4247:4271  _amount.add(user.amount) */\n      tag_194\n        /* \"src/farm/GenericStake.sol\":4259:4263  user */\n      dup3\n        /* \"src/farm/GenericStake.sol\":4259:4270  user.amount */\n      0x00\n      add\n      sload\n        /* \"src/farm/GenericStake.sol\":4247:4254  _amount */\n      dup5\n        /* \"src/farm/GenericStake.sol\":4247:4258  _amount.add */\n      tag_195\n      swap1\n        /* \"src/farm/GenericStake.sol\":4247:4271  _amount.add(user.amount) */\n      swap2\n      swap1\n      0xffffffff\n      and\n      jump\t// in\n    tag_194:\n        /* \"src/farm/GenericStake.sol\":4247:4291  _amount.add(user.amount) <= poolLimitPerUser */\n      gt\n      iszero\n        /* \"src/farm/GenericStake.sol\":4222:4348  require(... */\n      tag_196\n      jumpi\n      mload(0x40)\n      0x08c379a000000000000000000000000000000000000000000000000000000000\n      dup2\n      mstore\n      0x04\n      add\n      dup1\n      dup1\n      0x20\n      add\n      dup3\n      dup2\n      sub\n      dup3\n      mstore\n      0x17\n      dup2\n      mstore\n      0x20\n      add\n      dup1\n      0x5573657220616d6f756e742061626f7665206c696d6974000000000000000000\n      dup2\n      mstore\n      pop\n      0x20\n      add\n      swap2\n      pop\n      pop\n      mload(0x40)\n      dup1\n      swap2\n      sub\n      swap1\n      revert\n    tag_196:\n        /* \"src/farm/GenericStake.sol\":4190:4359  if (hasUserLimit) {... */\n    tag_193:\n        /* \"src/farm/GenericStake.sol\":4385:4392  _amount */\n      dup2\n        /* \"src/farm/GenericStake.sol\":4368:4381  stakedByUsers */\n      0x04\n      0x00\n        /* \"src/farm/GenericStake.sol\":4368:4392  stakedByUsers += _amount */\n      dup3\n      dup3\n      sload\n      add\n      swap3\n      pop\n      pop\n      dup2\n      swap1\n      sstore\n      pop\n        /* \"src/farm/GenericStake.sol\":4403:4416  _updatePool() */\n      tag_197\n        /* \"src/farm/GenericStake.sol\":4403:4414  _updatePool */\n      tag_122\n        /* \"src/farm/GenericStake.sol\":4403:4416  _updatePool() */\n      jump\t// in\n    tag_197:\n        /* \"src/farm/GenericStake.sol\":4445:4446  0 */\n      0x00\n        /* \"src/farm/GenericStake.sol\":4431:4435  user */\n      dup2\n        /* \"src/farm/GenericStake.sol\":4431:4442  user.amount */\n      0x00\n      add\n      sload\n        /* \"src/farm/GenericStake.sol\":4431:4446  user.amount > 0 */\n      gt\n        /* \"src/farm/GenericStake.sol\":4427:4752  if (user.amount > 0) {... */\n      iszero\n      tag_198\n      jumpi\n        /* \"src/farm/GenericStake.sol\":4462:4477  uint256 pending */\n      0x00\n        /* \"src/farm/GenericStake.sol\":4480:4624  user... */\n      tag_199\n        /* \"src/farm/GenericStake.sol\":4608:4612  user */\n      dup3\n        /* \"src/farm/GenericStake.sol\":4608:4623  user.rewardDebt */\n      0x01\n      add\n      sload\n        /* \"src/farm/GenericStake.sol\":4480:4586  user... */\n      tag_200\n        /* \"src/farm/GenericStake.sol\":4569:4585  PRECISION_FACTOR */\n      sload(0x0a)\n        /* \"src/farm/GenericStake.sol\":4480:4547  user... */\n      tag_201\n        /* \"src/farm/GenericStake.sol\":4530:4546  accTokenPerShare */\n      sload(0x03)\n        /* \"src/farm/GenericStake.sol\":4480:4484  user */\n      dup8\n        /* \"src/farm/GenericStake.sol\":4480:4508  user... */\n      0x00\n      add\n      sload\n        /* \"src/farm/GenericStake.sol\":4480:4529  user... */\n      tag_126\n      swap1\n        /* \"src/farm/GenericStake.sol\":4480:4547  user... */\n      swap2\n      swap1\n      0xffffffff\n      and\n      jump\t// in\n    tag_201:\n        /* \"src/farm/GenericStake.sol\":4480:4568  user... */\n      tag_127\n      swap1\n        /* \"src/farm/GenericStake.sol\":4480:4586  user... */\n      swap2\n      swap1\n      0xffffffff\n      and\n      jump\t// in\n    tag_200:\n        /* \"src/farm/GenericStake.sol\":4480:4607  user... */\n      tag_128\n      swap1\n        /* \"src/farm/GenericStake.sol\":4480:4624  user... */\n      swap2\n      swap1\n      0xffffffff\n      and\n      jump\t// in\n    tag_199:\n        /* \"src/farm/GenericStake.sol\":4462:4624  uint256 pending = user... */\n      swap1\n      pop\n        /* \"src/farm/GenericStake.sol\":4652:4653  0 */\n      0x00\n        /* \"src/farm/GenericStake.sol\":4642:4649  pending */\n      dup2\n        /* \"src/farm/GenericStake.sol\":4642:4653  pending > 0 */\n      gt\n        /* \"src/farm/GenericStake.sol\":4638:4742  if (pending > 0) {... */\n      iszero\n      tag_202\n      jumpi\n        /* \"src/farm/GenericStake.sol\":4673:4727  rewardToken.safeTransfer(address(msg.sender), pending) */\n      tag_203\n        /* \"src/farm/GenericStake.sol\":4706:4716  msg.sender */\n      caller\n        /* \"src/farm/GenericStake.sol\":4719:4726  pending */\n      dup3\n        /* \"src/farm/GenericStake.sol\":4673:4684  rewardToken */\n      0x0b\n      0x00\n      swap1\n      sload\n      swap1\n      0x0100\n      exp\n      swap1\n      div\n      0xffffffffffffffffffffffffffffffffffffffff\n      and\n        /* \"src/farm/GenericStake.sol\":4673:4697  rewardToken.safeTransfer */\n      0xffffffffffffffffffffffffffffffffffffffff\n      and\n      tag_132\n      swap1\n        /* \"src/farm/GenericStake.sol\":4673:4727  rewardToken.safeTransfer(address(msg.sender), pending) */\n      swap3\n      swap2\n      swap1\n      0xffffffff\n      and\n      jump\t// in\n    tag_203:\n        /* \"src/farm/GenericStake.sol\":4638:4742  if (pending > 0) {... */\n    tag_202:\n        /* \"src/farm/GenericStake.sol\":4427:4752  if (user.amount > 0) {... */\n      pop\n    tag_198:\n        /* \"src/farm/GenericStake.sol\":4776:4777  0 */\n      0x00\n        /* \"src/farm/GenericStake.sol\":4766:4773  _amount */\n      dup3\n        /* \"src/farm/GenericStake.sol\":4766:4777  _amount > 0 */\n      gt\n        /* \"src/farm/GenericStake.sol\":4762:4991  if (_amount > 0) {... */\n      iszero\n      tag_204\n      jumpi\n        /* \"src/farm/GenericStake.sol\":4807:4831  user.amount.add(_amount) */\n      tag_205\n        /* \"src/farm/GenericStake.sol\":4823:4830  _amount */\n      dup3\n        /* \"src/farm/GenericStake.sol\":4807:4811  user */\n      dup3\n        /* \"src/farm/GenericStake.sol\":4807:4818  user.amount */\n      0x00\n      add\n      sload\n        /* \"src/farm/GenericStake.sol\":4807:4822  user.amount.add */\n      tag_195\n      swap1\n        /* \"src/farm/GenericStake.sol\":4807:4831  user.amount.add(_amount) */\n      swap2\n      swap1\n      0xffffffff\n      and\n      jump\t// in\n    tag_205:\n        /* \"src/farm/GenericStake.sol\":4793:4797  user */\n      dup2\n        /* \"src/farm/GenericStake.sol\":4793:4804  user.amount */\n      0x00\n      add\n        /* \"src/farm/GenericStake.sol\":4793:4831  user.amount = user.amount.add(_amount) */\n      dup2\n      swap1\n      sstore\n      pop\n        /* \"src/farm/GenericStake.sol\":4845:4980  stakedToken.safeTransferFrom(... */\n      tag_206\n        /* \"src/farm/GenericStake.sol\":4899:4909  msg.sender */\n      caller\n        /* \"src/farm/GenericStake.sol\":4936:4940  this */\n      address\n        /* \"src/farm/GenericStake.sol\":4959:4966  _amount */\n      dup5\n        /* \"src/farm/GenericStake.sol\":4845:4856  stakedToken */\n      0x0c\n      0x00\n      swap1\n      sload\n      swap1\n      0x0100\n      exp\n      swap1\n      div\n      0xffffffffffffffffffffffffffffffffffffffff\n      and\n        /* \"src/farm/GenericStake.sol\":4845:4873  stakedToken.safeTransferFrom */\n      0xffffffffffffffffffffffffffffffffffffffff\n      and\n      tag_207\n      swap1\n        /* \"src/farm/GenericStake.sol\":4845:4980  stakedToken.safeTransferFrom(... */\n      swap4\n      swap3\n      swap2\n      swap1\n      0xffffffff\n      and\n      jump\t// in\n    tag_206:\n        /* \"src/farm/GenericStake.sol\":4762:4991  if (_amount > 0) {... */\n    tag_204:\n        /* \"src/farm/GenericStake.sol\":5019:5096  user.amount.mul(accTokenPerShare).div(... */\n      tag_208\n        /* \"src/farm/GenericStake.sol\":5070:5086  PRECISION_FACTOR */\n      sload(0x0a)\n        /* \"src/farm/GenericStake.sol\":5019:5052  user.amount.mul(accTokenPerShare) */\n      tag_209\n        /* \"src/farm/GenericStake.sol\":5035:5051  accTokenPerShare */\n      sload(0x03)\n        /* \"src/farm/GenericStake.sol\":5019:5023  user */\n      dup5\n        /* \"src/farm/GenericStake.sol\":5019:5030  user.amount */\n      0x00\n      add\n      sload\n        /* \"src/farm/GenericStake.sol\":5019:5034  user.amount.mul */\n      tag_126\n      swap1\n        /* \"src/farm/GenericStake.sol\":5019:5052  user.amount.mul(accTokenPerShare) */\n      swap2\n      swap1\n      0xffffffff\n      and\n      jump\t// in\n    tag_209:\n        /* \"src/farm/GenericStake.sol\":5019:5056  user.amount.mul(accTokenPerShare).div */\n      tag_127\n      swap1\n        /* \"src/farm/GenericStake.sol\":5019:5096  user.amount.mul(accTokenPerShare).div(... */\n      swap2\n      swap1\n      0xffffffff\n      and\n      jump\t// in\n    tag_208:\n        /* \"src/farm/GenericStake.sol\":5001:5005  user */\n      dup2\n        /* \"src/farm/GenericStake.sol\":5001:5016  user.rewardDebt */\n      0x01\n      add\n        /* \"src/farm/GenericStake.sol\":5001:5096  user.rewardDebt = user.amount.mul(accTokenPerShare).div(... */\n      dup2\n      swap1\n      sstore\n      pop\n        /* \"src/farm/GenericStake.sol\":5120:5130  msg.sender */\n      caller\n        /* \"src/farm/GenericStake.sol\":5112:5140  Deposit(msg.sender, _amount) */\n      0xffffffffffffffffffffffffffffffffffffffff\n      and\n      0xe1fffcc4923d04b559f4d29a8bfc6cda04eb5b0d3c460751c2402c5c5cc9109c\n        /* \"src/farm/GenericStake.sol\":5132:5139  _amount */\n      dup4\n        /* \"src/farm/GenericStake.sol\":5112:5140  Deposit(msg.sender, _amount) */\n      mload(0x40)\n      dup1\n      dup3\n      dup2\n      mstore\n      0x20\n      add\n      swap2\n      pop\n      pop\n      mload(0x40)\n      dup1\n      swap2\n      sub\n      swap1\n      log2\n        /* \"https://github.com/OpenZeppelin/openzeppelin-contracts/blob/v3.3.0/contracts/utils/ReentrancyGuard.sol\":2436:2437  _ */\n      pop\n        /* \"https://github.com/OpenZeppelin/openzeppelin-contracts/blob/v3.3.0/contracts/utils/ReentrancyGuard.sol\":1645:1646  1 */\n      0x01\n        /* \"https://github.com/OpenZeppelin/openzeppelin-contracts/blob/v3.3.0/contracts/utils/ReentrancyGuard.sol\":2580:2587  _status */\n      dup1\n        /* \"https://github.com/OpenZeppelin/openzeppelin-contracts/blob/v3.3.0/contracts/utils/ReentrancyGuard.sol\":2580:2602  _status = _NOT_ENTERED */\n      dup2\n      swap1\n      sstore\n      pop\n        /* \"src/farm/GenericStake.sol\":4069:5147  function deposit(uint256 _amount) external nonReentrant {... */\n      pop\n      jump\t// out\n        /* \"src/farm/GenericStake.sol\":1450:1475  IBEP20 public stakedToken */\n    tag_96:\n      0x0c\n      0x00\n      swap1\n      sload\n      swap1\n      0x0100\n      exp\n      swap1\n      div\n      0xffffffffffffffffffffffffffffffffffffffff\n      and\n      dup2\n      jump\t// out\n        /* \"src/farm/GenericStake.sol\":1332:1363  uint256 public PRECISION_FACTOR */\n    tag_98:\n      sload(0x0a)\n      dup2\n      jump\t// out\n        /* \"src/farm/GenericStake.sol\":6383:6826  function emergencyWithdraw() external nonReentrant {... */\n    tag_100:\n        /* \"https://github.com/OpenZeppelin/openzeppelin-contracts/blob/v3.3.0/contracts/utils/ReentrancyGuard.sol\":1688:1689  2 */\n      0x02\n        /* \"https://github.com/OpenZeppelin/openzeppelin-contracts/blob/v3.3.0/contracts/utils/ReentrancyGuard.sol\":2277:2284  _status */\n      sload(0x01)\n        /* \"https://github.com/OpenZeppelin/openzeppelin-contracts/blob/v3.3.0/contracts/utils/ReentrancyGuard.sol\":2277:2296  _status != _ENTERED */\n      eq\n      iszero\n        /* \"https://github.com/OpenZeppelin/openzeppelin-contracts/blob/v3.3.0/contracts/utils/ReentrancyGuard.sol\":2269:2332  require(_status != _ENTERED, \"ReentrancyGuard: reentrant call\") */\n      tag_211\n      jumpi\n      mload(0x40)\n      0x08c379a000000000000000000000000000000000000000000000000000000000\n      dup2\n      mstore\n      0x04\n      add\n      dup1\n      dup1\n      0x20\n      add\n      dup3\n      dup2\n      sub\n      dup3\n      mstore\n      0x1f\n      dup2\n      mstore\n      0x20\n      add\n      dup1\n      0x5265656e7472616e637947756172643a207265656e7472616e742063616c6c00\n      dup2\n      mstore\n      pop\n      0x20\n      add\n      swap2\n      pop\n      pop\n      mload(0x40)\n      dup1\n      swap2\n      sub\n      swap1\n      revert\n    tag_211:\n        /* \"https://github.com/OpenZeppelin/openzeppelin-contracts/blob/v3.3.0/contracts/utils/ReentrancyGuard.sol\":1688:1689  2 */\n      0x02\n        /* \"https://github.com/OpenZeppelin/openzeppelin-contracts/blob/v3.3.0/contracts/utils/ReentrancyGuard.sol\":2407:2414  _status */\n      0x01\n        /* \"https://github.com/OpenZeppelin/openzeppelin-contracts/blob/v3.3.0/contracts/utils/ReentrancyGuard.sol\":2407:2425  _status = _ENTERED */\n      dup2\n      swap1\n      sstore\n      pop\n        /* \"src/farm/GenericStake.sol\":6444:6465  UserInfo storage user */\n      0x00\n        /* \"src/farm/GenericStake.sol\":6468:6476  userInfo */\n      0x0d\n        /* \"src/farm/GenericStake.sol\":6468:6488  userInfo[msg.sender] */\n      0x00\n        /* \"src/farm/GenericStake.sol\":6477:6487  msg.sender */\n      caller\n        /* \"src/farm/GenericStake.sol\":6468:6488  userInfo[msg.sender] */\n      0xffffffffffffffffffffffffffffffffffffffff\n      and\n      0xffffffffffffffffffffffffffffffffffffffff\n      and\n      dup2\n      mstore\n      0x20\n      add\n      swap1\n      dup2\n      mstore\n      0x20\n      add\n      0x00\n      keccak256\n        /* \"src/farm/GenericStake.sol\":6444:6488  UserInfo storage user = userInfo[msg.sender] */\n      swap1\n      pop\n        /* \"src/farm/GenericStake.sol\":6498:6522  uint256 amountToTransfer */\n      0x00\n        /* \"src/farm/GenericStake.sol\":6525:6529  user */\n      dup2\n        /* \"src/farm/GenericStake.sol\":6525:6536  user.amount */\n      0x00\n      add\n      sload\n        /* \"src/farm/GenericStake.sol\":6498:6536  uint256 amountToTransfer = user.amount */\n      swap1\n      pop\n        /* \"src/farm/GenericStake.sol\":6560:6561  0 */\n      0x00\n        /* \"src/farm/GenericStake.sol\":6546:6550  user */\n      dup3\n        /* \"src/farm/GenericStake.sol\":6546:6557  user.amount */\n      0x00\n      add\n        /* \"src/farm/GenericStake.sol\":6546:6561  user.amount = 0 */\n      dup2\n      swap1\n      sstore\n      pop\n        /* \"src/farm/GenericStake.sol\":6589:6590  0 */\n      0x00\n        /* \"src/farm/GenericStake.sol\":6571:6575  user */\n      dup3\n        /* \"src/farm/GenericStake.sol\":6571:6586  user.rewardDebt */\n      0x01\n      add\n        /* \"src/farm/GenericStake.sol\":6571:6590  user.rewardDebt = 0 */\n      dup2\n      swap1\n      sstore\n      pop\n        /* \"src/farm/GenericStake.sol\":6624:6625  0 */\n      0x00\n        /* \"src/farm/GenericStake.sol\":6605:6621  amountToTransfer */\n      dup2\n        /* \"src/farm/GenericStake.sol\":6605:6625  amountToTransfer > 0 */\n      gt\n        /* \"src/farm/GenericStake.sol\":6601:6762  if (amountToTransfer > 0) {... */\n      iszero\n      tag_213\n      jumpi\n        /* \"src/farm/GenericStake.sol\":6641:6704  stakedToken.safeTransfer(address(msg.sender), amountToTransfer) */\n      tag_214\n        /* \"src/farm/GenericStake.sol\":6674:6684  msg.sender */\n      caller\n        /* \"src/farm/GenericStake.sol\":6687:6703  amountToTransfer */\n      dup3\n        /* \"src/farm/GenericStake.sol\":6641:6652  stakedToken */\n      0x0c\n      0x00\n      swap1\n      sload\n      swap1\n      0x0100\n      exp\n      swap1\n      div\n      0xffffffffffffffffffffffffffffffffffffffff\n      and\n        /* \"src/farm/GenericStake.sol\":6641:6665  stakedToken.safeTransfer */\n      0xffffffffffffffffffffffffffffffffffffffff\n      and\n      tag_132\n      swap1\n        /* \"src/farm/GenericStake.sol\":6641:6704  stakedToken.safeTransfer(address(msg.sender), amountToTransfer) */\n      swap3\n      swap2\n      swap1\n      0xffffffff\n      and\n      jump\t// in\n    tag_214:\n        /* \"src/farm/GenericStake.sol\":6735:6751  amountToTransfer */\n      dup1\n        /* \"src/farm/GenericStake.sol\":6718:6731  stakedByUsers */\n      0x04\n      0x00\n        /* \"src/farm/GenericStake.sol\":6718:6751  stakedByUsers -= amountToTransfer */\n      dup3\n      dup3\n      sload\n      sub\n      swap3\n      pop\n      pop\n      dup2\n      swap1\n      sstore\n      pop\n        /* \"src/farm/GenericStake.sol\":6601:6762  if (amountToTransfer > 0) {... */\n    tag_213:\n        /* \"src/farm/GenericStake.sol\":6795:6805  msg.sender */\n      caller\n        /* \"src/farm/GenericStake.sol\":6777:6819  EmergencyWithdraw(msg.sender, user.amount) */\n      0xffffffffffffffffffffffffffffffffffffffff\n      and\n      0x5fafa99d0643513820be26656b45130b01e1c03062e1266bf36f88cbd3bd9695\n        /* \"src/farm/GenericStake.sol\":6807:6811  user */\n      dup4\n        /* \"src/farm/GenericStake.sol\":6807:6818  user.amount */\n      0x00\n      add\n      sload\n        /* \"src/farm/GenericStake.sol\":6777:6819  EmergencyWithdraw(msg.sender, user.amount) */\n      mload(0x40)\n      dup1\n      dup3\n      dup2\n      mstore\n      0x20\n      add\n      swap2\n      pop\n      pop\n      mload(0x40)\n      dup1\n      swap2\n      sub\n      swap1\n      log2\n        /* \"https://github.com/OpenZeppelin/openzeppelin-contracts/blob/v3.3.0/contracts/utils/ReentrancyGuard.sol\":2436:2437  _ */\n      pop\n      pop\n        /* \"https://github.com/OpenZeppelin/openzeppelin-contracts/blob/v3.3.0/contracts/utils/ReentrancyGuard.sol\":1645:1646  1 */\n      0x01\n        /* \"https://github.com/OpenZeppelin/openzeppelin-contracts/blob/v3.3.0/contracts/utils/ReentrancyGuard.sol\":2580:2587  _status */\n      dup1\n        /* \"https://github.com/OpenZeppelin/openzeppelin-contracts/blob/v3.3.0/contracts/utils/ReentrancyGuard.sol\":2580:2602  _status = _NOT_ENTERED */\n      dup2\n      swap1\n      sstore\n      pop\n        /* \"src/farm/GenericStake.sol\":6383:6826  function emergencyWithdraw() external nonReentrant {... */\n      jump\t// out\n        /* \"https://github.com/OpenZeppelin/openzeppelin-contracts/blob/v3.3.0/contracts/access/Ownable.sol\":2000:2240  function transferOwnership(address newOwner) public virtual onlyOwner {... */\n    tag_103:\n        /* \"https://github.com/OpenZeppelin/openzeppelin-contracts/blob/v3.3.0/contracts/access/Ownable.sol\":1297:1309  _msgSender() */\n      tag_216\n        /* \"https://github.com/OpenZeppelin/openzeppelin-contracts/blob/v3.3.0/contracts/access/Ownable.sol\":1297:1307  _msgSender */\n      tag_113\n        /* \"https://github.com/OpenZeppelin/openzeppelin-contracts/blob/v3.3.0/contracts/access/Ownable.sol\":1297:1309  _msgSender() */\n      jump\t// in\n    tag_216:\n        /* \"https://github.com/OpenZeppelin/openzeppelin-contracts/blob/v3.3.0/contracts/access/Ownable.sol\":1287:1309  _owner == _msgSender() */\n      0xffffffffffffffffffffffffffffffffffffffff\n      and\n        /* \"https://github.com/OpenZeppelin/openzeppelin-contracts/blob/v3.3.0/contracts/access/Ownable.sol\":1287:1293  _owner */\n      0x00\n      dup1\n      sload\n      swap1\n      0x0100\n      exp\n      swap1\n      div\n      0xffffffffffffffffffffffffffffffffffffffff\n      and\n        /* \"https://github.com/OpenZeppelin/openzeppelin-contracts/blob/v3.3.0/contracts/access/Ownable.sol\":1287:1309  _owner == _msgSender() */\n      0xffffffffffffffffffffffffffffffffffffffff\n      and\n      eq\n        /* \"https://github.com/OpenZeppelin/openzeppelin-contracts/blob/v3.3.0/contracts/access/Ownable.sol\":1279:1346  require(_owner == _msgSender(), \"Ownable: caller is not the owner\") */\n      tag_217\n      jumpi\n      mload(0x40)\n      0x08c379a000000000000000000000000000000000000000000000000000000000\n      dup2\n      mstore\n      0x04\n      add\n      dup1\n      dup1\n      0x20\n      add\n      dup3\n      dup2\n      sub\n      dup3\n      mstore\n      0x20\n      dup2\n      mstore\n      0x20\n      add\n      dup1\n      0x4f776e61626c653a2063616c6c6572206973206e6f7420746865206f776e6572\n      dup2\n      mstore\n      pop\n      0x20\n      add\n      swap2\n      pop\n      pop\n      mload(0x40)\n      dup1\n      swap2\n      sub\n      swap1\n      revert\n    tag_217:\n        /* \"https://github.com/OpenZeppelin/openzeppelin-contracts/blob/v3.3.0/contracts/access/Ownable.sol\":2108:2109  0 */\n      0x00\n        /* \"https://github.com/OpenZeppelin/openzeppelin-contracts/blob/v3.3.0/contracts/access/Ownable.sol\":2088:2110  newOwner != address(0) */\n      0xffffffffffffffffffffffffffffffffffffffff\n      and\n        /* \"https://github.com/OpenZeppelin/openzeppelin-contracts/blob/v3.3.0/contracts/access/Ownable.sol\":2088:2096  newOwner */\n      dup2\n        /* \"https://github.com/OpenZeppelin/openzeppelin-contracts/blob/v3.3.0/contracts/access/Ownable.sol\":2088:2110  newOwner != address(0) */\n      0xffffffffffffffffffffffffffffffffffffffff\n      and\n      eq\n      iszero\n        /* \"https://github.com/OpenZeppelin/openzeppelin-contracts/blob/v3.3.0/contracts/access/Ownable.sol\":2080:2153  require(newOwner != address(0), \"Ownable: new owner is the zero address\") */\n      tag_219\n      jumpi\n      mload(0x40)\n      0x08c379a000000000000000000000000000000000000000000000000000000000\n      dup2\n      mstore\n      0x04\n      add\n      dup1\n      dup1\n      0x20\n      add\n      dup3\n      dup2\n      sub\n      dup3\n      mstore\n      0x26\n      dup2\n      mstore\n      0x20\n      add\n      dup1\n      data_245f15ff17f551913a7a18385165551503906a406f905ac1c2437281a7cd0cfe\n      0x26\n      swap2\n      codecopy\n      0x40\n      add\n      swap2\n      pop\n      pop\n      mload(0x40)\n      dup1\n      swap2\n      sub\n      swap1\n      revert\n    tag_219:\n        /* \"https://github.com/OpenZeppelin/openzeppelin-contracts/blob/v3.3.0/contracts/access/Ownable.sol\":2197:2205  newOwner */\n      dup1\n        /* \"https://github.com/OpenZeppelin/openzeppelin-contracts/blob/v3.3.0/contracts/access/Ownable.sol\":2168:2206  OwnershipTransferred(_owner, newOwner) */\n      0xffffffffffffffffffffffffffffffffffffffff\n      and\n        /* \"https://github.com/OpenZeppelin/openzeppelin-contracts/blob/v3.3.0/contracts/access/Ownable.sol\":2189:2195  _owner */\n      0x00\n      dup1\n      sload\n      swap1\n      0x0100\n      exp\n      swap1\n      div\n      0xffffffffffffffffffffffffffffffffffffffff\n      and\n        /* \"https://github.com/OpenZeppelin/openzeppelin-contracts/blob/v3.3.0/contracts/access/Ownable.sol\":2168:2206  OwnershipTransferred(_owner, newOwner) */\n      0xffffffffffffffffffffffffffffffffffffffff\n      and\n      0x8be0079c531659141344cd1fd0a4f28419497f9722a3daafe3b4186f6b6457e0\n      mload(0x40)\n      mload(0x40)\n      dup1\n      swap2\n      sub\n      swap1\n      log3\n        /* \"https://github.com/OpenZeppelin/openzeppelin-contracts/blob/v3.3.0/contracts/access/Ownable.sol\":2225:2233  newOwner */\n      dup1\n        /* \"https://github.com/OpenZeppelin/openzeppelin-contracts/blob/v3.3.0/contracts/access/Ownable.sol\":2216:2222  _owner */\n      0x00\n      dup1\n        /* \"https://github.com/OpenZeppelin/openzeppelin-contracts/blob/v3.3.0/contracts/access/Ownable.sol\":2216:2233  _owner = newOwner */\n      0x0100\n      exp\n      dup2\n      sload\n      dup2\n      0xffffffffffffffffffffffffffffffffffffffff\n      mul\n      not\n      and\n      swap1\n      dup4\n      0xffffffffffffffffffffffffffffffffffffffff\n      and\n      mul\n      or\n      swap1\n      sstore\n      pop\n        /* \"https://github.com/OpenZeppelin/openzeppelin-contracts/blob/v3.3.0/contracts/access/Ownable.sol\":2000:2240  function transferOwnership(address newOwner) public virtual onlyOwner {... */\n      pop\n      jump\t// out\n        /* \"src/farm/GenericStake.sol\":878:906  uint256 public stakedByUsers */\n    tag_105:\n      sload(0x04)\n      dup2\n      jump\t// out\n        /* \"src/farm/GenericStake.sol\":10113:11046  function pendingReward(address _user) external view returns (uint256) {... */\n    tag_108:\n        /* \"src/farm/GenericStake.sol\":10174:10181  uint256 */\n      0x00\n        /* \"src/farm/GenericStake.sol\":10193:10214  UserInfo storage user */\n      dup1\n        /* \"src/farm/GenericStake.sol\":10217:10225  userInfo */\n      0x0d\n        /* \"src/farm/GenericStake.sol\":10217:10232  userInfo[_user] */\n      0x00\n        /* \"src/farm/GenericStake.sol\":10226:10231  _user */\n      dup5\n        /* \"src/farm/GenericStake.sol\":10217:10232  userInfo[_user] */\n      0xffffffffffffffffffffffffffffffffffffffff\n      and\n      0xffffffffffffffffffffffffffffffffffffffff\n      and\n      dup2\n      mstore\n      0x20\n      add\n      swap1\n      dup2\n      mstore\n      0x20\n      add\n      0x00\n      keccak256\n        /* \"src/farm/GenericStake.sol\":10193:10232  UserInfo storage user = userInfo[_user] */\n      swap1\n      pop\n        /* \"src/farm/GenericStake.sol\":10242:10267  uint256 stakedTokenSupply */\n      0x00\n        /* \"src/farm/GenericStake.sol\":10270:10283  stakedByUsers */\n      sload(0x04)\n        /* \"src/farm/GenericStake.sol\":10242:10283  uint256 stakedTokenSupply = stakedByUsers */\n      swap1\n      pop\n        /* \"src/farm/GenericStake.sol\":10312:10327  lastRewardBlock */\n      sload(0x07)\n        /* \"src/farm/GenericStake.sol\":10297:10309  block.number */\n      number\n        /* \"src/farm/GenericStake.sol\":10297:10327  block.number > lastRewardBlock */\n      gt\n        /* \"src/farm/GenericStake.sol\":10297:10353  block.number > lastRewardBlock && stakedTokenSupply != 0 */\n      dup1\n      iszero\n      tag_221\n      jumpi\n      pop\n        /* \"src/farm/GenericStake.sol\":10352:10353  0 */\n      0x00\n        /* \"src/farm/GenericStake.sol\":10331:10348  stakedTokenSupply */\n      dup2\n        /* \"src/farm/GenericStake.sol\":10331:10353  stakedTokenSupply != 0 */\n      eq\n      iszero\n        /* \"src/farm/GenericStake.sol\":10297:10353  block.number > lastRewardBlock && stakedTokenSupply != 0 */\n    tag_221:\n        /* \"src/farm/GenericStake.sol\":10293:11040  if (block.number > lastRewardBlock && stakedTokenSupply != 0) {... */\n      iszero\n      tag_222\n      jumpi\n        /* \"src/farm/GenericStake.sol\":10369:10387  uint256 multiplier */\n      0x00\n        /* \"src/farm/GenericStake.sol\":10390:10435  _getMultiplier(lastRewardBlock, block.number) */\n      tag_223\n        /* \"src/farm/GenericStake.sol\":10405:10420  lastRewardBlock */\n      sload(0x07)\n        /* \"src/farm/GenericStake.sol\":10422:10434  block.number */\n      number\n        /* \"src/farm/GenericStake.sol\":10390:10404  _getMultiplier */\n      tag_224\n        /* \"src/farm/GenericStake.sol\":10390:10435  _getMultiplier(lastRewardBlock, block.number) */\n      jump\t// in\n    tag_223:\n        /* \"src/farm/GenericStake.sol\":10369:10435  uint256 multiplier = _getMultiplier(lastRewardBlock, block.number) */\n      swap1\n      pop\n        /* \"src/farm/GenericStake.sol\":10449:10470  uint256 wakandaReward */\n      0x00\n        /* \"src/farm/GenericStake.sol\":10473:10503  multiplier.mul(rewardPerBlock) */\n      tag_225\n        /* \"src/farm/GenericStake.sol\":10488:10502  rewardPerBlock */\n      sload(0x09)\n        /* \"src/farm/GenericStake.sol\":10473:10483  multiplier */\n      dup4\n        /* \"src/farm/GenericStake.sol\":10473:10487  multiplier.mul */\n      tag_126\n      swap1\n        /* \"src/farm/GenericStake.sol\":10473:10503  multiplier.mul(rewardPerBlock) */\n      swap2\n      swap1\n      0xffffffff\n      and\n      jump\t// in\n    tag_225:\n        /* \"src/farm/GenericStake.sol\":10449:10503  uint256 wakandaReward = multiplier.mul(rewardPerBlock) */\n      swap1\n      pop\n        /* \"src/farm/GenericStake.sol\":10517:10546  uint256 adjustedTokenPerShare */\n      0x00\n        /* \"src/farm/GenericStake.sol\":10549:10659  accTokenPerShare.add(... */\n      tag_226\n        /* \"src/farm/GenericStake.sol\":10587:10645  wakandaReward.mul(PRECISION_FACTOR).div(stakedTokenSupply) */\n      tag_227\n        /* \"src/farm/GenericStake.sol\":10627:10644  stakedTokenSupply */\n      dup6\n        /* \"src/farm/GenericStake.sol\":10587:10622  wakandaReward.mul(PRECISION_FACTOR) */\n      tag_228\n        /* \"src/farm/GenericStake.sol\":10605:10621  PRECISION_FACTOR */\n      sload(0x0a)\n        /* \"src/farm/GenericStake.sol\":10587:10600  wakandaReward */\n      dup7\n        /* \"src/farm/GenericStake.sol\":10587:10604  wakandaReward.mul */\n      tag_126\n      swap1\n        /* \"src/farm/GenericStake.sol\":10587:10622  wakandaReward.mul(PRECISION_FACTOR) */\n      swap2\n      swap1\n      0xffffffff\n      and\n      jump\t// in\n    tag_228:\n        /* \"src/farm/GenericStake.sol\":10587:10626  wakandaReward.mul(PRECISION_FACTOR).div */\n      tag_127\n      swap1\n        /* \"src/farm/GenericStake.sol\":10587:10645  wakandaReward.mul(PRECISION_FACTOR).div(stakedTokenSupply) */\n      swap2\n      swap1\n      0xffffffff\n      and\n      jump\t// in\n    tag_227:\n        /* \"src/farm/GenericStake.sol\":10549:10565  accTokenPerShare */\n      sload(0x03)\n        /* \"src/farm/GenericStake.sol\":10549:10569  accTokenPerShare.add */\n      tag_195\n      swap1\n        /* \"src/farm/GenericStake.sol\":10549:10659  accTokenPerShare.add(... */\n      swap2\n      swap1\n      0xffffffff\n      and\n      jump\t// in\n    tag_226:\n        /* \"src/farm/GenericStake.sol\":10517:10659  uint256 adjustedTokenPerShare = accTokenPerShare.add(... */\n      swap1\n      pop\n        /* \"src/farm/GenericStake.sol\":10696:10861  user... */\n      tag_229\n        /* \"src/farm/GenericStake.sol\":10845:10849  user */\n      dup6\n        /* \"src/farm/GenericStake.sol\":10845:10860  user.rewardDebt */\n      0x01\n      add\n      sload\n        /* \"src/farm/GenericStake.sol\":10696:10819  user... */\n      tag_230\n        /* \"src/farm/GenericStake.sol\":10802:10818  PRECISION_FACTOR */\n      sload(0x0a)\n        /* \"src/farm/GenericStake.sol\":10696:10776  user... */\n      tag_231\n        /* \"src/farm/GenericStake.sol\":10754:10775  adjustedTokenPerShare */\n      dup6\n        /* \"src/farm/GenericStake.sol\":10696:10700  user */\n      dup11\n        /* \"src/farm/GenericStake.sol\":10696:10728  user... */\n      0x00\n      add\n      sload\n        /* \"src/farm/GenericStake.sol\":10696:10753  user... */\n      tag_126\n      swap1\n        /* \"src/farm/GenericStake.sol\":10696:10776  user... */\n      swap2\n      swap1\n      0xffffffff\n      and\n      jump\t// in\n    tag_231:\n        /* \"src/farm/GenericStake.sol\":10696:10801  user... */\n      tag_127\n      swap1\n        /* \"src/farm/GenericStake.sol\":10696:10819  user... */\n      swap2\n      swap1\n      0xffffffff\n      and\n      jump\t// in\n    tag_230:\n        /* \"src/farm/GenericStake.sol\":10696:10844  user... */\n      tag_128\n      swap1\n        /* \"src/farm/GenericStake.sol\":10696:10861  user... */\n      swap2\n      swap1\n      0xffffffff\n      and\n      jump\t// in\n    tag_229:\n        /* \"src/farm/GenericStake.sol\":10673:10861  return... */\n      swap6\n      pop\n      pop\n      pop\n      pop\n      pop\n      pop\n      jump(tag_220)\n        /* \"src/farm/GenericStake.sol\":10293:11040  if (block.number > lastRewardBlock && stakedTokenSupply != 0) {... */\n    tag_222:\n        /* \"src/farm/GenericStake.sol\":10915:11029  user.amount.mul(accTokenPerShare).div(PRECISION_FACTOR).sub(... */\n      tag_233\n        /* \"src/farm/GenericStake.sol\":10996:11000  user */\n      dup3\n        /* \"src/farm/GenericStake.sol\":10996:11011  user.rewardDebt */\n      0x01\n      add\n      sload\n        /* \"src/farm/GenericStake.sol\":10915:10970  user.amount.mul(accTokenPerShare).div(PRECISION_FACTOR) */\n      tag_234\n        /* \"src/farm/GenericStake.sol\":10953:10969  PRECISION_FACTOR */\n      sload(0x0a)\n        /* \"src/farm/GenericStake.sol\":10915:10948  user.amount.mul(accTokenPerShare) */\n      tag_235\n        /* \"src/farm/GenericStake.sol\":10931:10947  accTokenPerShare */\n      sload(0x03)\n        /* \"src/farm/GenericStake.sol\":10915:10919  user */\n      dup8\n        /* \"src/farm/GenericStake.sol\":10915:10926  user.amount */\n      0x00\n      add\n      sload\n        /* \"src/farm/GenericStake.sol\":10915:10930  user.amount.mul */\n      tag_126\n      swap1\n        /* \"src/farm/GenericStake.sol\":10915:10948  user.amount.mul(accTokenPerShare) */\n      swap2\n      swap1\n      0xffffffff\n      and\n      jump\t// in\n    tag_235:\n        /* \"src/farm/GenericStake.sol\":10915:10952  user.amount.mul(accTokenPerShare).div */\n      tag_127\n      swap1\n        /* \"src/farm/GenericStake.sol\":10915:10970  user.amount.mul(accTokenPerShare).div(PRECISION_FACTOR) */\n      swap2\n      swap1\n      0xffffffff\n      and\n      jump\t// in\n    tag_234:\n        /* \"src/farm/GenericStake.sol\":10915:10974  user.amount.mul(accTokenPerShare).div(PRECISION_FACTOR).sub */\n      tag_128\n      swap1\n        /* \"src/farm/GenericStake.sol\":10915:11029  user.amount.mul(accTokenPerShare).div(PRECISION_FACTOR).sub(... */\n      swap2\n      swap1\n      0xffffffff\n      and\n      jump\t// in\n    tag_233:\n        /* \"src/farm/GenericStake.sol\":10892:11029  return... */\n      swap3\n      pop\n      pop\n      pop\n        /* \"src/farm/GenericStake.sol\":10113:11046  function pendingReward(address _user) external view returns (uint256) {... */\n    tag_220:\n      swap2\n      swap1\n      pop\n      jump\t// out\n        /* \"src/farm/GenericStake.sol\":1394:1419  IBEP20 public rewardToken */\n    tag_110:\n      0x0b\n      0x00\n      swap1\n      sload\n      swap1\n      0x0100\n      exp\n      swap1\n      div\n      0xffffffffffffffffffffffffffffffffffffffff\n      and\n      dup2\n      jump\t// out\n        /* \"https://github.com/OpenZeppelin/openzeppelin-contracts/blob/v3.3.0/contracts/GSN/Context.sol\":598:702  function _msgSender() internal view virtual returns (address payable) {... */\n    tag_113:\n        /* \"https://github.com/OpenZeppelin/openzeppelin-contracts/blob/v3.3.0/contracts/GSN/Context.sol\":651:666  address payable */\n      0x00\n        /* \"https://github.com/OpenZeppelin/openzeppelin-contracts/blob/v3.3.0/contracts/GSN/Context.sol\":685:695  msg.sender */\n      caller\n        /* \"https://github.com/OpenZeppelin/openzeppelin-contracts/blob/v3.3.0/contracts/GSN/Context.sol\":678:695  return msg.sender */\n      swap1\n      pop\n        /* \"https://github.com/OpenZeppelin/openzeppelin-contracts/blob/v3.3.0/contracts/GSN/Context.sol\":598:702  function _msgSender() internal view virtual returns (address payable) {... */\n      swap1\n      jump\t// out\n        /* \"src/farm/GenericStake.sol\":11142:11735  function _updatePool() internal {... */\n    tag_122:\n        /* \"src/farm/GenericStake.sol\":11204:11219  lastRewardBlock */\n      sload(0x07)\n        /* \"src/farm/GenericStake.sol\":11188:11200  block.number */\n      number\n        /* \"src/farm/GenericStake.sol\":11188:11219  block.number <= lastRewardBlock */\n      gt\n        /* \"src/farm/GenericStake.sol\":11184:11252  if (block.number <= lastRewardBlock) {... */\n      tag_238\n      jumpi\n        /* \"src/farm/GenericStake.sol\":11235:11242  return; */\n      jump(tag_237)\n        /* \"src/farm/GenericStake.sol\":11184:11252  if (block.number <= lastRewardBlock) {... */\n    tag_238:\n        /* \"src/farm/GenericStake.sol\":11262:11287  uint256 stakedTokenSupply */\n      0x00\n        /* \"src/farm/GenericStake.sol\":11290:11303  stakedByUsers */\n      sload(0x04)\n        /* \"src/farm/GenericStake.sol\":11262:11303  uint256 stakedTokenSupply = stakedByUsers */\n      swap1\n      pop\n        /* \"src/farm/GenericStake.sol\":11339:11340  0 */\n      0x00\n        /* \"src/farm/GenericStake.sol\":11318:11335  stakedTokenSupply */\n      dup2\n        /* \"src/farm/GenericStake.sol\":11318:11340  stakedTokenSupply == 0 */\n      eq\n        /* \"src/farm/GenericStake.sol\":11314:11417  if (stakedTokenSupply == 0) {... */\n      iszero\n      tag_239\n      jumpi\n        /* \"src/farm/GenericStake.sol\":11374:11386  block.number */\n      number\n        /* \"src/farm/GenericStake.sol\":11356:11371  lastRewardBlock */\n      0x07\n        /* \"src/farm/GenericStake.sol\":11356:11386  lastRewardBlock = block.number */\n      dup2\n      swap1\n      sstore\n      pop\n        /* \"src/farm/GenericStake.sol\":11400:11407  return; */\n      pop\n      jump(tag_237)\n        /* \"src/farm/GenericStake.sol\":11314:11417  if (stakedTokenSupply == 0) {... */\n    tag_239:\n        /* \"src/farm/GenericStake.sol\":11427:11445  uint256 multiplier */\n      0x00\n        /* \"src/farm/GenericStake.sol\":11448:11493  _getMultiplier(lastRewardBlock, block.number) */\n      tag_240\n        /* \"src/farm/GenericStake.sol\":11463:11478  lastRewardBlock */\n      sload(0x07)\n        /* \"src/farm/GenericStake.sol\":11480:11492  block.number */\n      number\n        /* \"src/farm/GenericStake.sol\":11448:11462  _getMultiplier */\n      tag_224\n        /* \"src/farm/GenericStake.sol\":11448:11493  _getMultiplier(lastRewardBlock, block.number) */\n      jump\t// in\n    tag_240:\n        /* \"src/farm/GenericStake.sol\":11427:11493  uint256 multiplier = _getMultiplier(lastRewardBlock, block.number) */\n      swap1\n      pop\n        /* \"src/farm/GenericStake.sol\":11503:11524  uint256 wakandaReward */\n      0x00\n        /* \"src/farm/GenericStake.sol\":11527:11557  multiplier.mul(rewardPerBlock) */\n      tag_241\n        /* \"src/farm/GenericStake.sol\":11542:11556  rewardPerBlock */\n      sload(0x09)\n        /* \"src/farm/GenericStake.sol\":11527:11537  multiplier */\n      dup4\n        /* \"src/farm/GenericStake.sol\":11527:11541  multiplier.mul */\n      tag_126\n      swap1\n        /* \"src/farm/GenericStake.sol\":11527:11557  multiplier.mul(rewardPerBlock) */\n      swap2\n      swap1\n      0xffffffff\n      and\n      jump\t// in\n    tag_241:\n        /* \"src/farm/GenericStake.sol\":11503:11557  uint256 wakandaReward = multiplier.mul(rewardPerBlock) */\n      swap1\n      pop\n        /* \"src/farm/GenericStake.sol\":11586:11688  accTokenPerShare.add(... */\n      tag_242\n        /* \"src/farm/GenericStake.sol\":11620:11678  wakandaReward.mul(PRECISION_FACTOR).div(stakedTokenSupply) */\n      tag_243\n        /* \"src/farm/GenericStake.sol\":11660:11677  stakedTokenSupply */\n      dup5\n        /* \"src/farm/GenericStake.sol\":11620:11655  wakandaReward.mul(PRECISION_FACTOR) */\n      tag_244\n        /* \"src/farm/GenericStake.sol\":11638:11654  PRECISION_FACTOR */\n      sload(0x0a)\n        /* \"src/farm/GenericStake.sol\":11620:11633  wakandaReward */\n      dup6\n        /* \"src/farm/GenericStake.sol\":11620:11637  wakandaReward.mul */\n      tag_126\n      swap1\n        /* \"src/farm/GenericStake.sol\":11620:11655  wakandaReward.mul(PRECISION_FACTOR) */\n      swap2\n      swap1\n      0xffffffff\n      and\n      jump\t// in\n    tag_244:\n        /* \"src/farm/GenericStake.sol\":11620:11659  wakandaReward.mul(PRECISION_FACTOR).div */\n      tag_127\n      swap1\n        /* \"src/farm/GenericStake.sol\":11620:11678  wakandaReward.mul(PRECISION_FACTOR).div(stakedTokenSupply) */\n      swap2\n      swap1\n      0xffffffff\n      and\n      jump\t// in\n    tag_243:\n        /* \"src/farm/GenericStake.sol\":11586:11602  accTokenPerShare */\n      sload(0x03)\n        /* \"src/farm/GenericStake.sol\":11586:11606  accTokenPerShare.add */\n      tag_195\n      swap1\n        /* \"src/farm/GenericStake.sol\":11586:11688  accTokenPerShare.add(... */\n      swap2\n      swap1\n      0xffffffff\n      and\n      jump\t// in\n    tag_242:\n        /* \"src/farm/GenericStake.sol\":11567:11583  accTokenPerShare */\n      0x03\n        /* \"src/farm/GenericStake.sol\":11567:11688  accTokenPerShare = accTokenPerShare.add(... */\n      dup2\n      swap1\n      sstore\n      pop\n        /* \"src/farm/GenericStake.sol\":11716:11728  block.number */\n      number\n        /* \"src/farm/GenericStake.sol\":11698:11713  lastRewardBlock */\n      0x07\n        /* \"src/farm/GenericStake.sol\":11698:11728  lastRewardBlock = block.number */\n      dup2\n      swap1\n      sstore\n      pop\n        /* \"src/farm/GenericStake.sol\":11142:11735  function _updatePool() internal {... */\n      pop\n      pop\n      pop\n    tag_237:\n      jump\t// out\n        /* \"https://github.com/OpenZeppelin/openzeppelin-contracts/blob/v3.3.0/contracts/math/SafeMath.sol\":2188:2647  function mul(uint256 a, uint256 b) internal pure returns (uint256) {... */\n    tag_126:\n        /* \"https://github.com/OpenZeppelin/openzeppelin-contracts/blob/v3.3.0/contracts/math/SafeMath.sol\":2246:2253  uint256 */\n      0x00\n        /* \"https://github.com/OpenZeppelin/openzeppelin-contracts/blob/v3.3.0/contracts/math/SafeMath.sol\":2492:2493  0 */\n      dup1\n        /* \"https://github.com/OpenZeppelin/openzeppelin-contracts/blob/v3.3.0/contracts/math/SafeMath.sol\":2487:2488  a */\n      dup4\n        /* \"https://github.com/OpenZeppelin/openzeppelin-contracts/blob/v3.3.0/contracts/math/SafeMath.sol\":2487:2493  a == 0 */\n      eq\n        /* \"https://github.com/OpenZeppelin/openzeppelin-contracts/blob/v3.3.0/contracts/math/SafeMath.sol\":2483:2528  if (a == 0) {... */\n      iszero\n      tag_246\n      jumpi\n        /* \"https://github.com/OpenZeppelin/openzeppelin-contracts/blob/v3.3.0/contracts/math/SafeMath.sol\":2516:2517  0 */\n      0x00\n        /* \"https://github.com/OpenZeppelin/openzeppelin-contracts/blob/v3.3.0/contracts/math/SafeMath.sol\":2509:2517  return 0 */\n      swap1\n      pop\n      jump(tag_245)\n        /* \"https://github.com/OpenZeppelin/openzeppelin-contracts/blob/v3.3.0/contracts/math/SafeMath.sol\":2483:2528  if (a == 0) {... */\n    tag_246:\n        /* \"https://github.com/OpenZeppelin/openzeppelin-contracts/blob/v3.3.0/contracts/math/SafeMath.sol\":2538:2547  uint256 c */\n      0x00\n        /* \"https://github.com/OpenZeppelin/openzeppelin-contracts/blob/v3.3.0/contracts/math/SafeMath.sol\":2554:2555  b */\n      dup3\n        /* \"https://github.com/OpenZeppelin/openzeppelin-contracts/blob/v3.3.0/contracts/math/SafeMath.sol\":2550:2551  a */\n      dup5\n        /* \"https://github.com/OpenZeppelin/openzeppelin-contracts/blob/v3.3.0/contracts/math/SafeMath.sol\":2550:2555  a * b */\n      mul\n        /* \"https://github.com/OpenZeppelin/openzeppelin-contracts/blob/v3.3.0/contracts/math/SafeMath.sol\":2538:2555  uint256 c = a * b */\n      swap1\n      pop\n        /* \"https://github.com/OpenZeppelin/openzeppelin-contracts/blob/v3.3.0/contracts/math/SafeMath.sol\":2582:2583  b */\n      dup3\n        /* \"https://github.com/OpenZeppelin/openzeppelin-contracts/blob/v3.3.0/contracts/math/SafeMath.sol\":2577:2578  a */\n      dup5\n        /* \"https://github.com/OpenZeppelin/openzeppelin-contracts/blob/v3.3.0/contracts/math/SafeMath.sol\":2573:2574  c */\n      dup3\n        /* \"https://github.com/OpenZeppelin/openzeppelin-contracts/blob/v3.3.0/contracts/math/SafeMath.sol\":2573:2578  c / a */\n      dup2\n      tag_247\n      jumpi\n      invalid\n    tag_247:\n      div\n        /* \"https://github.com/OpenZeppelin/openzeppelin-contracts/blob/v3.3.0/contracts/math/SafeMath.sol\":2573:2583  c / a == b */\n      eq\n        /* \"https://github.com/OpenZeppelin/openzeppelin-contracts/blob/v3.3.0/contracts/math/SafeMath.sol\":2565:2621  require(c / a == b, \"SafeMath: multiplication overflow\") */\n      tag_248\n      jumpi\n      mload(0x40)\n      0x08c379a000000000000000000000000000000000000000000000000000000000\n      dup2\n      mstore\n      0x04\n      add\n      dup1\n      dup1\n      0x20\n      add\n      dup3\n      dup2\n      sub\n      dup3\n      mstore\n      0x21\n      dup2\n      mstore\n      0x20\n      add\n      dup1\n      data_9113bb53c2876a3805b2c9242029423fc540a728243ce887ab24c82cf119fba3\n      0x21\n      swap2\n      codecopy\n      0x40\n      add\n      swap2\n      pop\n      pop\n      mload(0x40)\n      dup1\n      swap2\n      sub\n      swap1\n      revert\n    tag_248:\n        /* \"https://github.com/OpenZeppelin/openzeppelin-contracts/blob/v3.3.0/contracts/math/SafeMath.sol\":2639:2640  c */\n      dup1\n        /* \"https://github.com/OpenZeppelin/openzeppelin-contracts/blob/v3.3.0/contracts/math/SafeMath.sol\":2632:2640  return c */\n      swap2\n      pop\n      pop\n        /* \"https://github.com/OpenZeppelin/openzeppelin-contracts/blob/v3.3.0/contracts/math/SafeMath.sol\":2188:2647  function mul(uint256 a, uint256 b) internal pure returns (uint256) {... */\n    tag_245:\n      swap3\n      swap2\n      pop\n      pop\n      jump\t// out\n        /* \"https://github.com/OpenZeppelin/openzeppelin-contracts/blob/v3.3.0/contracts/math/SafeMath.sol\":3109:3239  function div(uint256 a, uint256 b) internal pure returns (uint256) {... */\n    tag_127:\n        /* \"https://github.com/OpenZeppelin/openzeppelin-contracts/blob/v3.3.0/contracts/math/SafeMath.sol\":3167:3174  uint256 */\n      0x00\n        /* \"https://github.com/OpenZeppelin/openzeppelin-contracts/blob/v3.3.0/contracts/math/SafeMath.sol\":3193:3232  div(a, b, \"SafeMath: division by zero\") */\n      tag_250\n        /* \"https://github.com/OpenZeppelin/openzeppelin-contracts/blob/v3.3.0/contracts/math/SafeMath.sol\":3197:3198  a */\n      dup4\n        /* \"https://github.com/OpenZeppelin/openzeppelin-contracts/blob/v3.3.0/contracts/math/SafeMath.sol\":3200:3201  b */\n      dup4\n        /* \"https://github.com/OpenZeppelin/openzeppelin-contracts/blob/v3.3.0/contracts/math/SafeMath.sol\":3193:3232  div(a, b, \"SafeMath: division by zero\") */\n      mload(0x40)\n      dup1\n      0x40\n      add\n      0x40\n      mstore\n      dup1\n      0x1a\n      dup2\n      mstore\n      0x20\n      add\n      0x536166654d6174683a206469766973696f6e206279207a65726f000000000000\n      dup2\n      mstore\n      pop\n        /* \"https://github.com/OpenZeppelin/openzeppelin-contracts/blob/v3.3.0/contracts/math/SafeMath.sol\":3193:3196  div */\n      tag_251\n        /* \"https://github.com/OpenZeppelin/openzeppelin-contracts/blob/v3.3.0/contracts/math/SafeMath.sol\":3193:3232  div(a, b, \"SafeMath: division by zero\") */\n      jump\t// in\n    tag_250:\n        /* \"https://github.com/OpenZeppelin/openzeppelin-contracts/blob/v3.3.0/contracts/math/SafeMath.sol\":3186:3232  return div(a, b, \"SafeMath: division by zero\") */\n      swap1\n      pop\n        /* \"https://github.com/OpenZeppelin/openzeppelin-contracts/blob/v3.3.0/contracts/math/SafeMath.sol\":3109:3239  function div(uint256 a, uint256 b) internal pure returns (uint256) {... */\n      swap3\n      swap2\n      pop\n      pop\n      jump\t// out\n        /* \"https://github.com/OpenZeppelin/openzeppelin-contracts/blob/v3.3.0/contracts/math/SafeMath.sol\":1329:1463  function sub(uint256 a, uint256 b) internal pure returns (uint256) {... */\n    tag_128:\n        /* \"https://github.com/OpenZeppelin/openzeppelin-contracts/blob/v3.3.0/contracts/math/SafeMath.sol\":1387:1394  uint256 */\n      0x00\n        /* \"https://github.com/OpenZeppelin/openzeppelin-contracts/blob/v3.3.0/contracts/math/SafeMath.sol\":1413:1456  sub(a, b, \"SafeMath: subtraction overflow\") */\n      tag_253\n        /* \"https://github.com/OpenZeppelin/openzeppelin-contracts/blob/v3.3.0/contracts/math/SafeMath.sol\":1417:1418  a */\n      dup4\n        /* \"https://github.com/OpenZeppelin/openzeppelin-contracts/blob/v3.3.0/contracts/math/SafeMath.sol\":1420:1421  b */\n      dup4\n        /* \"https://github.com/OpenZeppelin/openzeppelin-contracts/blob/v3.3.0/contracts/math/SafeMath.sol\":1413:1456  sub(a, b, \"SafeMath: subtraction overflow\") */\n      mload(0x40)\n      dup1\n      0x40\n      add\n      0x40\n      mstore\n      dup1\n      0x1e\n      dup2\n      mstore\n      0x20\n      add\n      0x536166654d6174683a207375627472616374696f6e206f766572666c6f770000\n      dup2\n      mstore\n      pop\n        /* \"https://github.com/OpenZeppelin/openzeppelin-contracts/blob/v3.3.0/contracts/math/SafeMath.sol\":1413:1416  sub */\n      tag_254\n        /* \"https://github.com/OpenZeppelin/openzeppelin-contracts/blob/v3.3.0/contracts/math/SafeMath.sol\":1413:1456  sub(a, b, \"SafeMath: subtraction overflow\") */\n      jump\t// in\n    tag_253:\n        /* \"https://github.com/OpenZeppelin/openzeppelin-contracts/blob/v3.3.0/contracts/math/SafeMath.sol\":1406:1456  return sub(a, b, \"SafeMath: subtraction overflow\") */\n      swap1\n      pop\n        /* \"https://github.com/OpenZeppelin/openzeppelin-contracts/blob/v3.3.0/contracts/math/SafeMath.sol\":1329:1463  function sub(uint256 a, uint256 b) internal pure returns (uint256) {... */\n      swap3\n      swap2\n      pop\n      pop\n      jump\t// out\n        /* \"src/helpers/SafeBEP20.sol\":837:1076  function safeTransfer(... */\n    tag_132:\n        /* \"src/helpers/SafeBEP20.sol\":949:1069  _callOptionalReturn(... */\n      tag_256\n        /* \"src/helpers/SafeBEP20.sol\":982:987  token */\n      dup4\n        /* \"src/helpers/SafeBEP20.sol\":1024:1047  token.transfer.selector */\n      shl(0xe0, 0xa9059cbb)\n        /* \"src/helpers/SafeBEP20.sol\":1049:1051  to */\n      dup5\n        /* \"src/helpers/SafeBEP20.sol\":1053:1058  value */\n      dup5\n        /* \"src/helpers/SafeBEP20.sol\":1001:1059  abi.encodeWithSelector(token.transfer.selector, to, value) */\n      add(0x24, mload(0x40))\n      dup1\n      dup4\n      0xffffffffffffffffffffffffffffffffffffffff\n      and\n      dup2\n      mstore\n      0x20\n      add\n      dup3\n      dup2\n      mstore\n      0x20\n      add\n      swap3\n      pop\n      pop\n      pop\n      mload(0x40)\n      0x20\n      dup2\n      dup4\n      sub\n      sub\n      dup2\n      mstore\n      swap1\n      0x40\n      mstore\n      swap1\n      not(0xffffffffffffffffffffffffffffffffffffffffffffffffffffffff)\n      and\n      0x20\n      dup3\n      add\n      dup1\n      mload\n      0xffffffffffffffffffffffffffffffffffffffffffffffffffffffff\n      dup4\n      dup2\n      dup4\n      and\n      or\n      dup4\n      mstore\n      pop\n      pop\n      pop\n      pop\n        /* \"src/helpers/SafeBEP20.sol\":949:968  _callOptionalReturn */\n      tag_257\n        /* \"src/helpers/SafeBEP20.sol\":949:1069  _callOptionalReturn(... */\n      jump\t// in\n    tag_256:\n        /* \"src/helpers/SafeBEP20.sol\":837:1076  function safeTransfer(... */\n      pop\n      pop\n      pop\n      jump\t// out\n        /* \"https://github.com/OpenZeppelin/openzeppelin-contracts/blob/v3.3.0/contracts/math/SafeMath.sol\":882:1058  function add(uint256 a, uint256 b) internal pure returns (uint256) {... */\n    tag_195:\n        /* \"https://github.com/OpenZeppelin/openzeppelin-contracts/blob/v3.3.0/contracts/math/SafeMath.sol\":940:947  uint256 */\n      0x00\n        /* \"https://github.com/OpenZeppelin/openzeppelin-contracts/blob/v3.3.0/contracts/math/SafeMath.sol\":959:968  uint256 c */\n      dup1\n        /* \"https://github.com/OpenZeppelin/openzeppelin-contracts/blob/v3.3.0/contracts/math/SafeMath.sol\":975:976  b */\n      dup3\n        /* \"https://github.com/OpenZeppelin/openzeppelin-contracts/blob/v3.3.0/contracts/math/SafeMath.sol\":971:972  a */\n      dup5\n        /* \"https://github.com/OpenZeppelin/openzeppelin-contracts/blob/v3.3.0/contracts/math/SafeMath.sol\":971:976  a + b */\n      add\n        /* \"https://github.com/OpenZeppelin/openzeppelin-contracts/blob/v3.3.0/contracts/math/SafeMath.sol\":959:976  uint256 c = a + b */\n      swap1\n      pop\n        /* \"https://github.com/OpenZeppelin/openzeppelin-contracts/blob/v3.3.0/contracts/math/SafeMath.sol\":999:1000  a */\n      dup4\n        /* \"https://github.com/OpenZeppelin/openzeppelin-contracts/blob/v3.3.0/contracts/math/SafeMath.sol\":994:995  c */\n      dup2\n        /* \"https://github.com/OpenZeppelin/openzeppelin-contracts/blob/v3.3.0/contracts/math/SafeMath.sol\":994:1000  c >= a */\n      lt\n      iszero\n        /* \"https://github.com/OpenZeppelin/openzeppelin-contracts/blob/v3.3.0/contracts/math/SafeMath.sol\":986:1032  require(c >= a, \"SafeMath: addition overflow\") */\n      tag_259\n      jumpi\n      mload(0x40)\n      0x08c379a000000000000000000000000000000000000000000000000000000000\n      dup2\n      mstore\n      0x04\n      add\n      dup1\n      dup1\n      0x20\n      add\n      dup3\n      dup2\n      sub\n      dup3\n      mstore\n      0x1b\n      dup2\n      mstore\n      0x20\n      add\n      dup1\n      0x536166654d6174683a206164646974696f6e206f766572666c6f770000000000\n      dup2\n      mstore\n      pop\n      0x20\n      add\n      swap2\n      pop\n      pop\n      mload(0x40)\n      dup1\n      swap2\n      sub\n      swap1\n      revert\n    tag_259:\n        /* \"https://github.com/OpenZeppelin/openzeppelin-contracts/blob/v3.3.0/contracts/math/SafeMath.sol\":1050:1051  c */\n      dup1\n        /* \"https://github.com/OpenZeppelin/openzeppelin-contracts/blob/v3.3.0/contracts/math/SafeMath.sol\":1043:1051  return c */\n      swap2\n      pop\n      pop\n        /* \"https://github.com/OpenZeppelin/openzeppelin-contracts/blob/v3.3.0/contracts/math/SafeMath.sol\":882:1058  function add(uint256 a, uint256 b) internal pure returns (uint256) {... */\n      swap3\n      swap2\n      pop\n      pop\n      jump\t// out\n        /* \"src/helpers/SafeBEP20.sol\":1082:1357  function safeTransferFrom(... */\n    tag_207:\n        /* \"src/helpers/SafeBEP20.sol\":1220:1350  _callOptionalReturn(... */\n      tag_261\n        /* \"src/helpers/SafeBEP20.sol\":1253:1258  token */\n      dup5\n        /* \"src/helpers/SafeBEP20.sol\":1295:1322  token.transferFrom.selector */\n      shl(0xe0, 0x23b872dd)\n        /* \"src/helpers/SafeBEP20.sol\":1324:1328  from */\n      dup6\n        /* \"src/helpers/SafeBEP20.sol\":1330:1332  to */\n      dup6\n        /* \"src/helpers/SafeBEP20.sol\":1334:1339  value */\n      dup6\n        /* \"src/helpers/SafeBEP20.sol\":1272:1340  abi.encodeWithSelector(token.transferFrom.selector, from, to, value) */\n      add(0x24, mload(0x40))\n      dup1\n      dup5\n      0xffffffffffffffffffffffffffffffffffffffff\n      and\n      dup2\n      mstore\n      0x20\n      add\n      dup4\n      0xffffffffffffffffffffffffffffffffffffffff\n      and\n      dup2\n      mstore\n      0x20\n      add\n      dup3\n      dup2\n      mstore\n      0x20\n      add\n      swap4\n      pop\n      pop\n      pop\n      pop\n      mload(0x40)\n      0x20\n      dup2\n      dup4\n      sub\n      sub\n      dup2\n      mstore\n      swap1\n      0x40\n      mstore\n      swap1\n      not(0xffffffffffffffffffffffffffffffffffffffffffffffffffffffff)\n      and\n      0x20\n      dup3\n      add\n      dup1\n      mload\n      0xffffffffffffffffffffffffffffffffffffffffffffffffffffffff\n      dup4\n      dup2\n      dup4\n      and\n      or\n      dup4\n      mstore\n      pop\n      pop\n      pop\n      pop\n        /* \"src/helpers/SafeBEP20.sol\":1220:1239  _callOptionalReturn */\n      tag_257\n        /* \"src/helpers/SafeBEP20.sol\":1220:1350  _callOptionalReturn(... */\n      jump\t// in\n    tag_261:\n        /* \"src/helpers/SafeBEP20.sol\":1082:1357  function safeTransferFrom(... */\n      pop\n      pop\n      pop\n      pop\n      jump\t// out\n        /* \"src/farm/GenericStake.sol\":11902:12231  function _getMultiplier(uint256 _from, uint256 _to)... */\n    tag_224:\n        /* \"src/farm/GenericStake.sol\":12001:12008  uint256 */\n      0x00\n        /* \"src/farm/GenericStake.sol\":12035:12048  bonusEndBlock */\n      sload(0x05)\n        /* \"src/farm/GenericStake.sol\":12028:12031  _to */\n      dup3\n        /* \"src/farm/GenericStake.sol\":12028:12048  _to <= bonusEndBlock */\n      gt\n        /* \"src/farm/GenericStake.sol\":12024:12225  if (_to <= bonusEndBlock) {... */\n      tag_263\n      jumpi\n        /* \"src/farm/GenericStake.sol\":12071:12085  _to.sub(_from) */\n      tag_264\n        /* \"src/farm/GenericStake.sol\":12079:12084  _from */\n      dup4\n        /* \"src/farm/GenericStake.sol\":12071:12074  _to */\n      dup4\n        /* \"src/farm/GenericStake.sol\":12071:12078  _to.sub */\n      tag_128\n      swap1\n        /* \"src/farm/GenericStake.sol\":12071:12085  _to.sub(_from) */\n      swap2\n      swap1\n      0xffffffff\n      and\n      jump\t// in\n    tag_264:\n        /* \"src/farm/GenericStake.sol\":12064:12085  return _to.sub(_from) */\n      swap1\n      pop\n      jump(tag_262)\n        /* \"src/farm/GenericStake.sol\":12024:12225  if (_to <= bonusEndBlock) {... */\n    tag_263:\n        /* \"src/farm/GenericStake.sol\":12115:12128  bonusEndBlock */\n      sload(0x05)\n        /* \"src/farm/GenericStake.sol\":12106:12111  _from */\n      dup4\n        /* \"src/farm/GenericStake.sol\":12106:12128  _from >= bonusEndBlock */\n      lt\n        /* \"src/farm/GenericStake.sol\":12102:12225  if (_from >= bonusEndBlock) {... */\n      tag_266\n      jumpi\n        /* \"src/farm/GenericStake.sol\":12151:12152  0 */\n      0x00\n        /* \"src/farm/GenericStake.sol\":12144:12152  return 0 */\n      swap1\n      pop\n      jump(tag_262)\n        /* \"src/farm/GenericStake.sol\":12102:12225  if (_from >= bonusEndBlock) {... */\n    tag_266:\n        /* \"src/farm/GenericStake.sol\":12190:12214  bonusEndBlock.sub(_from) */\n      tag_268\n        /* \"src/farm/GenericStake.sol\":12208:12213  _from */\n      dup4\n        /* \"src/farm/GenericStake.sol\":12190:12203  bonusEndBlock */\n      sload(0x05)\n        /* \"src/farm/GenericStake.sol\":12190:12207  bonusEndBlock.sub */\n      tag_128\n      swap1\n        /* \"src/farm/GenericStake.sol\":12190:12214  bonusEndBlock.sub(_from) */\n      swap2\n      swap1\n      0xffffffff\n      and\n      jump\t// in\n    tag_268:\n        /* \"src/farm/GenericStake.sol\":12183:12214  return bonusEndBlock.sub(_from) */\n      swap1\n      pop\n        /* \"src/farm/GenericStake.sol\":11902:12231  function _getMultiplier(uint256 _from, uint256 _to)... */\n    tag_262:\n      swap3\n      swap2\n      pop\n      pop\n      jump\t// out\n        /* \"https://github.com/OpenZeppelin/openzeppelin-contracts/blob/v3.3.0/contracts/math/SafeMath.sol\":3721:3993  function div(uint256 a, uint256 b, string memory errorMessage) internal pure returns (uint256) {... */\n    tag_251:\n        /* \"https://github.com/OpenZeppelin/openzeppelin-contracts/blob/v3.3.0/contracts/math/SafeMath.sol\":3807:3814  uint256 */\n      0x00\n        /* \"https://github.com/OpenZeppelin/openzeppelin-contracts/blob/v3.3.0/contracts/math/SafeMath.sol\":3838:3839  0 */\n      dup1\n        /* \"https://github.com/OpenZeppelin/openzeppelin-contracts/blob/v3.3.0/contracts/math/SafeMath.sol\":3834:3835  b */\n      dup4\n        /* \"https://github.com/OpenZeppelin/openzeppelin-contracts/blob/v3.3.0/contracts/math/SafeMath.sol\":3834:3839  b > 0 */\n      gt\n        /* \"https://github.com/OpenZeppelin/openzeppelin-contracts/blob/v3.3.0/contracts/math/SafeMath.sol\":3841:3853  errorMessage */\n      dup3\n        /* \"https://github.com/OpenZeppelin/openzeppelin-contracts/blob/v3.3.0/contracts/math/SafeMath.sol\":3826:3854  require(b > 0, errorMessage) */\n      swap1\n      tag_270\n      jumpi\n      mload(0x40)\n      0x08c379a000000000000000000000000000000000000000000000000000000000\n      dup2\n      mstore\n      0x04\n      add\n      dup1\n      dup1\n      0x20\n      add\n      dup3\n      dup2\n      sub\n      dup3\n      mstore\n      dup4\n      dup2\n      dup2\n      mload\n      dup2\n      mstore\n      0x20\n      add\n      swap2\n      pop\n      dup1\n      mload\n      swap1\n      0x20\n      add\n      swap1\n      dup1\n      dup4\n      dup4\n      0x00\n    tag_271:\n      dup4\n      dup2\n      lt\n      iszero\n      tag_273\n      jumpi\n      dup1\n      dup3\n      add\n      mload\n      dup2\n      dup5\n      add\n      mstore\n      0x20\n      dup2\n      add\n      swap1\n      pop\n      jump(tag_271)\n    tag_273:\n      pop\n      pop\n      pop\n      pop\n      swap1\n      pop\n      swap1\n      dup2\n      add\n      swap1\n      0x1f\n      and\n      dup1\n      iszero\n      tag_274\n      jumpi\n      dup1\n      dup3\n      sub\n      dup1\n      mload\n      0x01\n      dup4\n      0x20\n      sub\n      0x0100\n      exp\n      sub\n      not\n      and\n      dup2\n      mstore\n      0x20\n      add\n      swap2\n      pop\n    tag_274:\n      pop\n      swap3\n      pop\n      pop\n      pop\n      mload(0x40)\n      dup1\n      swap2\n      sub\n      swap1\n      revert\n    tag_270:\n      pop\n        /* \"https://github.com/OpenZeppelin/openzeppelin-contracts/blob/v3.3.0/contracts/math/SafeMath.sol\":3864:3873  uint256 c */\n      0x00\n        /* \"https://github.com/OpenZeppelin/openzeppelin-contracts/blob/v3.3.0/contracts/math/SafeMath.sol\":3880:3881  b */\n      dup4\n        /* \"https://github.com/OpenZeppelin/openzeppelin-contracts/blob/v3.3.0/contracts/math/SafeMath.sol\":3876:3877  a */\n      dup6\n        /* \"https://github.com/OpenZeppelin/openzeppelin-contracts/blob/v3.3.0/contracts/math/SafeMath.sol\":3876:3881  a / b */\n      dup2\n      tag_275\n      jumpi\n      invalid\n    tag_275:\n      div\n        /* \"https://github.com/OpenZeppelin/openzeppelin-contracts/blob/v3.3.0/contracts/math/SafeMath.sol\":3864:3881  uint256 c = a / b */\n      swap1\n      pop\n        /* \"https://github.com/OpenZeppelin/openzeppelin-contracts/blob/v3.3.0/contracts/math/SafeMath.sol\":3985:3986  c */\n      dup1\n        /* \"https://github.com/OpenZeppelin/openzeppelin-contracts/blob/v3.3.0/contracts/math/SafeMath.sol\":3978:3986  return c */\n      swap2\n      pop\n      pop\n        /* \"https://github.com/OpenZeppelin/openzeppelin-contracts/blob/v3.3.0/contracts/math/SafeMath.sol\":3721:3993  function div(uint256 a, uint256 b, string memory errorMessage) internal pure returns (uint256) {... */\n      swap4\n      swap3\n      pop\n      pop\n      pop\n      jump\t// out\n        /* \"https://github.com/OpenZeppelin/openzeppelin-contracts/blob/v3.3.0/contracts/math/SafeMath.sol\":1754:1941  function sub(uint256 a, uint256 b, string memory errorMessage) internal pure returns (uint256) {... */\n    tag_254:\n        /* \"https://github.com/OpenZeppelin/openzeppelin-contracts/blob/v3.3.0/contracts/math/SafeMath.sol\":1840:1847  uint256 */\n      0x00\n        /* \"https://github.com/OpenZeppelin/openzeppelin-contracts/blob/v3.3.0/contracts/math/SafeMath.sol\":1872:1873  a */\n      dup4\n        /* \"https://github.com/OpenZeppelin/openzeppelin-contracts/blob/v3.3.0/contracts/math/SafeMath.sol\":1867:1868  b */\n      dup4\n        /* \"https://github.com/OpenZeppelin/openzeppelin-contracts/blob/v3.3.0/contracts/math/SafeMath.sol\":1867:1873  b <= a */\n      gt\n      iszero\n        /* \"https://github.com/OpenZeppelin/openzeppelin-contracts/blob/v3.3.0/contracts/math/SafeMath.sol\":1875:1887  errorMessage */\n      dup3\n        /* \"https://github.com/OpenZeppelin/openzeppelin-contracts/blob/v3.3.0/contracts/math/SafeMath.sol\":1859:1888  require(b <= a, errorMessage) */\n      swap1\n      tag_277\n      jumpi\n      mload(0x40)\n      0x08c379a000000000000000000000000000000000000000000000000000000000\n      dup2\n      mstore\n      0x04\n      add\n      dup1\n      dup1\n      0x20\n      add\n      dup3\n      dup2\n      sub\n      dup3\n      mstore\n      dup4\n      dup2\n      dup2\n      mload\n      dup2\n      mstore\n      0x20\n      add\n      swap2\n      pop\n      dup1\n      mload\n      swap1\n      0x20\n      add\n      swap1\n      dup1\n      dup4\n      dup4\n      0x00\n    tag_278:\n      dup4\n      dup2\n      lt\n      iszero\n      tag_280\n      jumpi\n      dup1\n      dup3\n      add\n      mload\n      dup2\n      dup5\n      add\n      mstore\n      0x20\n      dup2\n      add\n      swap1\n      pop\n      jump(tag_278)\n    tag_280:\n      pop\n      pop\n      pop\n      pop\n      swap1\n      pop\n      swap1\n      dup2\n      add\n      swap1\n      0x1f\n      and\n      dup1\n      iszero\n      tag_281\n      jumpi\n      dup1\n      dup3\n      sub\n      dup1\n      mload\n      0x01\n      dup4\n      0x20\n      sub\n      0x0100\n      exp\n      sub\n      not\n      and\n      dup2\n      mstore\n      0x20\n      add\n      swap2\n      pop\n    tag_281:\n      pop\n      swap3\n      pop\n      pop\n      pop\n      mload(0x40)\n      dup1\n      swap2\n      sub\n      swap1\n      revert\n    tag_277:\n      pop\n        /* \"https://github.com/OpenZeppelin/openzeppelin-contracts/blob/v3.3.0/contracts/math/SafeMath.sol\":1898:1907  uint256 c */\n      0x00\n        /* \"https://github.com/OpenZeppelin/openzeppelin-contracts/blob/v3.3.0/contracts/math/SafeMath.sol\":1914:1915  b */\n      dup4\n        /* \"https://github.com/OpenZeppelin/openzeppelin-contracts/blob/v3.3.0/contracts/math/SafeMath.sol\":1910:1911  a */\n      dup6\n        /* \"https://github.com/OpenZeppelin/openzeppelin-contracts/blob/v3.3.0/contracts/math/SafeMath.sol\":1910:1915  a - b */\n      sub\n        /* \"https://github.com/OpenZeppelin/openzeppelin-contracts/blob/v3.3.0/contracts/math/SafeMath.sol\":1898:1915  uint256 c = a - b */\n      swap1\n      pop\n        /* \"https://github.com/OpenZeppelin/openzeppelin-contracts/blob/v3.3.0/contracts/math/SafeMath.sol\":1933:1934  c */\n      dup1\n        /* \"https://github.com/OpenZeppelin/openzeppelin-contracts/blob/v3.3.0/contracts/math/SafeMath.sol\":1926:1934  return c */\n      swap2\n      pop\n      pop\n        /* \"https://github.com/OpenZeppelin/openzeppelin-contracts/blob/v3.3.0/contracts/math/SafeMath.sol\":1754:1941  function sub(uint256 a, uint256 b, string memory errorMessage) internal pure returns (uint256) {... */\n      swap4\n      swap3\n      pop\n      pop\n      pop\n      jump\t// out\n        /* \"src/helpers/SafeBEP20.sol\":3564:4407  function _callOptionalReturn(IBEP20 token, bytes memory data) private {... */\n    tag_257:\n        /* \"src/helpers/SafeBEP20.sol\":3983:4006  bytes memory returndata */\n      0x60\n        /* \"src/helpers/SafeBEP20.sol\":4009:4112  address(token).functionCall(... */\n      tag_283\n        /* \"src/helpers/SafeBEP20.sol\":4050:4054  data */\n      dup3\n        /* \"src/helpers/SafeBEP20.sol\":4009:4112  address(token).functionCall(... */\n      mload(0x40)\n      dup1\n      0x40\n      add\n      0x40\n      mstore\n      dup1\n      0x20\n      dup2\n      mstore\n      0x20\n      add\n      0x5361666542455032303a206c6f772d6c6576656c2063616c6c206661696c6564\n      dup2\n      mstore\n      pop\n        /* \"src/helpers/SafeBEP20.sol\":4017:4022  token */\n      dup6\n        /* \"src/helpers/SafeBEP20.sol\":4009:4036  address(token).functionCall */\n      0xffffffffffffffffffffffffffffffffffffffff\n      and\n      tag_284\n      swap1\n        /* \"src/helpers/SafeBEP20.sol\":4009:4112  address(token).functionCall(... */\n      swap3\n      swap2\n      swap1\n      0xffffffff\n      and\n      jump\t// in\n    tag_283:\n        /* \"src/helpers/SafeBEP20.sol\":3983:4112  bytes memory returndata = address(token).functionCall(... */\n      swap1\n      pop\n        /* \"src/helpers/SafeBEP20.sol\":4146:4147  0 */\n      0x00\n        /* \"src/helpers/SafeBEP20.sol\":4126:4136  returndata */\n      dup2\n        /* \"src/helpers/SafeBEP20.sol\":4126:4143  returndata.length */\n      mload\n        /* \"src/helpers/SafeBEP20.sol\":4126:4147  returndata.length > 0 */\n      gt\n        /* \"src/helpers/SafeBEP20.sol\":4122:4401  if (returndata.length > 0) {... */\n      iszero\n      tag_285\n      jumpi\n        /* \"src/helpers/SafeBEP20.sol\":4295:4305  returndata */\n      dup1\n        /* \"src/helpers/SafeBEP20.sol\":4284:4314  abi.decode(returndata, (bool)) */\n      dup1\n      0x20\n      add\n      swap1\n      mload\n      0x20\n      dup2\n      lt\n      iszero\n      tag_286\n      jumpi\n      0x00\n      dup1\n      revert\n    tag_286:\n      dup2\n      add\n      swap1\n      dup1\n      dup1\n      mload\n      swap1\n      0x20\n      add\n      swap1\n      swap3\n      swap2\n      swap1\n      pop\n      pop\n      pop\n        /* \"src/helpers/SafeBEP20.sol\":4259:4390  require(... */\n      tag_287\n      jumpi\n      mload(0x40)\n      0x08c379a000000000000000000000000000000000000000000000000000000000\n      dup2\n      mstore\n      0x04\n      add\n      dup1\n      dup1\n      0x20\n      add\n      dup3\n      dup2\n      sub\n      dup3\n      mstore\n      0x2a\n      dup2\n      mstore\n      0x20\n      add\n      dup1\n      data_21c3364d55537bf20eb8f05374e9f53f47299e1883c412f1f1135f398f2c2082\n      0x2a\n      swap2\n      codecopy\n      0x40\n      add\n      swap2\n      pop\n      pop\n      mload(0x40)\n      dup1\n      swap2\n      sub\n      swap1\n      revert\n    tag_287:\n        /* \"src/helpers/SafeBEP20.sol\":4122:4401  if (returndata.length > 0) {... */\n    tag_285:\n        /* \"src/helpers/SafeBEP20.sol\":3564:4407  function _callOptionalReturn(IBEP20 token, bytes memory data) private {... */\n      pop\n      pop\n      pop\n      jump\t// out\n        /* \"https://github.com/OpenZeppelin/openzeppelin-contracts/blob/v3.3.0/contracts/utils/Address.sol\":3581:3774  function functionCall(address target, bytes memory data, string memory errorMessage) internal returns (bytes memory) {... */\n    tag_284:\n        /* \"https://github.com/OpenZeppelin/openzeppelin-contracts/blob/v3.3.0/contracts/utils/Address.sol\":3684:3696  bytes memory */\n      0x60\n        /* \"https://github.com/OpenZeppelin/openzeppelin-contracts/blob/v3.3.0/contracts/utils/Address.sol\":3715:3767  functionCallWithValue(target, data, 0, errorMessage) */\n      tag_289\n        /* \"https://github.com/OpenZeppelin/openzeppelin-contracts/blob/v3.3.0/contracts/utils/Address.sol\":3737:3743  target */\n      dup5\n        /* \"https://github.com/OpenZeppelin/openzeppelin-contracts/blob/v3.3.0/contracts/utils/Address.sol\":3745:3749  data */\n      dup5\n        /* \"https://github.com/OpenZeppelin/openzeppelin-contracts/blob/v3.3.0/contracts/utils/Address.sol\":3751:3752  0 */\n      0x00\n        /* \"https://github.com/OpenZeppelin/openzeppelin-contracts/blob/v3.3.0/contracts/utils/Address.sol\":3754:3766  errorMessage */\n      dup6\n        /* \"https://github.com/OpenZeppelin/openzeppelin-contracts/blob/v3.3.0/contracts/utils/Address.sol\":3715:3736  functionCallWithValue */\n      tag_290\n        /* \"https://github.com/OpenZeppelin/openzeppelin-contracts/blob/v3.3.0/contracts/utils/Address.sol\":3715:3767  functionCallWithValue(target, data, 0, errorMessage) */\n      jump\t// in\n    tag_289:\n        /* \"https://github.com/OpenZeppelin/openzeppelin-contracts/blob/v3.3.0/contracts/utils/Address.sol\":3708:3767  return functionCallWithValue(target, data, 0, errorMessage) */\n      swap1\n      pop\n        /* \"https://github.com/OpenZeppelin/openzeppelin-contracts/blob/v3.3.0/contracts/utils/Address.sol\":3581:3774  function functionCall(address target, bytes memory data, string memory errorMessage) internal returns (bytes memory) {... */\n      swap4\n      swap3\n      pop\n      pop\n      pop\n      jump\t// out\n        /* \"https://github.com/OpenZeppelin/openzeppelin-contracts/blob/v3.3.0/contracts/utils/Address.sol\":4608:5131  function functionCallWithValue(address target, bytes memory data, uint256 value, string memory errorMessage) internal returns (bytes memory) {... */\n    tag_290:\n        /* \"https://github.com/OpenZeppelin/openzeppelin-contracts/blob/v3.3.0/contracts/utils/Address.sol\":4735:4747  bytes memory */\n      0x60\n        /* \"https://github.com/OpenZeppelin/openzeppelin-contracts/blob/v3.3.0/contracts/utils/Address.sol\":4792:4797  value */\n      dup3\n        /* \"https://github.com/OpenZeppelin/openzeppelin-contracts/blob/v3.3.0/contracts/utils/Address.sol\":4767:4788  address(this).balance */\n      selfbalance\n        /* \"https://github.com/OpenZeppelin/openzeppelin-contracts/blob/v3.3.0/contracts/utils/Address.sol\":4767:4797  address(this).balance >= value */\n      lt\n      iszero\n        /* \"https://github.com/OpenZeppelin/openzeppelin-contracts/blob/v3.3.0/contracts/utils/Address.sol\":4759:4840  require(address(this).balance >= value, \"Address: insufficient balance for call\") */\n      tag_292\n      jumpi\n      mload(0x40)\n      0x08c379a000000000000000000000000000000000000000000000000000000000\n      dup2\n      mstore\n      0x04\n      add\n      dup1\n      dup1\n      0x20\n      add\n      dup3\n      dup2\n      sub\n      dup3\n      mstore\n      0x26\n      dup2\n      mstore\n      0x20\n      add\n      dup1\n      data_565f1a77334fc4792800921178c71e4521acffab18ff9e7885b49377ee80ab4c\n      0x26\n      swap2\n      codecopy\n      0x40\n      add\n      swap2\n      pop\n      pop\n      mload(0x40)\n      dup1\n      swap2\n      sub\n      swap1\n      revert\n    tag_292:\n        /* \"https://github.com/OpenZeppelin/openzeppelin-contracts/blob/v3.3.0/contracts/utils/Address.sol\":4858:4876  isContract(target) */\n      tag_293\n        /* \"https://github.com/OpenZeppelin/openzeppelin-contracts/blob/v3.3.0/contracts/utils/Address.sol\":4869:4875  target */\n      dup6\n        /* \"https://github.com/OpenZeppelin/openzeppelin-contracts/blob/v3.3.0/contracts/utils/Address.sol\":4858:4868  isContract */\n      tag_294\n        /* \"https://github.com/OpenZeppelin/openzeppelin-contracts/blob/v3.3.0/contracts/utils/Address.sol\":4858:4876  isContract(target) */\n      jump\t// in\n    tag_293:\n        /* \"https://github.com/OpenZeppelin/openzeppelin-contracts/blob/v3.3.0/contracts/utils/Address.sol\":4850:4910  require(isContract(target), \"Address: call to non-contract\") */\n      tag_295\n      jumpi\n      mload(0x40)\n      0x08c379a000000000000000000000000000000000000000000000000000000000\n      dup2\n      mstore\n      0x04\n      add\n      dup1\n      dup1\n      0x20\n      add\n      dup3\n      dup2\n      sub\n      dup3\n      mstore\n      0x1d\n      dup2\n      mstore\n      0x20\n      add\n      dup1\n      0x416464726573733a2063616c6c20746f206e6f6e2d636f6e7472616374000000\n      dup2\n      mstore\n      pop\n      0x20\n      add\n      swap2\n      pop\n      pop\n      mload(0x40)\n      dup1\n      swap2\n      sub\n      swap1\n      revert\n    tag_295:\n        /* \"https://github.com/OpenZeppelin/openzeppelin-contracts/blob/v3.3.0/contracts/utils/Address.sol\":4981:4993  bool success */\n      0x00\n        /* \"https://github.com/OpenZeppelin/openzeppelin-contracts/blob/v3.3.0/contracts/utils/Address.sol\":4995:5018  bytes memory returndata */\n      0x60\n        /* \"https://github.com/OpenZeppelin/openzeppelin-contracts/blob/v3.3.0/contracts/utils/Address.sol\":5022:5028  target */\n      dup7\n        /* \"https://github.com/OpenZeppelin/openzeppelin-contracts/blob/v3.3.0/contracts/utils/Address.sol\":5022:5033  target.call */\n      0xffffffffffffffffffffffffffffffffffffffff\n      and\n        /* \"https://github.com/OpenZeppelin/openzeppelin-contracts/blob/v3.3.0/contracts/utils/Address.sol\":5042:5047  value */\n      dup6\n        /* \"https://github.com/OpenZeppelin/openzeppelin-contracts/blob/v3.3.0/contracts/utils/Address.sol\":5050:5054  data */\n      dup8\n        /* \"https://github.com/OpenZeppelin/openzeppelin-contracts/blob/v3.3.0/contracts/utils/Address.sol\":5022:5055  target.call{ value: value }(data) */\n      mload(0x40)\n      dup1\n      dup3\n      dup1\n      mload\n      swap1\n      0x20\n      add\n      swap1\n      dup1\n      dup4\n      dup4\n    tag_296:\n      0x20\n      dup4\n      lt\n      tag_298\n      jumpi\n      dup1\n      mload\n      dup3\n      mstore\n      0x20\n      dup3\n      add\n      swap2\n      pop\n      0x20\n      dup2\n      add\n      swap1\n      pop\n      0x20\n      dup4\n      sub\n      swap3\n      pop\n      jump(tag_296)\n    tag_298:\n      0x01\n      dup4\n      0x20\n      sub\n      0x0100\n      exp\n      sub\n      dup1\n      not\n      dup3\n      mload\n      and\n      dup2\n      dup5\n      mload\n      and\n      dup1\n      dup3\n      or\n      dup6\n      mstore\n      pop\n      pop\n      pop\n      pop\n      pop\n      pop\n      swap1\n      pop\n      add\n      swap2\n      pop\n      pop\n      0x00\n      mload(0x40)\n      dup1\n      dup4\n      sub\n      dup2\n      dup6\n      dup8\n      gas\n      call\n      swap3\n      pop\n      pop\n      pop\n      returndatasize\n      dup1\n      0x00\n      dup2\n      eq\n      tag_301\n      jumpi\n      mload(0x40)\n      swap2\n      pop\n      and(add(returndatasize, 0x3f), not(0x1f))\n      dup3\n      add\n      0x40\n      mstore\n      returndatasize\n      dup3\n      mstore\n      returndatasize\n      0x00\n      0x20\n      dup5\n      add\n      returndatacopy\n      jump(tag_300)\n    tag_301:\n      0x60\n      swap2\n      pop\n    tag_300:\n      pop\n        /* \"https://github.com/OpenZeppelin/openzeppelin-contracts/blob/v3.3.0/contracts/utils/Address.sol\":4980:5055  (bool success, bytes memory returndata) = target.call{ value: value }(data) */\n      swap2\n      pop\n      swap2\n      pop\n        /* \"https://github.com/OpenZeppelin/openzeppelin-contracts/blob/v3.3.0/contracts/utils/Address.sol\":5072:5124  _verifyCallResult(success, returndata, errorMessage) */\n      tag_302\n        /* \"https://github.com/OpenZeppelin/openzeppelin-contracts/blob/v3.3.0/contracts/utils/Address.sol\":5090:5097  success */\n      dup3\n        /* \"https://github.com/OpenZeppelin/openzeppelin-contracts/blob/v3.3.0/contracts/utils/Address.sol\":5099:5109  returndata */\n      dup3\n        /* \"https://github.com/OpenZeppelin/openzeppelin-contracts/blob/v3.3.0/contracts/utils/Address.sol\":5111:5123  errorMessage */\n      dup7\n        /* \"https://github.com/OpenZeppelin/openzeppelin-contracts/blob/v3.3.0/contracts/utils/Address.sol\":5072:5089  _verifyCallResult */\n      tag_303\n        /* \"https://github.com/OpenZeppelin/openzeppelin-contracts/blob/v3.3.0/contracts/utils/Address.sol\":5072:5124  _verifyCallResult(success, returndata, errorMessage) */\n      jump\t// in\n    tag_302:\n        /* \"https://github.com/OpenZeppelin/openzeppelin-contracts/blob/v3.3.0/contracts/utils/Address.sol\":5065:5124  return _verifyCallResult(success, returndata, errorMessage) */\n      swap3\n      pop\n      pop\n      pop\n        /* \"https://github.com/OpenZeppelin/openzeppelin-contracts/blob/v3.3.0/contracts/utils/Address.sol\":4608:5131  function functionCallWithValue(address target, bytes memory data, uint256 value, string memory errorMessage) internal returns (bytes memory) {... */\n      swap5\n      swap4\n      pop\n      pop\n      pop\n      pop\n      jump\t// out\n        /* \"https://github.com/OpenZeppelin/openzeppelin-contracts/blob/v3.3.0/contracts/utils/Address.sol\":726:1139  function isContract(address account) internal view returns (bool) {... */\n    tag_294:\n        /* \"https://github.com/OpenZeppelin/openzeppelin-contracts/blob/v3.3.0/contracts/utils/Address.sol\":786:790  bool */\n      0x00\n        /* \"https://github.com/OpenZeppelin/openzeppelin-contracts/blob/v3.3.0/contracts/utils/Address.sol\":989:1001  uint256 size */\n      dup1\n        /* \"https://github.com/OpenZeppelin/openzeppelin-contracts/blob/v3.3.0/contracts/utils/Address.sol\":1098:1105  account */\n      dup3\n        /* \"https://github.com/OpenZeppelin/openzeppelin-contracts/blob/v3.3.0/contracts/utils/Address.sol\":1086:1106  extcodesize(account) */\n      extcodesize\n        /* \"https://github.com/OpenZeppelin/openzeppelin-contracts/blob/v3.3.0/contracts/utils/Address.sol\":1078:1106  size := extcodesize(account) */\n      swap1\n      pop\n        /* \"https://github.com/OpenZeppelin/openzeppelin-contracts/blob/v3.3.0/contracts/utils/Address.sol\":1131:1132  0 */\n      0x00\n        /* \"https://github.com/OpenZeppelin/openzeppelin-contracts/blob/v3.3.0/contracts/utils/Address.sol\":1124:1128  size */\n      dup2\n        /* \"https://github.com/OpenZeppelin/openzeppelin-contracts/blob/v3.3.0/contracts/utils/Address.sol\":1124:1132  size > 0 */\n      gt\n        /* \"https://github.com/OpenZeppelin/openzeppelin-contracts/blob/v3.3.0/contracts/utils/Address.sol\":1117:1132  return size > 0 */\n      swap2\n      pop\n      pop\n        /* \"https://github.com/OpenZeppelin/openzeppelin-contracts/blob/v3.3.0/contracts/utils/Address.sol\":726:1139  function isContract(address account) internal view returns (bool) {... */\n      swap2\n      swap1\n      pop\n      jump\t// out\n        /* \"https://github.com/OpenZeppelin/openzeppelin-contracts/blob/v3.3.0/contracts/utils/Address.sol\":6111:6836  function _verifyCallResult(bool success, bytes memory returndata, string memory errorMessage) private pure returns(bytes memory) {... */\n    tag_303:\n        /* \"https://github.com/OpenZeppelin/openzeppelin-contracts/blob/v3.3.0/contracts/utils/Address.sol\":6226:6238  bytes memory */\n      0x60\n        /* \"https://github.com/OpenZeppelin/openzeppelin-contracts/blob/v3.3.0/contracts/utils/Address.sol\":6254:6261  success */\n      dup4\n        /* \"https://github.com/OpenZeppelin/openzeppelin-contracts/blob/v3.3.0/contracts/utils/Address.sol\":6250:6830  if (success) {... */\n      iszero\n      tag_306\n      jumpi\n        /* \"https://github.com/OpenZeppelin/openzeppelin-contracts/blob/v3.3.0/contracts/utils/Address.sol\":6284:6294  returndata */\n      dup3\n        /* \"https://github.com/OpenZeppelin/openzeppelin-contracts/blob/v3.3.0/contracts/utils/Address.sol\":6277:6294  return returndata */\n      swap1\n      pop\n      jump(tag_305)\n        /* \"https://github.com/OpenZeppelin/openzeppelin-contracts/blob/v3.3.0/contracts/utils/Address.sol\":6250:6830  if (success) {... */\n    tag_306:\n        /* \"https://github.com/OpenZeppelin/openzeppelin-contracts/blob/v3.3.0/contracts/utils/Address.sol\":6415:6416  0 */\n      0x00\n        /* \"https://github.com/OpenZeppelin/openzeppelin-contracts/blob/v3.3.0/contracts/utils/Address.sol\":6395:6405  returndata */\n      dup4\n        /* \"https://github.com/OpenZeppelin/openzeppelin-contracts/blob/v3.3.0/contracts/utils/Address.sol\":6395:6412  returndata.length */\n      mload\n        /* \"https://github.com/OpenZeppelin/openzeppelin-contracts/blob/v3.3.0/contracts/utils/Address.sol\":6395:6416  returndata.length > 0 */\n      gt\n        /* \"https://github.com/OpenZeppelin/openzeppelin-contracts/blob/v3.3.0/contracts/utils/Address.sol\":6391:6820  if (returndata.length > 0) {... */\n      iszero\n      tag_308\n      jumpi\n        /* \"https://github.com/OpenZeppelin/openzeppelin-contracts/blob/v3.3.0/contracts/utils/Address.sol\":6653:6663  returndata */\n      dup3\n        /* \"https://github.com/OpenZeppelin/openzeppelin-contracts/blob/v3.3.0/contracts/utils/Address.sol\":6647:6664  mload(returndata) */\n      mload\n        /* \"https://github.com/OpenZeppelin/openzeppelin-contracts/blob/v3.3.0/contracts/utils/Address.sol\":6713:6728  returndata_size */\n      dup1\n        /* \"https://github.com/OpenZeppelin/openzeppelin-contracts/blob/v3.3.0/contracts/utils/Address.sol\":6700:6710  returndata */\n      dup5\n        /* \"https://github.com/OpenZeppelin/openzeppelin-contracts/blob/v3.3.0/contracts/utils/Address.sol\":6696:6698  32 */\n      0x20\n        /* \"https://github.com/OpenZeppelin/openzeppelin-contracts/blob/v3.3.0/contracts/utils/Address.sol\":6692:6711  add(32, returndata) */\n      add\n        /* \"https://github.com/OpenZeppelin/openzeppelin-contracts/blob/v3.3.0/contracts/utils/Address.sol\":6685:6729  revert(add(32, returndata), returndata_size) */\n      revert\n        /* \"https://github.com/OpenZeppelin/openzeppelin-contracts/blob/v3.3.0/contracts/utils/Address.sol\":6602:6747  {... */\n    tag_308:\n        /* \"https://github.com/OpenZeppelin/openzeppelin-contracts/blob/v3.3.0/contracts/utils/Address.sol\":6792:6804  errorMessage */\n      dup2\n        /* \"https://github.com/OpenZeppelin/openzeppelin-contracts/blob/v3.3.0/contracts/utils/Address.sol\":6785:6805  revert(errorMessage) */\n      mload(0x40)\n      0x08c379a000000000000000000000000000000000000000000000000000000000\n      dup2\n      mstore\n      0x04\n      add\n      dup1\n      dup1\n      0x20\n      add\n      dup3\n      dup2\n      sub\n      dup3\n      mstore\n      dup4\n      dup2\n      dup2\n      mload\n      dup2\n      mstore\n      0x20\n      add\n      swap2\n      pop\n      dup1\n      mload\n      swap1\n      0x20\n      add\n      swap1\n      dup1\n      dup4\n      dup4\n      0x00\n    tag_310:\n      dup4\n      dup2\n      lt\n      iszero\n      tag_312\n      jumpi\n      dup1\n      dup3\n      add\n      mload\n      dup2\n      dup5\n      add\n      mstore\n      0x20\n      dup2\n      add\n      swap1\n      pop\n      jump(tag_310)\n    tag_312:\n      pop\n      pop\n      pop\n      pop\n      swap1\n      pop\n      swap1\n      dup2\n      add\n      swap1\n      0x1f\n      and\n      dup1\n      iszero\n      tag_313\n      jumpi\n      dup1\n      dup3\n      sub\n      dup1\n      mload\n      0x01\n      dup4\n      0x20\n      sub\n      0x0100\n      exp\n      sub\n      not\n      and\n      dup2\n      mstore\n      0x20\n      add\n      swap2\n      pop\n    tag_313:\n      pop\n      swap3\n      pop\n      pop\n      pop\n      mload(0x40)\n      dup1\n      swap2\n      sub\n      swap1\n      revert\n        /* \"https://github.com/OpenZeppelin/openzeppelin-contracts/blob/v3.3.0/contracts/utils/Address.sol\":6111:6836  function _verifyCallResult(bool success, bytes memory returndata, string memory errorMessage) private pure returns(bytes memory) {... */\n    tag_305:\n      swap4\n      swap3\n      pop\n      pop\n      pop\n      jump\t// out\n    stop\n    data_21c3364d55537bf20eb8f05374e9f53f47299e1883c412f1f1135f398f2c2082 5361666542455032303a204245503230206f7065726174696f6e20646964206e6f742073756363656564\n    data_245f15ff17f551913a7a18385165551503906a406f905ac1c2437281a7cd0cfe 4f776e61626c653a206e6577206f776e657220697320746865207a65726f2061646472657373\n    data_55e8b512461165150226d7fb62af16288a660c0fc1f35821ba4ad8ad658a0bb0 4e6577207374617274426c6f636b206d757374206265206c6f776572207468616e206e657720656e64426c6f636b\n    data_565f1a77334fc4792800921178c71e4521acffab18ff9e7885b49377ee80ab4c 416464726573733a20696e73756666696369656e742062616c616e636520666f722063616c6c\n    data_8ddaf6510efec06eaa5007f0744244862092545bc763e566e2661c53c8ff3a7e 4e6577207374617274426c6f636b206d75737420626520686967686572207468616e2063757272656e7420626c6f636b\n    data_9113bb53c2876a3805b2c9242029423fc540a728243ce887ab24c82cf119fba3 536166654d6174683a206d756c7469706c69636174696f6e206f766572666c6f77\n\n    auxdata: 0xa26469706673582212206868eda0ccd5ed1a68341a59ebe18e8d972df73b3933f4271ea30e48a772b54e64736f6c634300060c0033\n}\n",
				"bytecode": {
					"linkReferences": {},
					"object": "608060405234801561001057600080fd5b50600061002161010c60201b60201c565b9050806000806101000a81548173ffffffffffffffffffffffffffffffffffffffff021916908373ffffffffffffffffffffffffffffffffffffffff1602179055508073ffffffffffffffffffffffffffffffffffffffff16600073ffffffffffffffffffffffffffffffffffffffff167f8be0079c531659141344cd1fd0a4f28419497f9722a3daafe3b4186f6b6457e060405160405180910390a3506001808190555033600260006101000a81548173ffffffffffffffffffffffffffffffffffffffff021916908373ffffffffffffffffffffffffffffffffffffffff160217905550610114565b600033905090565b612d5f80620001246000396000f3fe608060405234801561001057600080fd5b50600436106101da5760003560e01c80638ae39cac11610104578063b6b55f25116100a2578063f2fde38b11610071578063f2fde38b1461066a578063f36cc893146106ae578063f40f0f52146106cc578063f7c618c114610724576101da565b8063b6b55f25146105e0578063cc7a262e1461060e578063ccd34cd514610642578063db2e21bc14610660576101da565b806392e8990e116100de57806392e8990e146105305780639513997f14610550578063a0b4090514610588578063a9f8d181146105c2576101da565b80638ae39cac146104c05780638da5cb5b146104de5780638f66291514610512576101da565b80633f138d4b1161017c578063715018a61161014b578063715018a6146103e257806380dc0672146103ec57806383a5041c146103f6578063879d9090146104a2576101da565b80633f138d4b1461032457806348cd4cb114610372578063514f4a421461039057806366fe9f8a146103c4576101da565b80632de68155116101b85780632de681551461028a5780632e1a7d4d146102a85780633279beab146102d6578063392e53cd14610304576101da565b806301f8a976146101df5780631959a0021461020d5780631aed65531461026c575b600080fd5b61020b600480360360208110156101f557600080fd5b8101908080359060200190929190505050610758565b005b61024f6004803603602081101561022357600080fd5b81019080803573ffffffffffffffffffffffffffffffffffffffff169060200190929190505050610861565b604051808381526020018281526020019250505060405180910390f35b610274610885565b6040518082815260200191505060405180910390f35b61029261088b565b6040518082815260200191505060405180910390f35b6102d4600480360360208110156102be57600080fd5b8101908080359060200190929190505050610895565b005b610302600480360360208110156102ec57600080fd5b8101908080359060200190929190505050610b8e565b005b61030c610cba565b60405180821515815260200191505060405180910390f35b6103706004803603604081101561033a57600080fd5b81019080803573ffffffffffffffffffffffffffffffffffffffff16906020019092919080359060200190929190505050610ccd565b005b61037a610edd565b6040518082815260200191505060405180910390f35b610398610ee3565b604051808273ffffffffffffffffffffffffffffffffffffffff16815260200191505060405180910390f35b6103cc610f09565b6040518082815260200191505060405180910390f35b6103ea610f0f565b005b6103f4611095565b005b6104a0600480360360e081101561040c57600080fd5b81019080803573ffffffffffffffffffffffffffffffffffffffff169060200190929190803573ffffffffffffffffffffffffffffffffffffffff16906020019092919080359060200190929190803590602001909291908035906020019092919080359060200190929190803573ffffffffffffffffffffffffffffffffffffffff169060200190929190505050611166565b005b6104aa6114e3565b6040518082815260200191505060405180910390f35b6104c86115b2565b6040518082815260200191505060405180910390f35b6104e66115b8565b604051808273ffffffffffffffffffffffffffffffffffffffff16815260200191505060405180910390f35b61051a6115e1565b6040518082815260200191505060405180910390f35b6105386115e7565b60405180821515815260200191505060405180910390f35b6105866004803603604081101561056657600080fd5b8101908080359060200190929190803590602001909291905050506115fa565b005b6105c06004803603604081101561059e57600080fd5b8101908080351515906020019092919080359060200190929190505050611843565b005b6105ca611a76565b6040518082815260200191505060405180910390f35b61060c600480360360208110156105f657600080fd5b8101908080359060200190929190505050611a7c565b005b610616611daf565b604051808273ffffffffffffffffffffffffffffffffffffffff16815260200191505060405180910390f35b61064a611dd5565b6040518082815260200191505060405180910390f35b610668611ddb565b005b6106ac6004803603602081101561068057600080fd5b81019080803573ffffffffffffffffffffffffffffffffffffffff169060200190929190505050611f80565b005b6106b661218b565b6040518082815260200191505060405180910390f35b61070e600480360360208110156106e257600080fd5b81019080803573ffffffffffffffffffffffffffffffffffffffff169060200190929190505050612191565b6040518082815260200191505060405180910390f35b61072c6122f5565b604051808273ffffffffffffffffffffffffffffffffffffffff16815260200191505060405180910390f35b61076061231b565b73ffffffffffffffffffffffffffffffffffffffff1660008054906101000a900473ffffffffffffffffffffffffffffffffffffffff1673ffffffffffffffffffffffffffffffffffffffff1614610820576040517f08c379a00000000000000000000000000000000000000000000000000000000081526004018080602001828103825260208152602001807f4f776e61626c653a2063616c6c6572206973206e6f7420746865206f776e657281525060200191505060405180910390fd5b806009819055507f0c4d677eef92893ac7ec52faf8140fc6c851ab4736302b4f3a89dfb20696a0df816040518082815260200191505060405180910390a150565b600d6020528060005260406000206000915090508060000154908060010154905082565b60055481565b6000600454905090565b6002600154141561090e576040517f08c379a000000000000000000000000000000000000000000000000000000000815260040180806020018281038252601f8152602001807f5265656e7472616e637947756172643a207265656e7472616e742063616c6c0081525060200191505060405180910390fd5b60026001819055506000600d60003373ffffffffffffffffffffffffffffffffffffffff1673ffffffffffffffffffffffffffffffffffffffff168152602001908152602001600020905081816000015410156109d3576040517f08c379a000000000000000000000000000000000000000000000000000000000815260040180806020018281038252601b8152602001807f416d6f756e7420746f20776974686472617720746f6f2068696768000000000081525060200191505060405180910390fd5b816004600082825403925050819055506109eb612323565b6000610a308260010154610a22600a54610a1460035487600001546123c590919063ffffffff16565b61244b90919063ffffffff16565b61249590919063ffffffff16565b90506000831115610aa857610a5283836000015461249590919063ffffffff16565b8260000181905550610aa73384600c60009054906101000a900473ffffffffffffffffffffffffffffffffffffffff1673ffffffffffffffffffffffffffffffffffffffff166124df9092919063ffffffff16565b5b6000811115610aff57610afe3382600b60009054906101000a900473ffffffffffffffffffffffffffffffffffffffff1673ffffffffffffffffffffffffffffffffffffffff166124df9092919063ffffffff16565b5b610b2c600a54610b1e60035485600001546123c590919063ffffffff16565b61244b90919063ffffffff16565b82600101819055503373ffffffffffffffffffffffffffffffffffffffff167f884edad9ce6fa2440d8a54cc123490eb96d2768479d49ff9c7366125a9424364846040518082815260200191505060405180910390a250506001808190555050565b610b9661231b565b73ffffffffffffffffffffffffffffffffffffffff1660008054906101000a900473ffffffffffffffffffffffffffffffffffffffff1673ffffffffffffffffffffffffffffffffffffffff1614610c56576040517f08c379a00000000000000000000000000000000000000000000000000000000081526004018080602001828103825260208152602001807f4f776e61626c653a2063616c6c6572206973206e6f7420746865206f776e657281525060200191505060405180910390fd5b610c5e6114e3565b811115610c6a57600080fd5b610cb73382600b60009054906101000a900473ffffffffffffffffffffffffffffffffffffffff1673ffffffffffffffffffffffffffffffffffffffff166124df9092919063ffffffff16565b50565b600260159054906101000a900460ff1681565b610cd561231b565b73ffffffffffffffffffffffffffffffffffffffff1660008054906101000a900473ffffffffffffffffffffffffffffffffffffffff1673ffffffffffffffffffffffffffffffffffffffff1614610d95576040517f08c379a00000000000000000000000000000000000000000000000000000000081526004018080602001828103825260208152602001807f4f776e61626c653a2063616c6c6572206973206e6f7420746865206f776e657281525060200191505060405180910390fd5b600c60009054906101000a900473ffffffffffffffffffffffffffffffffffffffff1673ffffffffffffffffffffffffffffffffffffffff168273ffffffffffffffffffffffffffffffffffffffff161415610e59576040517f08c379a00000000000000000000000000000000000000000000000000000000081526004018080602001828103825260168152602001807f43616e6e6f74206265207374616b656420746f6b656e0000000000000000000081525060200191505060405180910390fd5b610e8433828473ffffffffffffffffffffffffffffffffffffffff166124df9092919063ffffffff16565b7f74545154aac348a3eac92596bd1971957ca94795f4e954ec5f613b55fab781298282604051808373ffffffffffffffffffffffffffffffffffffffff1681526020018281526020019250505060405180910390a15050565b60065481565b600260009054906101000a900473ffffffffffffffffffffffffffffffffffffffff1681565b60085481565b610f1761231b565b73ffffffffffffffffffffffffffffffffffffffff1660008054906101000a900473ffffffffffffffffffffffffffffffffffffffff1673ffffffffffffffffffffffffffffffffffffffff1614610fd7576040517f08c379a00000000000000000000000000000000000000000000000000000000081526004018080602001828103825260208152602001807f4f776e61626c653a2063616c6c6572206973206e6f7420746865206f776e657281525060200191505060405180910390fd5b600073ffffffffffffffffffffffffffffffffffffffff1660008054906101000a900473ffffffffffffffffffffffffffffffffffffffff1673ffffffffffffffffffffffffffffffffffffffff167f8be0079c531659141344cd1fd0a4f28419497f9722a3daafe3b4186f6b6457e060405160405180910390a360008060006101000a81548173ffffffffffffffffffffffffffffffffffffffff021916908373ffffffffffffffffffffffffffffffffffffffff160217905550565b61109d61231b565b73ffffffffffffffffffffffffffffffffffffffff1660008054906101000a900473ffffffffffffffffffffffffffffffffffffffff1673ffffffffffffffffffffffffffffffffffffffff161461115d576040517f08c379a00000000000000000000000000000000000000000000000000000000081526004018080602001828103825260208152602001807f4f776e61626c653a2063616c6c6572206973206e6f7420746865206f776e657281525060200191505060405180910390fd5b43600581905550565b600260159054906101000a900460ff16156111e9576040517f08c379a00000000000000000000000000000000000000000000000000000000081526004018080602001828103825260138152602001807f416c726561647920696e697469616c697a65640000000000000000000000000081525060200191505060405180910390fd5b600260009054906101000a900473ffffffffffffffffffffffffffffffffffffffff1673ffffffffffffffffffffffffffffffffffffffff163373ffffffffffffffffffffffffffffffffffffffff16146112ac576040517f08c379a000000000000000000000000000000000000000000000000000000000815260040180806020018281038252600b8152602001807f4e6f7420666163746f727900000000000000000000000000000000000000000081525060200191505060405180910390fd5b6001600260156101000a81548160ff02191690831515021790555086600c60006101000a81548173ffffffffffffffffffffffffffffffffffffffff021916908373ffffffffffffffffffffffffffffffffffffffff16021790555085600b60006101000a81548173ffffffffffffffffffffffffffffffffffffffff021916908373ffffffffffffffffffffffffffffffffffffffff160217905550846009819055508360068190555082600581905550600082111561138a576001600260146101000a81548160ff021916908315150217905550816008819055505b6000600b60009054906101000a900473ffffffffffffffffffffffffffffffffffffffff1673ffffffffffffffffffffffffffffffffffffffff1663313ce5676040518163ffffffff1660e01b815260040160206040518083038186803b1580156113f457600080fd5b505afa158015611408573d6000803e3d6000fd5b505050506040513d602081101561141e57600080fd5b810190808051906020019092919050505060ff169050601e81106114aa576040517f08c379a00000000000000000000000000000000000000000000000000000000081526004018080602001828103825260168152602001807f4d75737420626520696e666572696f7220746f2033300000000000000000000081525060200191505060405180910390fd5b6114be81601e61249590919063ffffffff16565b600a0a600a819055506006546007819055506114d982611f80565b5050505050505050565b6000600454600c60009054906101000a900473ffffffffffffffffffffffffffffffffffffffff1673ffffffffffffffffffffffffffffffffffffffff166370a08231306040518263ffffffff1660e01b8152600401808273ffffffffffffffffffffffffffffffffffffffff16815260200191505060206040518083038186803b15801561157157600080fd5b505afa158015611585573d6000803e3d6000fd5b505050506040513d602081101561159b57600080fd5b810190808051906020019092919050505003905090565b60095481565b60008060009054906101000a900473ffffffffffffffffffffffffffffffffffffffff16905090565b60035481565b600260149054906101000a900460ff1681565b61160261231b565b73ffffffffffffffffffffffffffffffffffffffff1660008054906101000a900473ffffffffffffffffffffffffffffffffffffffff1673ffffffffffffffffffffffffffffffffffffffff16146116c2576040517f08c379a00000000000000000000000000000000000000000000000000000000081526004018080602001828103825260208152602001807f4f776e61626c653a2063616c6c6572206973206e6f7420746865206f776e657281525060200191505060405180910390fd5b6006544310611739576040517f08c379a00000000000000000000000000000000000000000000000000000000081526004018080602001828103825260108152602001807f506f6f6c2068617320737461727465640000000000000000000000000000000081525060200191505060405180910390fd5b808210611791576040517f08c379a000000000000000000000000000000000000000000000000000000000815260040180806020018281038252602e815260200180612c85602e913960400191505060405180910390fd5b8143106117e9576040517f08c379a0000000000000000000000000000000000000000000000000000000008152600401808060200182810382526030815260200180612cd96030913960400191505060405180910390fd5b81600681905550806005819055506006546007819055507f7cd0ab87d19036f3dfadadb232c78aa4879dda3f0c994a9d637532410ee2ce068282604051808381526020018281526020019250505060405180910390a15050565b61184b61231b565b73ffffffffffffffffffffffffffffffffffffffff1660008054906101000a900473ffffffffffffffffffffffffffffffffffffffff1673ffffffffffffffffffffffffffffffffffffffff161461190b576040517f08c379a00000000000000000000000000000000000000000000000000000000081526004018080602001828103825260208152602001807f4f776e61626c653a2063616c6c6572206973206e6f7420746865206f776e657281525060200191505060405180910390fd5b600260149054906101000a900460ff1661198d576040517f08c379a000000000000000000000000000000000000000000000000000000000815260040180806020018281038252600b8152602001807f4d7573742062652073657400000000000000000000000000000000000000000081525060200191505060405180910390fd5b8115611a16576008548111611a0a576040517f08c379a00000000000000000000000000000000000000000000000000000000081526004018080602001828103825260188152602001807f4e6577206c696d6974206d75737420626520686967686572000000000000000081525060200191505060405180910390fd5b80600881905550611a39565b81600260146101000a81548160ff02191690831515021790555060006008819055505b7f241f67ee5f41b7a5cabf911367329be7215900f602ebfc47f89dce2a6bcd847c6008546040518082815260200191505060405180910390a15050565b60075481565b60026001541415611af5576040517f08c379a000000000000000000000000000000000000000000000000000000000815260040180806020018281038252601f8152602001807f5265656e7472616e637947756172643a207265656e7472616e742063616c6c0081525060200191505060405180910390fd5b60026001819055506000600d60003373ffffffffffffffffffffffffffffffffffffffff1673ffffffffffffffffffffffffffffffffffffffff1681526020019081526020016000209050600260149054906101000a900460ff1615611be457600854611b6f82600001548461258190919063ffffffff16565b1115611be3576040517f08c379a00000000000000000000000000000000000000000000000000000000081526004018080602001828103825260178152602001807f5573657220616d6f756e742061626f7665206c696d697400000000000000000081525060200191505060405180910390fd5b5b81600460008282540192505081905550611bfc612323565b600081600001541115611ca9576000611c4e8260010154611c40600a54611c3260035487600001546123c590919063ffffffff16565b61244b90919063ffffffff16565b61249590919063ffffffff16565b90506000811115611ca757611ca63382600b60009054906101000a900473ffffffffffffffffffffffffffffffffffffffff1673ffffffffffffffffffffffffffffffffffffffff166124df9092919063ffffffff16565b5b505b6000821115611d2157611cc982826000015461258190919063ffffffff16565b8160000181905550611d20333084600c60009054906101000a900473ffffffffffffffffffffffffffffffffffffffff1673ffffffffffffffffffffffffffffffffffffffff16612609909392919063ffffffff16565b5b611d4e600a54611d4060035484600001546123c590919063ffffffff16565b61244b90919063ffffffff16565b81600101819055503373ffffffffffffffffffffffffffffffffffffffff167fe1fffcc4923d04b559f4d29a8bfc6cda04eb5b0d3c460751c2402c5c5cc9109c836040518082815260200191505060405180910390a2506001808190555050565b600c60009054906101000a900473ffffffffffffffffffffffffffffffffffffffff1681565b600a5481565b60026001541415611e54576040517f08c379a000000000000000000000000000000000000000000000000000000000815260040180806020018281038252601f8152602001807f5265656e7472616e637947756172643a207265656e7472616e742063616c6c0081525060200191505060405180910390fd5b60026001819055506000600d60003373ffffffffffffffffffffffffffffffffffffffff1673ffffffffffffffffffffffffffffffffffffffff168152602001908152602001600020905060008160000154905060008260000181905550600082600101819055506000811115611f2357611f123382600c60009054906101000a900473ffffffffffffffffffffffffffffffffffffffff1673ffffffffffffffffffffffffffffffffffffffff166124df9092919063ffffffff16565b806004600082825403925050819055505b3373ffffffffffffffffffffffffffffffffffffffff167f5fafa99d0643513820be26656b45130b01e1c03062e1266bf36f88cbd3bd969583600001546040518082815260200191505060405180910390a2505060018081905550565b611f8861231b565b73ffffffffffffffffffffffffffffffffffffffff1660008054906101000a900473ffffffffffffffffffffffffffffffffffffffff1673ffffffffffffffffffffffffffffffffffffffff1614612048576040517f08c379a00000000000000000000000000000000000000000000000000000000081526004018080602001828103825260208152602001807f4f776e61626c653a2063616c6c6572206973206e6f7420746865206f776e657281525060200191505060405180910390fd5b600073ffffffffffffffffffffffffffffffffffffffff168173ffffffffffffffffffffffffffffffffffffffff1614156120ce576040517f08c379a0000000000000000000000000000000000000000000000000000000008152600401808060200182810382526026815260200180612c5f6026913960400191505060405180910390fd5b8073ffffffffffffffffffffffffffffffffffffffff1660008054906101000a900473ffffffffffffffffffffffffffffffffffffffff1673ffffffffffffffffffffffffffffffffffffffff167f8be0079c531659141344cd1fd0a4f28419497f9722a3daafe3b4186f6b6457e060405160405180910390a3806000806101000a81548173ffffffffffffffffffffffffffffffffffffffff021916908373ffffffffffffffffffffffffffffffffffffffff16021790555050565b60045481565b600080600d60008473ffffffffffffffffffffffffffffffffffffffff1673ffffffffffffffffffffffffffffffffffffffff168152602001908152602001600020905060006004549050600754431180156121ee575060008114155b156122a8576000612201600754436126ca565b9050600061221a600954836123c590919063ffffffff16565b905060006122596122488561223a600a54866123c590919063ffffffff16565b61244b90919063ffffffff16565b60035461258190919063ffffffff16565b905061229c856001015461228e600a54612280858a600001546123c590919063ffffffff16565b61244b90919063ffffffff16565b61249590919063ffffffff16565b955050505050506122f0565b6122eb82600101546122dd600a546122cf60035487600001546123c590919063ffffffff16565b61244b90919063ffffffff16565b61249590919063ffffffff16565b925050505b919050565b600b60009054906101000a900473ffffffffffffffffffffffffffffffffffffffff1681565b600033905090565b6007544311612331576123c3565b60006004549050600081141561234e5743600781905550506123c3565b600061235c600754436126ca565b90506000612375600954836123c590919063ffffffff16565b90506123b26123a184612393600a54856123c590919063ffffffff16565b61244b90919063ffffffff16565b60035461258190919063ffffffff16565b600381905550436007819055505050505b565b6000808314156123d85760009050612445565b60008284029050828482816123e957fe5b0414612440576040517f08c379a0000000000000000000000000000000000000000000000000000000008152600401808060200182810382526021815260200180612d096021913960400191505060405180910390fd5b809150505b92915050565b600061248d83836040518060400160405280601a81526020017f536166654d6174683a206469766973696f6e206279207a65726f00000000000081525061271f565b905092915050565b60006124d783836040518060400160405280601e81526020017f536166654d6174683a207375627472616374696f6e206f766572666c6f7700008152506127e5565b905092915050565b61257c8363a9059cbb60e01b8484604051602401808373ffffffffffffffffffffffffffffffffffffffff16815260200182815260200192505050604051602081830303815290604052907bffffffffffffffffffffffffffffffffffffffffffffffffffffffff19166020820180517bffffffffffffffffffffffffffffffffffffffffffffffffffffffff83818316178352505050506128a5565b505050565b6000808284019050838110156125ff576040517f08c379a000000000000000000000000000000000000000000000000000000000815260040180806020018281038252601b8152602001807f536166654d6174683a206164646974696f6e206f766572666c6f77000000000081525060200191505060405180910390fd5b8091505092915050565b6126c4846323b872dd60e01b858585604051602401808473ffffffffffffffffffffffffffffffffffffffff1681526020018373ffffffffffffffffffffffffffffffffffffffff1681526020018281526020019350505050604051602081830303815290604052907bffffffffffffffffffffffffffffffffffffffffffffffffffffffff19166020820180517bffffffffffffffffffffffffffffffffffffffffffffffffffffffff83818316178352505050506128a5565b50505050565b600060055482116126ef576126e8838361249590919063ffffffff16565b9050612719565b60055483106127015760009050612719565b6127168360055461249590919063ffffffff16565b90505b92915050565b600080831182906127cb576040517f08c379a00000000000000000000000000000000000000000000000000000000081526004018080602001828103825283818151815260200191508051906020019080838360005b83811015612790578082015181840152602081019050612775565b50505050905090810190601f1680156127bd5780820380516001836020036101000a031916815260200191505b509250505060405180910390fd5b5060008385816127d757fe5b049050809150509392505050565b6000838311158290612892576040517f08c379a00000000000000000000000000000000000000000000000000000000081526004018080602001828103825283818151815260200191508051906020019080838360005b8381101561285757808201518184015260208101905061283c565b50505050905090810190601f1680156128845780820380516001836020036101000a031916815260200191505b509250505060405180910390fd5b5060008385039050809150509392505050565b6060612907826040518060400160405280602081526020017f5361666542455032303a206c6f772d6c6576656c2063616c6c206661696c65648152508573ffffffffffffffffffffffffffffffffffffffff166129949092919063ffffffff16565b905060008151111561298f5780806020019051602081101561292857600080fd5b810190808051906020019092919050505061298e576040517f08c379a000000000000000000000000000000000000000000000000000000000815260040180806020018281038252602a815260200180612c35602a913960400191505060405180910390fd5b5b505050565b60606129a384846000856129ac565b90509392505050565b606082471015612a07576040517f08c379a0000000000000000000000000000000000000000000000000000000008152600401808060200182810382526026815260200180612cb36026913960400191505060405180910390fd5b612a1085612b55565b612a82576040517f08c379a000000000000000000000000000000000000000000000000000000000815260040180806020018281038252601d8152602001807f416464726573733a2063616c6c20746f206e6f6e2d636f6e747261637400000081525060200191505060405180910390fd5b600060608673ffffffffffffffffffffffffffffffffffffffff1685876040518082805190602001908083835b60208310612ad25780518252602082019150602081019050602083039250612aaf565b6001836020036101000a03801982511681845116808217855250505050505090500191505060006040518083038185875af1925050503d8060008114612b34576040519150601f19603f3d011682016040523d82523d6000602084013e612b39565b606091505b5091509150612b49828286612b68565b92505050949350505050565b600080823b905060008111915050919050565b60608315612b7857829050612c2d565b600083511115612b8b5782518084602001fd5b816040517f08c379a00000000000000000000000000000000000000000000000000000000081526004018080602001828103825283818151815260200191508051906020019080838360005b83811015612bf2578082015181840152602081019050612bd7565b50505050905090810190601f168015612c1f5780820380516001836020036101000a031916815260200191505b509250505060405180910390fd5b939250505056fe5361666542455032303a204245503230206f7065726174696f6e20646964206e6f7420737563636565644f776e61626c653a206e6577206f776e657220697320746865207a65726f20616464726573734e6577207374617274426c6f636b206d757374206265206c6f776572207468616e206e657720656e64426c6f636b416464726573733a20696e73756666696369656e742062616c616e636520666f722063616c6c4e6577207374617274426c6f636b206d75737420626520686967686572207468616e2063757272656e7420626c6f636b536166654d6174683a206d756c7469706c69636174696f6e206f766572666c6f77a26469706673582212206868eda0ccd5ed1a68341a59ebe18e8d972df73b3933f4271ea30e48a772b54e64736f6c634300060c0033",
					"opcodes": "PUSH1 0x80 PUSH1 0x40 MSTORE CALLVALUE DUP1 ISZERO PUSH2 0x10 JUMPI PUSH1 0x0 DUP1 REVERT JUMPDEST POP PUSH1 0x0 PUSH2 0x21 PUSH2 0x10C PUSH1 0x20 SHL PUSH1 0x20 SHR JUMP JUMPDEST SWAP1 POP DUP1 PUSH1 0x0 DUP1 PUSH2 0x100 EXP DUP2 SLOAD DUP2 PUSH20 0xFFFFFFFFFFFFFFFFFFFFFFFFFFFFFFFFFFFFFFFF MUL NOT AND SWAP1 DUP4 PUSH20 0xFFFFFFFFFFFFFFFFFFFFFFFFFFFFFFFFFFFFFFFF AND MUL OR SWAP1 SSTORE POP DUP1 PUSH20 0xFFFFFFFFFFFFFFFFFFFFFFFFFFFFFFFFFFFFFFFF AND PUSH1 0x0 PUSH20 0xFFFFFFFFFFFFFFFFFFFFFFFFFFFFFFFFFFFFFFFF AND PUSH32 0x8BE0079C531659141344CD1FD0A4F28419497F9722A3DAAFE3B4186F6B6457E0 PUSH1 0x40 MLOAD PUSH1 0x40 MLOAD DUP1 SWAP2 SUB SWAP1 LOG3 POP PUSH1 0x1 DUP1 DUP2 SWAP1 SSTORE POP CALLER PUSH1 0x2 PUSH1 0x0 PUSH2 0x100 EXP DUP2 SLOAD DUP2 PUSH20 0xFFFFFFFFFFFFFFFFFFFFFFFFFFFFFFFFFFFFFFFF MUL NOT AND SWAP1 DUP4 PUSH20 0xFFFFFFFFFFFFFFFFFFFFFFFFFFFFFFFFFFFFFFFF AND MUL OR SWAP1 SSTORE POP PUSH2 0x114 JUMP JUMPDEST PUSH1 0x0 CALLER SWAP1 POP SWAP1 JUMP JUMPDEST PUSH2 0x2D5F DUP1 PUSH3 0x124 PUSH1 0x0 CODECOPY PUSH1 0x0 RETURN INVALID PUSH1 0x80 PUSH1 0x40 MSTORE CALLVALUE DUP1 ISZERO PUSH2 0x10 JUMPI PUSH1 0x0 DUP1 REVERT JUMPDEST POP PUSH1 0x4 CALLDATASIZE LT PUSH2 0x1DA JUMPI PUSH1 0x0 CALLDATALOAD PUSH1 0xE0 SHR DUP1 PUSH4 0x8AE39CAC GT PUSH2 0x104 JUMPI DUP1 PUSH4 0xB6B55F25 GT PUSH2 0xA2 JUMPI DUP1 PUSH4 0xF2FDE38B GT PUSH2 0x71 JUMPI DUP1 PUSH4 0xF2FDE38B EQ PUSH2 0x66A JUMPI DUP1 PUSH4 0xF36CC893 EQ PUSH2 0x6AE JUMPI DUP1 PUSH4 0xF40F0F52 EQ PUSH2 0x6CC JUMPI DUP1 PUSH4 0xF7C618C1 EQ PUSH2 0x724 JUMPI PUSH2 0x1DA JUMP JUMPDEST DUP1 PUSH4 0xB6B55F25 EQ PUSH2 0x5E0 JUMPI DUP1 PUSH4 0xCC7A262E EQ PUSH2 0x60E JUMPI DUP1 PUSH4 0xCCD34CD5 EQ PUSH2 0x642 JUMPI DUP1 PUSH4 0xDB2E21BC EQ PUSH2 0x660 JUMPI PUSH2 0x1DA JUMP JUMPDEST DUP1 PUSH4 0x92E8990E GT PUSH2 0xDE JUMPI DUP1 PUSH4 0x92E8990E EQ PUSH2 0x530 JUMPI DUP1 PUSH4 0x9513997F EQ PUSH2 0x550 JUMPI DUP1 PUSH4 0xA0B40905 EQ PUSH2 0x588 JUMPI DUP1 PUSH4 0xA9F8D181 EQ PUSH2 0x5C2 JUMPI PUSH2 0x1DA JUMP JUMPDEST DUP1 PUSH4 0x8AE39CAC EQ PUSH2 0x4C0 JUMPI DUP1 PUSH4 0x8DA5CB5B EQ PUSH2 0x4DE JUMPI DUP1 PUSH4 0x8F662915 EQ PUSH2 0x512 JUMPI PUSH2 0x1DA JUMP JUMPDEST DUP1 PUSH4 0x3F138D4B GT PUSH2 0x17C JUMPI DUP1 PUSH4 0x715018A6 GT PUSH2 0x14B JUMPI DUP1 PUSH4 0x715018A6 EQ PUSH2 0x3E2 JUMPI DUP1 PUSH4 0x80DC0672 EQ PUSH2 0x3EC JUMPI DUP1 PUSH4 0x83A5041C EQ PUSH2 0x3F6 JUMPI DUP1 PUSH4 0x879D9090 EQ PUSH2 0x4A2 JUMPI PUSH2 0x1DA JUMP JUMPDEST DUP1 PUSH4 0x3F138D4B EQ PUSH2 0x324 JUMPI DUP1 PUSH4 0x48CD4CB1 EQ PUSH2 0x372 JUMPI DUP1 PUSH4 0x514F4A42 EQ PUSH2 0x390 JUMPI DUP1 PUSH4 0x66FE9F8A EQ PUSH2 0x3C4 JUMPI PUSH2 0x1DA JUMP JUMPDEST DUP1 PUSH4 0x2DE68155 GT PUSH2 0x1B8 JUMPI DUP1 PUSH4 0x2DE68155 EQ PUSH2 0x28A JUMPI DUP1 PUSH4 0x2E1A7D4D EQ PUSH2 0x2A8 JUMPI DUP1 PUSH4 0x3279BEAB EQ PUSH2 0x2D6 JUMPI DUP1 PUSH4 0x392E53CD EQ PUSH2 0x304 JUMPI PUSH2 0x1DA JUMP JUMPDEST DUP1 PUSH4 0x1F8A976 EQ PUSH2 0x1DF JUMPI DUP1 PUSH4 0x1959A002 EQ PUSH2 0x20D JUMPI DUP1 PUSH4 0x1AED6553 EQ PUSH2 0x26C JUMPI JUMPDEST PUSH1 0x0 DUP1 REVERT JUMPDEST PUSH2 0x20B PUSH1 0x4 DUP1 CALLDATASIZE SUB PUSH1 0x20 DUP2 LT ISZERO PUSH2 0x1F5 JUMPI PUSH1 0x0 DUP1 REVERT JUMPDEST DUP2 ADD SWAP1 DUP1 DUP1 CALLDATALOAD SWAP1 PUSH1 0x20 ADD SWAP1 SWAP3 SWAP2 SWAP1 POP POP POP PUSH2 0x758 JUMP JUMPDEST STOP JUMPDEST PUSH2 0x24F PUSH1 0x4 DUP1 CALLDATASIZE SUB PUSH1 0x20 DUP2 LT ISZERO PUSH2 0x223 JUMPI PUSH1 0x0 DUP1 REVERT JUMPDEST DUP2 ADD SWAP1 DUP1 DUP1 CALLDATALOAD PUSH20 0xFFFFFFFFFFFFFFFFFFFFFFFFFFFFFFFFFFFFFFFF AND SWAP1 PUSH1 0x20 ADD SWAP1 SWAP3 SWAP2 SWAP1 POP POP POP PUSH2 0x861 JUMP JUMPDEST PUSH1 0x40 MLOAD DUP1 DUP4 DUP2 MSTORE PUSH1 0x20 ADD DUP3 DUP2 MSTORE PUSH1 0x20 ADD SWAP3 POP POP POP PUSH1 0x40 MLOAD DUP1 SWAP2 SUB SWAP1 RETURN JUMPDEST PUSH2 0x274 PUSH2 0x885 JUMP JUMPDEST PUSH1 0x40 MLOAD DUP1 DUP3 DUP2 MSTORE PUSH1 0x20 ADD SWAP2 POP POP PUSH1 0x40 MLOAD DUP1 SWAP2 SUB SWAP1 RETURN JUMPDEST PUSH2 0x292 PUSH2 0x88B JUMP JUMPDEST PUSH1 0x40 MLOAD DUP1 DUP3 DUP2 MSTORE PUSH1 0x20 ADD SWAP2 POP POP PUSH1 0x40 MLOAD DUP1 SWAP2 SUB SWAP1 RETURN JUMPDEST PUSH2 0x2D4 PUSH1 0x4 DUP1 CALLDATASIZE SUB PUSH1 0x20 DUP2 LT ISZERO PUSH2 0x2BE JUMPI PUSH1 0x0 DUP1 REVERT JUMPDEST DUP2 ADD SWAP1 DUP1 DUP1 CALLDATALOAD SWAP1 PUSH1 0x20 ADD SWAP1 SWAP3 SWAP2 SWAP1 POP POP POP PUSH2 0x895 JUMP JUMPDEST STOP JUMPDEST PUSH2 0x302 PUSH1 0x4 DUP1 CALLDATASIZE SUB PUSH1 0x20 DUP2 LT ISZERO PUSH2 0x2EC JUMPI PUSH1 0x0 DUP1 REVERT JUMPDEST DUP2 ADD SWAP1 DUP1 DUP1 CALLDATALOAD SWAP1 PUSH1 0x20 ADD SWAP1 SWAP3 SWAP2 SWAP1 POP POP POP PUSH2 0xB8E JUMP JUMPDEST STOP JUMPDEST PUSH2 0x30C PUSH2 0xCBA JUMP JUMPDEST PUSH1 0x40 MLOAD DUP1 DUP3 ISZERO ISZERO DUP2 MSTORE PUSH1 0x20 ADD SWAP2 POP POP PUSH1 0x40 MLOAD DUP1 SWAP2 SUB SWAP1 RETURN JUMPDEST PUSH2 0x370 PUSH1 0x4 DUP1 CALLDATASIZE SUB PUSH1 0x40 DUP2 LT ISZERO PUSH2 0x33A JUMPI PUSH1 0x0 DUP1 REVERT JUMPDEST DUP2 ADD SWAP1 DUP1 DUP1 CALLDATALOAD PUSH20 0xFFFFFFFFFFFFFFFFFFFFFFFFFFFFFFFFFFFFFFFF AND SWAP1 PUSH1 0x20 ADD SWAP1 SWAP3 SWAP2 SWAP1 DUP1 CALLDATALOAD SWAP1 PUSH1 0x20 ADD SWAP1 SWAP3 SWAP2 SWAP1 POP POP POP PUSH2 0xCCD JUMP JUMPDEST STOP JUMPDEST PUSH2 0x37A PUSH2 0xEDD JUMP JUMPDEST PUSH1 0x40 MLOAD DUP1 DUP3 DUP2 MSTORE PUSH1 0x20 ADD SWAP2 POP POP PUSH1 0x40 MLOAD DUP1 SWAP2 SUB SWAP1 RETURN JUMPDEST PUSH2 0x398 PUSH2 0xEE3 JUMP JUMPDEST PUSH1 0x40 MLOAD DUP1 DUP3 PUSH20 0xFFFFFFFFFFFFFFFFFFFFFFFFFFFFFFFFFFFFFFFF AND DUP2 MSTORE PUSH1 0x20 ADD SWAP2 POP POP PUSH1 0x40 MLOAD DUP1 SWAP2 SUB SWAP1 RETURN JUMPDEST PUSH2 0x3CC PUSH2 0xF09 JUMP JUMPDEST PUSH1 0x40 MLOAD DUP1 DUP3 DUP2 MSTORE PUSH1 0x20 ADD SWAP2 POP POP PUSH1 0x40 MLOAD DUP1 SWAP2 SUB SWAP1 RETURN JUMPDEST PUSH2 0x3EA PUSH2 0xF0F JUMP JUMPDEST STOP JUMPDEST PUSH2 0x3F4 PUSH2 0x1095 JUMP JUMPDEST STOP JUMPDEST PUSH2 0x4A0 PUSH1 0x4 DUP1 CALLDATASIZE SUB PUSH1 0xE0 DUP2 LT ISZERO PUSH2 0x40C JUMPI PUSH1 0x0 DUP1 REVERT JUMPDEST DUP2 ADD SWAP1 DUP1 DUP1 CALLDATALOAD PUSH20 0xFFFFFFFFFFFFFFFFFFFFFFFFFFFFFFFFFFFFFFFF AND SWAP1 PUSH1 0x20 ADD SWAP1 SWAP3 SWAP2 SWAP1 DUP1 CALLDATALOAD PUSH20 0xFFFFFFFFFFFFFFFFFFFFFFFFFFFFFFFFFFFFFFFF AND SWAP1 PUSH1 0x20 ADD SWAP1 SWAP3 SWAP2 SWAP1 DUP1 CALLDATALOAD SWAP1 PUSH1 0x20 ADD SWAP1 SWAP3 SWAP2 SWAP1 DUP1 CALLDATALOAD SWAP1 PUSH1 0x20 ADD SWAP1 SWAP3 SWAP2 SWAP1 DUP1 CALLDATALOAD SWAP1 PUSH1 0x20 ADD SWAP1 SWAP3 SWAP2 SWAP1 DUP1 CALLDATALOAD SWAP1 PUSH1 0x20 ADD SWAP1 SWAP3 SWAP2 SWAP1 DUP1 CALLDATALOAD PUSH20 0xFFFFFFFFFFFFFFFFFFFFFFFFFFFFFFFFFFFFFFFF AND SWAP1 PUSH1 0x20 ADD SWAP1 SWAP3 SWAP2 SWAP1 POP POP POP PUSH2 0x1166 JUMP JUMPDEST STOP JUMPDEST PUSH2 0x4AA PUSH2 0x14E3 JUMP JUMPDEST PUSH1 0x40 MLOAD DUP1 DUP3 DUP2 MSTORE PUSH1 0x20 ADD SWAP2 POP POP PUSH1 0x40 MLOAD DUP1 SWAP2 SUB SWAP1 RETURN JUMPDEST PUSH2 0x4C8 PUSH2 0x15B2 JUMP JUMPDEST PUSH1 0x40 MLOAD DUP1 DUP3 DUP2 MSTORE PUSH1 0x20 ADD SWAP2 POP POP PUSH1 0x40 MLOAD DUP1 SWAP2 SUB SWAP1 RETURN JUMPDEST PUSH2 0x4E6 PUSH2 0x15B8 JUMP JUMPDEST PUSH1 0x40 MLOAD DUP1 DUP3 PUSH20 0xFFFFFFFFFFFFFFFFFFFFFFFFFFFFFFFFFFFFFFFF AND DUP2 MSTORE PUSH1 0x20 ADD SWAP2 POP POP PUSH1 0x40 MLOAD DUP1 SWAP2 SUB SWAP1 RETURN JUMPDEST PUSH2 0x51A PUSH2 0x15E1 JUMP JUMPDEST PUSH1 0x40 MLOAD DUP1 DUP3 DUP2 MSTORE PUSH1 0x20 ADD SWAP2 POP POP PUSH1 0x40 MLOAD DUP1 SWAP2 SUB SWAP1 RETURN JUMPDEST PUSH2 0x538 PUSH2 0x15E7 JUMP JUMPDEST PUSH1 0x40 MLOAD DUP1 DUP3 ISZERO ISZERO DUP2 MSTORE PUSH1 0x20 ADD SWAP2 POP POP PUSH1 0x40 MLOAD DUP1 SWAP2 SUB SWAP1 RETURN JUMPDEST PUSH2 0x586 PUSH1 0x4 DUP1 CALLDATASIZE SUB PUSH1 0x40 DUP2 LT ISZERO PUSH2 0x566 JUMPI PUSH1 0x0 DUP1 REVERT JUMPDEST DUP2 ADD SWAP1 DUP1 DUP1 CALLDATALOAD SWAP1 PUSH1 0x20 ADD SWAP1 SWAP3 SWAP2 SWAP1 DUP1 CALLDATALOAD SWAP1 PUSH1 0x20 ADD SWAP1 SWAP3 SWAP2 SWAP1 POP POP POP PUSH2 0x15FA JUMP JUMPDEST STOP JUMPDEST PUSH2 0x5C0 PUSH1 0x4 DUP1 CALLDATASIZE SUB PUSH1 0x40 DUP2 LT ISZERO PUSH2 0x59E JUMPI PUSH1 0x0 DUP1 REVERT JUMPDEST DUP2 ADD SWAP1 DUP1 DUP1 CALLDATALOAD ISZERO ISZERO SWAP1 PUSH1 0x20 ADD SWAP1 SWAP3 SWAP2 SWAP1 DUP1 CALLDATALOAD SWAP1 PUSH1 0x20 ADD SWAP1 SWAP3 SWAP2 SWAP1 POP POP POP PUSH2 0x1843 JUMP JUMPDEST STOP JUMPDEST PUSH2 0x5CA PUSH2 0x1A76 JUMP JUMPDEST PUSH1 0x40 MLOAD DUP1 DUP3 DUP2 MSTORE PUSH1 0x20 ADD SWAP2 POP POP PUSH1 0x40 MLOAD DUP1 SWAP2 SUB SWAP1 RETURN JUMPDEST PUSH2 0x60C PUSH1 0x4 DUP1 CALLDATASIZE SUB PUSH1 0x20 DUP2 LT ISZERO PUSH2 0x5F6 JUMPI PUSH1 0x0 DUP1 REVERT JUMPDEST DUP2 ADD SWAP1 DUP1 DUP1 CALLDATALOAD SWAP1 PUSH1 0x20 ADD SWAP1 SWAP3 SWAP2 SWAP1 POP POP POP PUSH2 0x1A7C JUMP JUMPDEST STOP JUMPDEST PUSH2 0x616 PUSH2 0x1DAF JUMP JUMPDEST PUSH1 0x40 MLOAD DUP1 DUP3 PUSH20 0xFFFFFFFFFFFFFFFFFFFFFFFFFFFFFFFFFFFFFFFF AND DUP2 MSTORE PUSH1 0x20 ADD SWAP2 POP POP PUSH1 0x40 MLOAD DUP1 SWAP2 SUB SWAP1 RETURN JUMPDEST PUSH2 0x64A PUSH2 0x1DD5 JUMP JUMPDEST PUSH1 0x40 MLOAD DUP1 DUP3 DUP2 MSTORE PUSH1 0x20 ADD SWAP2 POP POP PUSH1 0x40 MLOAD DUP1 SWAP2 SUB SWAP1 RETURN JUMPDEST PUSH2 0x668 PUSH2 0x1DDB JUMP JUMPDEST STOP JUMPDEST PUSH2 0x6AC PUSH1 0x4 DUP1 CALLDATASIZE SUB PUSH1 0x20 DUP2 LT ISZERO PUSH2 0x680 JUMPI PUSH1 0x0 DUP1 REVERT JUMPDEST DUP2 ADD SWAP1 DUP1 DUP1 CALLDATALOAD PUSH20 0xFFFFFFFFFFFFFFFFFFFFFFFFFFFFFFFFFFFFFFFF AND SWAP1 PUSH1 0x20 ADD SWAP1 SWAP3 SWAP2 SWAP1 POP POP POP PUSH2 0x1F80 JUMP JUMPDEST STOP JUMPDEST PUSH2 0x6B6 PUSH2 0x218B JUMP JUMPDEST PUSH1 0x40 MLOAD DUP1 DUP3 DUP2 MSTORE PUSH1 0x20 ADD SWAP2 POP POP PUSH1 0x40 MLOAD DUP1 SWAP2 SUB SWAP1 RETURN JUMPDEST PUSH2 0x70E PUSH1 0x4 DUP1 CALLDATASIZE SUB PUSH1 0x20 DUP2 LT ISZERO PUSH2 0x6E2 JUMPI PUSH1 0x0 DUP1 REVERT JUMPDEST DUP2 ADD SWAP1 DUP1 DUP1 CALLDATALOAD PUSH20 0xFFFFFFFFFFFFFFFFFFFFFFFFFFFFFFFFFFFFFFFF AND SWAP1 PUSH1 0x20 ADD SWAP1 SWAP3 SWAP2 SWAP1 POP POP POP PUSH2 0x2191 JUMP JUMPDEST PUSH1 0x40 MLOAD DUP1 DUP3 DUP2 MSTORE PUSH1 0x20 ADD SWAP2 POP POP PUSH1 0x40 MLOAD DUP1 SWAP2 SUB SWAP1 RETURN JUMPDEST PUSH2 0x72C PUSH2 0x22F5 JUMP JUMPDEST PUSH1 0x40 MLOAD DUP1 DUP3 PUSH20 0xFFFFFFFFFFFFFFFFFFFFFFFFFFFFFFFFFFFFFFFF AND DUP2 MSTORE PUSH1 0x20 ADD SWAP2 POP POP PUSH1 0x40 MLOAD DUP1 SWAP2 SUB SWAP1 RETURN JUMPDEST PUSH2 0x760 PUSH2 0x231B JUMP JUMPDEST PUSH20 0xFFFFFFFFFFFFFFFFFFFFFFFFFFFFFFFFFFFFFFFF AND PUSH1 0x0 DUP1 SLOAD SWAP1 PUSH2 0x100 EXP SWAP1 DIV PUSH20 0xFFFFFFFFFFFFFFFFFFFFFFFFFFFFFFFFFFFFFFFF AND PUSH20 0xFFFFFFFFFFFFFFFFFFFFFFFFFFFFFFFFFFFFFFFF AND EQ PUSH2 0x820 JUMPI PUSH1 0x40 MLOAD PUSH32 0x8C379A000000000000000000000000000000000000000000000000000000000 DUP2 MSTORE PUSH1 0x4 ADD DUP1 DUP1 PUSH1 0x20 ADD DUP3 DUP2 SUB DUP3 MSTORE PUSH1 0x20 DUP2 MSTORE PUSH1 0x20 ADD DUP1 PUSH32 0x4F776E61626C653A2063616C6C6572206973206E6F7420746865206F776E6572 DUP2 MSTORE POP PUSH1 0x20 ADD SWAP2 POP POP PUSH1 0x40 MLOAD DUP1 SWAP2 SUB SWAP1 REVERT JUMPDEST DUP1 PUSH1 0x9 DUP2 SWAP1 SSTORE POP PUSH32 0xC4D677EEF92893AC7EC52FAF8140FC6C851AB4736302B4F3A89DFB20696A0DF DUP2 PUSH1 0x40 MLOAD DUP1 DUP3 DUP2 MSTORE PUSH1 0x20 ADD SWAP2 POP POP PUSH1 0x40 MLOAD DUP1 SWAP2 SUB SWAP1 LOG1 POP JUMP JUMPDEST PUSH1 0xD PUSH1 0x20 MSTORE DUP1 PUSH1 0x0 MSTORE PUSH1 0x40 PUSH1 0x0 KECCAK256 PUSH1 0x0 SWAP2 POP SWAP1 POP DUP1 PUSH1 0x0 ADD SLOAD SWAP1 DUP1 PUSH1 0x1 ADD SLOAD SWAP1 POP DUP3 JUMP JUMPDEST PUSH1 0x5 SLOAD DUP2 JUMP JUMPDEST PUSH1 0x0 PUSH1 0x4 SLOAD SWAP1 POP SWAP1 JUMP JUMPDEST PUSH1 0x2 PUSH1 0x1 SLOAD EQ ISZERO PUSH2 0x90E JUMPI PUSH1 0x40 MLOAD PUSH32 0x8C379A000000000000000000000000000000000000000000000000000000000 DUP2 MSTORE PUSH1 0x4 ADD DUP1 DUP1 PUSH1 0x20 ADD DUP3 DUP2 SUB DUP3 MSTORE PUSH1 0x1F DUP2 MSTORE PUSH1 0x20 ADD DUP1 PUSH32 0x5265656E7472616E637947756172643A207265656E7472616E742063616C6C00 DUP2 MSTORE POP PUSH1 0x20 ADD SWAP2 POP POP PUSH1 0x40 MLOAD DUP1 SWAP2 SUB SWAP1 REVERT JUMPDEST PUSH1 0x2 PUSH1 0x1 DUP2 SWAP1 SSTORE POP PUSH1 0x0 PUSH1 0xD PUSH1 0x0 CALLER PUSH20 0xFFFFFFFFFFFFFFFFFFFFFFFFFFFFFFFFFFFFFFFF AND PUSH20 0xFFFFFFFFFFFFFFFFFFFFFFFFFFFFFFFFFFFFFFFF AND DUP2 MSTORE PUSH1 0x20 ADD SWAP1 DUP2 MSTORE PUSH1 0x20 ADD PUSH1 0x0 KECCAK256 SWAP1 POP DUP2 DUP2 PUSH1 0x0 ADD SLOAD LT ISZERO PUSH2 0x9D3 JUMPI PUSH1 0x40 MLOAD PUSH32 0x8C379A000000000000000000000000000000000000000000000000000000000 DUP2 MSTORE PUSH1 0x4 ADD DUP1 DUP1 PUSH1 0x20 ADD DUP3 DUP2 SUB DUP3 MSTORE PUSH1 0x1B DUP2 MSTORE PUSH1 0x20 ADD DUP1 PUSH32 0x416D6F756E7420746F20776974686472617720746F6F20686967680000000000 DUP2 MSTORE POP PUSH1 0x20 ADD SWAP2 POP POP PUSH1 0x40 MLOAD DUP1 SWAP2 SUB SWAP1 REVERT JUMPDEST DUP2 PUSH1 0x4 PUSH1 0x0 DUP3 DUP3 SLOAD SUB SWAP3 POP POP DUP2 SWAP1 SSTORE POP PUSH2 0x9EB PUSH2 0x2323 JUMP JUMPDEST PUSH1 0x0 PUSH2 0xA30 DUP3 PUSH1 0x1 ADD SLOAD PUSH2 0xA22 PUSH1 0xA SLOAD PUSH2 0xA14 PUSH1 0x3 SLOAD DUP8 PUSH1 0x0 ADD SLOAD PUSH2 0x23C5 SWAP1 SWAP2 SWAP1 PUSH4 0xFFFFFFFF AND JUMP JUMPDEST PUSH2 0x244B SWAP1 SWAP2 SWAP1 PUSH4 0xFFFFFFFF AND JUMP JUMPDEST PUSH2 0x2495 SWAP1 SWAP2 SWAP1 PUSH4 0xFFFFFFFF AND JUMP JUMPDEST SWAP1 POP PUSH1 0x0 DUP4 GT ISZERO PUSH2 0xAA8 JUMPI PUSH2 0xA52 DUP4 DUP4 PUSH1 0x0 ADD SLOAD PUSH2 0x2495 SWAP1 SWAP2 SWAP1 PUSH4 0xFFFFFFFF AND JUMP JUMPDEST DUP3 PUSH1 0x0 ADD DUP2 SWAP1 SSTORE POP PUSH2 0xAA7 CALLER DUP5 PUSH1 0xC PUSH1 0x0 SWAP1 SLOAD SWAP1 PUSH2 0x100 EXP SWAP1 DIV PUSH20 0xFFFFFFFFFFFFFFFFFFFFFFFFFFFFFFFFFFFFFFFF AND PUSH20 0xFFFFFFFFFFFFFFFFFFFFFFFFFFFFFFFFFFFFFFFF AND PUSH2 0x24DF SWAP1 SWAP3 SWAP2 SWAP1 PUSH4 0xFFFFFFFF AND JUMP JUMPDEST JUMPDEST PUSH1 0x0 DUP2 GT ISZERO PUSH2 0xAFF JUMPI PUSH2 0xAFE CALLER DUP3 PUSH1 0xB PUSH1 0x0 SWAP1 SLOAD SWAP1 PUSH2 0x100 EXP SWAP1 DIV PUSH20 0xFFFFFFFFFFFFFFFFFFFFFFFFFFFFFFFFFFFFFFFF AND PUSH20 0xFFFFFFFFFFFFFFFFFFFFFFFFFFFFFFFFFFFFFFFF AND PUSH2 0x24DF SWAP1 SWAP3 SWAP2 SWAP1 PUSH4 0xFFFFFFFF AND JUMP JUMPDEST JUMPDEST PUSH2 0xB2C PUSH1 0xA SLOAD PUSH2 0xB1E PUSH1 0x3 SLOAD DUP6 PUSH1 0x0 ADD SLOAD PUSH2 0x23C5 SWAP1 SWAP2 SWAP1 PUSH4 0xFFFFFFFF AND JUMP JUMPDEST PUSH2 0x244B SWAP1 SWAP2 SWAP1 PUSH4 0xFFFFFFFF AND JUMP JUMPDEST DUP3 PUSH1 0x1 ADD DUP2 SWAP1 SSTORE POP CALLER PUSH20 0xFFFFFFFFFFFFFFFFFFFFFFFFFFFFFFFFFFFFFFFF AND PUSH32 0x884EDAD9CE6FA2440D8A54CC123490EB96D2768479D49FF9C7366125A9424364 DUP5 PUSH1 0x40 MLOAD DUP1 DUP3 DUP2 MSTORE PUSH1 0x20 ADD SWAP2 POP POP PUSH1 0x40 MLOAD DUP1 SWAP2 SUB SWAP1 LOG2 POP POP PUSH1 0x1 DUP1 DUP2 SWAP1 SSTORE POP POP JUMP JUMPDEST PUSH2 0xB96 PUSH2 0x231B JUMP JUMPDEST PUSH20 0xFFFFFFFFFFFFFFFFFFFFFFFFFFFFFFFFFFFFFFFF AND PUSH1 0x0 DUP1 SLOAD SWAP1 PUSH2 0x100 EXP SWAP1 DIV PUSH20 0xFFFFFFFFFFFFFFFFFFFFFFFFFFFFFFFFFFFFFFFF AND PUSH20 0xFFFFFFFFFFFFFFFFFFFFFFFFFFFFFFFFFFFFFFFF AND EQ PUSH2 0xC56 JUMPI PUSH1 0x40 MLOAD PUSH32 0x8C379A000000000000000000000000000000000000000000000000000000000 DUP2 MSTORE PUSH1 0x4 ADD DUP1 DUP1 PUSH1 0x20 ADD DUP3 DUP2 SUB DUP3 MSTORE PUSH1 0x20 DUP2 MSTORE PUSH1 0x20 ADD DUP1 PUSH32 0x4F776E61626C653A2063616C6C6572206973206E6F7420746865206F776E6572 DUP2 MSTORE POP PUSH1 0x20 ADD SWAP2 POP POP PUSH1 0x40 MLOAD DUP1 SWAP2 SUB SWAP1 REVERT JUMPDEST PUSH2 0xC5E PUSH2 0x14E3 JUMP JUMPDEST DUP2 GT ISZERO PUSH2 0xC6A JUMPI PUSH1 0x0 DUP1 REVERT JUMPDEST PUSH2 0xCB7 CALLER DUP3 PUSH1 0xB PUSH1 0x0 SWAP1 SLOAD SWAP1 PUSH2 0x100 EXP SWAP1 DIV PUSH20 0xFFFFFFFFFFFFFFFFFFFFFFFFFFFFFFFFFFFFFFFF AND PUSH20 0xFFFFFFFFFFFFFFFFFFFFFFFFFFFFFFFFFFFFFFFF AND PUSH2 0x24DF SWAP1 SWAP3 SWAP2 SWAP1 PUSH4 0xFFFFFFFF AND JUMP JUMPDEST POP JUMP JUMPDEST PUSH1 0x2 PUSH1 0x15 SWAP1 SLOAD SWAP1 PUSH2 0x100 EXP SWAP1 DIV PUSH1 0xFF AND DUP2 JUMP JUMPDEST PUSH2 0xCD5 PUSH2 0x231B JUMP JUMPDEST PUSH20 0xFFFFFFFFFFFFFFFFFFFFFFFFFFFFFFFFFFFFFFFF AND PUSH1 0x0 DUP1 SLOAD SWAP1 PUSH2 0x100 EXP SWAP1 DIV PUSH20 0xFFFFFFFFFFFFFFFFFFFFFFFFFFFFFFFFFFFFFFFF AND PUSH20 0xFFFFFFFFFFFFFFFFFFFFFFFFFFFFFFFFFFFFFFFF AND EQ PUSH2 0xD95 JUMPI PUSH1 0x40 MLOAD PUSH32 0x8C379A000000000000000000000000000000000000000000000000000000000 DUP2 MSTORE PUSH1 0x4 ADD DUP1 DUP1 PUSH1 0x20 ADD DUP3 DUP2 SUB DUP3 MSTORE PUSH1 0x20 DUP2 MSTORE PUSH1 0x20 ADD DUP1 PUSH32 0x4F776E61626C653A2063616C6C6572206973206E6F7420746865206F776E6572 DUP2 MSTORE POP PUSH1 0x20 ADD SWAP2 POP POP PUSH1 0x40 MLOAD DUP1 SWAP2 SUB SWAP1 REVERT JUMPDEST PUSH1 0xC PUSH1 0x0 SWAP1 SLOAD SWAP1 PUSH2 0x100 EXP SWAP1 DIV PUSH20 0xFFFFFFFFFFFFFFFFFFFFFFFFFFFFFFFFFFFFFFFF AND PUSH20 0xFFFFFFFFFFFFFFFFFFFFFFFFFFFFFFFFFFFFFFFF AND DUP3 PUSH20 0xFFFFFFFFFFFFFFFFFFFFFFFFFFFFFFFFFFFFFFFF AND EQ ISZERO PUSH2 0xE59 JUMPI PUSH1 0x40 MLOAD PUSH32 0x8C379A000000000000000000000000000000000000000000000000000000000 DUP2 MSTORE PUSH1 0x4 ADD DUP1 DUP1 PUSH1 0x20 ADD DUP3 DUP2 SUB DUP3 MSTORE PUSH1 0x16 DUP2 MSTORE PUSH1 0x20 ADD DUP1 PUSH32 0x43616E6E6F74206265207374616B656420746F6B656E00000000000000000000 DUP2 MSTORE POP PUSH1 0x20 ADD SWAP2 POP POP PUSH1 0x40 MLOAD DUP1 SWAP2 SUB SWAP1 REVERT JUMPDEST PUSH2 0xE84 CALLER DUP3 DUP5 PUSH20 0xFFFFFFFFFFFFFFFFFFFFFFFFFFFFFFFFFFFFFFFF AND PUSH2 0x24DF SWAP1 SWAP3 SWAP2 SWAP1 PUSH4 0xFFFFFFFF AND JUMP JUMPDEST PUSH32 0x74545154AAC348A3EAC92596BD1971957CA94795F4E954EC5F613B55FAB78129 DUP3 DUP3 PUSH1 0x40 MLOAD DUP1 DUP4 PUSH20 0xFFFFFFFFFFFFFFFFFFFFFFFFFFFFFFFFFFFFFFFF AND DUP2 MSTORE PUSH1 0x20 ADD DUP3 DUP2 MSTORE PUSH1 0x20 ADD SWAP3 POP POP POP PUSH1 0x40 MLOAD DUP1 SWAP2 SUB SWAP1 LOG1 POP POP JUMP JUMPDEST PUSH1 0x6 SLOAD DUP2 JUMP JUMPDEST PUSH1 0x2 PUSH1 0x0 SWAP1 SLOAD SWAP1 PUSH2 0x100 EXP SWAP1 DIV PUSH20 0xFFFFFFFFFFFFFFFFFFFFFFFFFFFFFFFFFFFFFFFF AND DUP2 JUMP JUMPDEST PUSH1 0x8 SLOAD DUP2 JUMP JUMPDEST PUSH2 0xF17 PUSH2 0x231B JUMP JUMPDEST PUSH20 0xFFFFFFFFFFFFFFFFFFFFFFFFFFFFFFFFFFFFFFFF AND PUSH1 0x0 DUP1 SLOAD SWAP1 PUSH2 0x100 EXP SWAP1 DIV PUSH20 0xFFFFFFFFFFFFFFFFFFFFFFFFFFFFFFFFFFFFFFFF AND PUSH20 0xFFFFFFFFFFFFFFFFFFFFFFFFFFFFFFFFFFFFFFFF AND EQ PUSH2 0xFD7 JUMPI PUSH1 0x40 MLOAD PUSH32 0x8C379A000000000000000000000000000000000000000000000000000000000 DUP2 MSTORE PUSH1 0x4 ADD DUP1 DUP1 PUSH1 0x20 ADD DUP3 DUP2 SUB DUP3 MSTORE PUSH1 0x20 DUP2 MSTORE PUSH1 0x20 ADD DUP1 PUSH32 0x4F776E61626C653A2063616C6C6572206973206E6F7420746865206F776E6572 DUP2 MSTORE POP PUSH1 0x20 ADD SWAP2 POP POP PUSH1 0x40 MLOAD DUP1 SWAP2 SUB SWAP1 REVERT JUMPDEST PUSH1 0x0 PUSH20 0xFFFFFFFFFFFFFFFFFFFFFFFFFFFFFFFFFFFFFFFF AND PUSH1 0x0 DUP1 SLOAD SWAP1 PUSH2 0x100 EXP SWAP1 DIV PUSH20 0xFFFFFFFFFFFFFFFFFFFFFFFFFFFFFFFFFFFFFFFF AND PUSH20 0xFFFFFFFFFFFFFFFFFFFFFFFFFFFFFFFFFFFFFFFF AND PUSH32 0x8BE0079C531659141344CD1FD0A4F28419497F9722A3DAAFE3B4186F6B6457E0 PUSH1 0x40 MLOAD PUSH1 0x40 MLOAD DUP1 SWAP2 SUB SWAP1 LOG3 PUSH1 0x0 DUP1 PUSH1 0x0 PUSH2 0x100 EXP DUP2 SLOAD DUP2 PUSH20 0xFFFFFFFFFFFFFFFFFFFFFFFFFFFFFFFFFFFFFFFF MUL NOT AND SWAP1 DUP4 PUSH20 0xFFFFFFFFFFFFFFFFFFFFFFFFFFFFFFFFFFFFFFFF AND MUL OR SWAP1 SSTORE POP JUMP JUMPDEST PUSH2 0x109D PUSH2 0x231B JUMP JUMPDEST PUSH20 0xFFFFFFFFFFFFFFFFFFFFFFFFFFFFFFFFFFFFFFFF AND PUSH1 0x0 DUP1 SLOAD SWAP1 PUSH2 0x100 EXP SWAP1 DIV PUSH20 0xFFFFFFFFFFFFFFFFFFFFFFFFFFFFFFFFFFFFFFFF AND PUSH20 0xFFFFFFFFFFFFFFFFFFFFFFFFFFFFFFFFFFFFFFFF AND EQ PUSH2 0x115D JUMPI PUSH1 0x40 MLOAD PUSH32 0x8C379A000000000000000000000000000000000000000000000000000000000 DUP2 MSTORE PUSH1 0x4 ADD DUP1 DUP1 PUSH1 0x20 ADD DUP3 DUP2 SUB DUP3 MSTORE PUSH1 0x20 DUP2 MSTORE PUSH1 0x20 ADD DUP1 PUSH32 0x4F776E61626C653A2063616C6C6572206973206E6F7420746865206F776E6572 DUP2 MSTORE POP PUSH1 0x20 ADD SWAP2 POP POP PUSH1 0x40 MLOAD DUP1 SWAP2 SUB SWAP1 REVERT JUMPDEST NUMBER PUSH1 0x5 DUP2 SWAP1 SSTORE POP JUMP JUMPDEST PUSH1 0x2 PUSH1 0x15 SWAP1 SLOAD SWAP1 PUSH2 0x100 EXP SWAP1 DIV PUSH1 0xFF AND ISZERO PUSH2 0x11E9 JUMPI PUSH1 0x40 MLOAD PUSH32 0x8C379A000000000000000000000000000000000000000000000000000000000 DUP2 MSTORE PUSH1 0x4 ADD DUP1 DUP1 PUSH1 0x20 ADD DUP3 DUP2 SUB DUP3 MSTORE PUSH1 0x13 DUP2 MSTORE PUSH1 0x20 ADD DUP1 PUSH32 0x416C726561647920696E697469616C697A656400000000000000000000000000 DUP2 MSTORE POP PUSH1 0x20 ADD SWAP2 POP POP PUSH1 0x40 MLOAD DUP1 SWAP2 SUB SWAP1 REVERT JUMPDEST PUSH1 0x2 PUSH1 0x0 SWAP1 SLOAD SWAP1 PUSH2 0x100 EXP SWAP1 DIV PUSH20 0xFFFFFFFFFFFFFFFFFFFFFFFFFFFFFFFFFFFFFFFF AND PUSH20 0xFFFFFFFFFFFFFFFFFFFFFFFFFFFFFFFFFFFFFFFF AND CALLER PUSH20 0xFFFFFFFFFFFFFFFFFFFFFFFFFFFFFFFFFFFFFFFF AND EQ PUSH2 0x12AC JUMPI PUSH1 0x40 MLOAD PUSH32 0x8C379A000000000000000000000000000000000000000000000000000000000 DUP2 MSTORE PUSH1 0x4 ADD DUP1 DUP1 PUSH1 0x20 ADD DUP3 DUP2 SUB DUP3 MSTORE PUSH1 0xB DUP2 MSTORE PUSH1 0x20 ADD DUP1 PUSH32 0x4E6F7420666163746F7279000000000000000000000000000000000000000000 DUP2 MSTORE POP PUSH1 0x20 ADD SWAP2 POP POP PUSH1 0x40 MLOAD DUP1 SWAP2 SUB SWAP1 REVERT JUMPDEST PUSH1 0x1 PUSH1 0x2 PUSH1 0x15 PUSH2 0x100 EXP DUP2 SLOAD DUP2 PUSH1 0xFF MUL NOT AND SWAP1 DUP4 ISZERO ISZERO MUL OR SWAP1 SSTORE POP DUP7 PUSH1 0xC PUSH1 0x0 PUSH2 0x100 EXP DUP2 SLOAD DUP2 PUSH20 0xFFFFFFFFFFFFFFFFFFFFFFFFFFFFFFFFFFFFFFFF MUL NOT AND SWAP1 DUP4 PUSH20 0xFFFFFFFFFFFFFFFFFFFFFFFFFFFFFFFFFFFFFFFF AND MUL OR SWAP1 SSTORE POP DUP6 PUSH1 0xB PUSH1 0x0 PUSH2 0x100 EXP DUP2 SLOAD DUP2 PUSH20 0xFFFFFFFFFFFFFFFFFFFFFFFFFFFFFFFFFFFFFFFF MUL NOT AND SWAP1 DUP4 PUSH20 0xFFFFFFFFFFFFFFFFFFFFFFFFFFFFFFFFFFFFFFFF AND MUL OR SWAP1 SSTORE POP DUP5 PUSH1 0x9 DUP2 SWAP1 SSTORE POP DUP4 PUSH1 0x6 DUP2 SWAP1 SSTORE POP DUP3 PUSH1 0x5 DUP2 SWAP1 SSTORE POP PUSH1 0x0 DUP3 GT ISZERO PUSH2 0x138A JUMPI PUSH1 0x1 PUSH1 0x2 PUSH1 0x14 PUSH2 0x100 EXP DUP2 SLOAD DUP2 PUSH1 0xFF MUL NOT AND SWAP1 DUP4 ISZERO ISZERO MUL OR SWAP1 SSTORE POP DUP2 PUSH1 0x8 DUP2 SWAP1 SSTORE POP JUMPDEST PUSH1 0x0 PUSH1 0xB PUSH1 0x0 SWAP1 SLOAD SWAP1 PUSH2 0x100 EXP SWAP1 DIV PUSH20 0xFFFFFFFFFFFFFFFFFFFFFFFFFFFFFFFFFFFFFFFF AND PUSH20 0xFFFFFFFFFFFFFFFFFFFFFFFFFFFFFFFFFFFFFFFF AND PUSH4 0x313CE567 PUSH1 0x40 MLOAD DUP2 PUSH4 0xFFFFFFFF AND PUSH1 0xE0 SHL DUP2 MSTORE PUSH1 0x4 ADD PUSH1 0x20 PUSH1 0x40 MLOAD DUP1 DUP4 SUB DUP2 DUP7 DUP1 EXTCODESIZE ISZERO DUP1 ISZERO PUSH2 0x13F4 JUMPI PUSH1 0x0 DUP1 REVERT JUMPDEST POP GAS STATICCALL ISZERO DUP1 ISZERO PUSH2 0x1408 JUMPI RETURNDATASIZE PUSH1 0x0 DUP1 RETURNDATACOPY RETURNDATASIZE PUSH1 0x0 REVERT JUMPDEST POP POP POP POP PUSH1 0x40 MLOAD RETURNDATASIZE PUSH1 0x20 DUP2 LT ISZERO PUSH2 0x141E JUMPI PUSH1 0x0 DUP1 REVERT JUMPDEST DUP2 ADD SWAP1 DUP1 DUP1 MLOAD SWAP1 PUSH1 0x20 ADD SWAP1 SWAP3 SWAP2 SWAP1 POP POP POP PUSH1 0xFF AND SWAP1 POP PUSH1 0x1E DUP2 LT PUSH2 0x14AA JUMPI PUSH1 0x40 MLOAD PUSH32 0x8C379A000000000000000000000000000000000000000000000000000000000 DUP2 MSTORE PUSH1 0x4 ADD DUP1 DUP1 PUSH1 0x20 ADD DUP3 DUP2 SUB DUP3 MSTORE PUSH1 0x16 DUP2 MSTORE PUSH1 0x20 ADD DUP1 PUSH32 0x4D75737420626520696E666572696F7220746F20333000000000000000000000 DUP2 MSTORE POP PUSH1 0x20 ADD SWAP2 POP POP PUSH1 0x40 MLOAD DUP1 SWAP2 SUB SWAP1 REVERT JUMPDEST PUSH2 0x14BE DUP2 PUSH1 0x1E PUSH2 0x2495 SWAP1 SWAP2 SWAP1 PUSH4 0xFFFFFFFF AND JUMP JUMPDEST PUSH1 0xA EXP PUSH1 0xA DUP2 SWAP1 SSTORE POP PUSH1 0x6 SLOAD PUSH1 0x7 DUP2 SWAP1 SSTORE POP PUSH2 0x14D9 DUP3 PUSH2 0x1F80 JUMP JUMPDEST POP POP POP POP POP POP POP POP JUMP JUMPDEST PUSH1 0x0 PUSH1 0x4 SLOAD PUSH1 0xC PUSH1 0x0 SWAP1 SLOAD SWAP1 PUSH2 0x100 EXP SWAP1 DIV PUSH20 0xFFFFFFFFFFFFFFFFFFFFFFFFFFFFFFFFFFFFFFFF AND PUSH20 0xFFFFFFFFFFFFFFFFFFFFFFFFFFFFFFFFFFFFFFFF AND PUSH4 0x70A08231 ADDRESS PUSH1 0x40 MLOAD DUP3 PUSH4 0xFFFFFFFF AND PUSH1 0xE0 SHL DUP2 MSTORE PUSH1 0x4 ADD DUP1 DUP3 PUSH20 0xFFFFFFFFFFFFFFFFFFFFFFFFFFFFFFFFFFFFFFFF AND DUP2 MSTORE PUSH1 0x20 ADD SWAP2 POP POP PUSH1 0x20 PUSH1 0x40 MLOAD DUP1 DUP4 SUB DUP2 DUP7 DUP1 EXTCODESIZE ISZERO DUP1 ISZERO PUSH2 0x1571 JUMPI PUSH1 0x0 DUP1 REVERT JUMPDEST POP GAS STATICCALL ISZERO DUP1 ISZERO PUSH2 0x1585 JUMPI RETURNDATASIZE PUSH1 0x0 DUP1 RETURNDATACOPY RETURNDATASIZE PUSH1 0x0 REVERT JUMPDEST POP POP POP POP PUSH1 0x40 MLOAD RETURNDATASIZE PUSH1 0x20 DUP2 LT ISZERO PUSH2 0x159B JUMPI PUSH1 0x0 DUP1 REVERT JUMPDEST DUP2 ADD SWAP1 DUP1 DUP1 MLOAD SWAP1 PUSH1 0x20 ADD SWAP1 SWAP3 SWAP2 SWAP1 POP POP POP SUB SWAP1 POP SWAP1 JUMP JUMPDEST PUSH1 0x9 SLOAD DUP2 JUMP JUMPDEST PUSH1 0x0 DUP1 PUSH1 0x0 SWAP1 SLOAD SWAP1 PUSH2 0x100 EXP SWAP1 DIV PUSH20 0xFFFFFFFFFFFFFFFFFFFFFFFFFFFFFFFFFFFFFFFF AND SWAP1 POP SWAP1 JUMP JUMPDEST PUSH1 0x3 SLOAD DUP2 JUMP JUMPDEST PUSH1 0x2 PUSH1 0x14 SWAP1 SLOAD SWAP1 PUSH2 0x100 EXP SWAP1 DIV PUSH1 0xFF AND DUP2 JUMP JUMPDEST PUSH2 0x1602 PUSH2 0x231B JUMP JUMPDEST PUSH20 0xFFFFFFFFFFFFFFFFFFFFFFFFFFFFFFFFFFFFFFFF AND PUSH1 0x0 DUP1 SLOAD SWAP1 PUSH2 0x100 EXP SWAP1 DIV PUSH20 0xFFFFFFFFFFFFFFFFFFFFFFFFFFFFFFFFFFFFFFFF AND PUSH20 0xFFFFFFFFFFFFFFFFFFFFFFFFFFFFFFFFFFFFFFFF AND EQ PUSH2 0x16C2 JUMPI PUSH1 0x40 MLOAD PUSH32 0x8C379A000000000000000000000000000000000000000000000000000000000 DUP2 MSTORE PUSH1 0x4 ADD DUP1 DUP1 PUSH1 0x20 ADD DUP3 DUP2 SUB DUP3 MSTORE PUSH1 0x20 DUP2 MSTORE PUSH1 0x20 ADD DUP1 PUSH32 0x4F776E61626C653A2063616C6C6572206973206E6F7420746865206F776E6572 DUP2 MSTORE POP PUSH1 0x20 ADD SWAP2 POP POP PUSH1 0x40 MLOAD DUP1 SWAP2 SUB SWAP1 REVERT JUMPDEST PUSH1 0x6 SLOAD NUMBER LT PUSH2 0x1739 JUMPI PUSH1 0x40 MLOAD PUSH32 0x8C379A000000000000000000000000000000000000000000000000000000000 DUP2 MSTORE PUSH1 0x4 ADD DUP1 DUP1 PUSH1 0x20 ADD DUP3 DUP2 SUB DUP3 MSTORE PUSH1 0x10 DUP2 MSTORE PUSH1 0x20 ADD DUP1 PUSH32 0x506F6F6C20686173207374617274656400000000000000000000000000000000 DUP2 MSTORE POP PUSH1 0x20 ADD SWAP2 POP POP PUSH1 0x40 MLOAD DUP1 SWAP2 SUB SWAP1 REVERT JUMPDEST DUP1 DUP3 LT PUSH2 0x1791 JUMPI PUSH1 0x40 MLOAD PUSH32 0x8C379A000000000000000000000000000000000000000000000000000000000 DUP2 MSTORE PUSH1 0x4 ADD DUP1 DUP1 PUSH1 0x20 ADD DUP3 DUP2 SUB DUP3 MSTORE PUSH1 0x2E DUP2 MSTORE PUSH1 0x20 ADD DUP1 PUSH2 0x2C85 PUSH1 0x2E SWAP2 CODECOPY PUSH1 0x40 ADD SWAP2 POP POP PUSH1 0x40 MLOAD DUP1 SWAP2 SUB SWAP1 REVERT JUMPDEST DUP2 NUMBER LT PUSH2 0x17E9 JUMPI PUSH1 0x40 MLOAD PUSH32 0x8C379A000000000000000000000000000000000000000000000000000000000 DUP2 MSTORE PUSH1 0x4 ADD DUP1 DUP1 PUSH1 0x20 ADD DUP3 DUP2 SUB DUP3 MSTORE PUSH1 0x30 DUP2 MSTORE PUSH1 0x20 ADD DUP1 PUSH2 0x2CD9 PUSH1 0x30 SWAP2 CODECOPY PUSH1 0x40 ADD SWAP2 POP POP PUSH1 0x40 MLOAD DUP1 SWAP2 SUB SWAP1 REVERT JUMPDEST DUP2 PUSH1 0x6 DUP2 SWAP1 SSTORE POP DUP1 PUSH1 0x5 DUP2 SWAP1 SSTORE POP PUSH1 0x6 SLOAD PUSH1 0x7 DUP2 SWAP1 SSTORE POP PUSH32 0x7CD0AB87D19036F3DFADADB232C78AA4879DDA3F0C994A9D637532410EE2CE06 DUP3 DUP3 PUSH1 0x40 MLOAD DUP1 DUP4 DUP2 MSTORE PUSH1 0x20 ADD DUP3 DUP2 MSTORE PUSH1 0x20 ADD SWAP3 POP POP POP PUSH1 0x40 MLOAD DUP1 SWAP2 SUB SWAP1 LOG1 POP POP JUMP JUMPDEST PUSH2 0x184B PUSH2 0x231B JUMP JUMPDEST PUSH20 0xFFFFFFFFFFFFFFFFFFFFFFFFFFFFFFFFFFFFFFFF AND PUSH1 0x0 DUP1 SLOAD SWAP1 PUSH2 0x100 EXP SWAP1 DIV PUSH20 0xFFFFFFFFFFFFFFFFFFFFFFFFFFFFFFFFFFFFFFFF AND PUSH20 0xFFFFFFFFFFFFFFFFFFFFFFFFFFFFFFFFFFFFFFFF AND EQ PUSH2 0x190B JUMPI PUSH1 0x40 MLOAD PUSH32 0x8C379A000000000000000000000000000000000000000000000000000000000 DUP2 MSTORE PUSH1 0x4 ADD DUP1 DUP1 PUSH1 0x20 ADD DUP3 DUP2 SUB DUP3 MSTORE PUSH1 0x20 DUP2 MSTORE PUSH1 0x20 ADD DUP1 PUSH32 0x4F776E61626C653A2063616C6C6572206973206E6F7420746865206F776E6572 DUP2 MSTORE POP PUSH1 0x20 ADD SWAP2 POP POP PUSH1 0x40 MLOAD DUP1 SWAP2 SUB SWAP1 REVERT JUMPDEST PUSH1 0x2 PUSH1 0x14 SWAP1 SLOAD SWAP1 PUSH2 0x100 EXP SWAP1 DIV PUSH1 0xFF AND PUSH2 0x198D JUMPI PUSH1 0x40 MLOAD PUSH32 0x8C379A000000000000000000000000000000000000000000000000000000000 DUP2 MSTORE PUSH1 0x4 ADD DUP1 DUP1 PUSH1 0x20 ADD DUP3 DUP2 SUB DUP3 MSTORE PUSH1 0xB DUP2 MSTORE PUSH1 0x20 ADD DUP1 PUSH32 0x4D75737420626520736574000000000000000000000000000000000000000000 DUP2 MSTORE POP PUSH1 0x20 ADD SWAP2 POP POP PUSH1 0x40 MLOAD DUP1 SWAP2 SUB SWAP1 REVERT JUMPDEST DUP2 ISZERO PUSH2 0x1A16 JUMPI PUSH1 0x8 SLOAD DUP2 GT PUSH2 0x1A0A JUMPI PUSH1 0x40 MLOAD PUSH32 0x8C379A000000000000000000000000000000000000000000000000000000000 DUP2 MSTORE PUSH1 0x4 ADD DUP1 DUP1 PUSH1 0x20 ADD DUP3 DUP2 SUB DUP3 MSTORE PUSH1 0x18 DUP2 MSTORE PUSH1 0x20 ADD DUP1 PUSH32 0x4E6577206C696D6974206D757374206265206869676865720000000000000000 DUP2 MSTORE POP PUSH1 0x20 ADD SWAP2 POP POP PUSH1 0x40 MLOAD DUP1 SWAP2 SUB SWAP1 REVERT JUMPDEST DUP1 PUSH1 0x8 DUP2 SWAP1 SSTORE POP PUSH2 0x1A39 JUMP JUMPDEST DUP2 PUSH1 0x2 PUSH1 0x14 PUSH2 0x100 EXP DUP2 SLOAD DUP2 PUSH1 0xFF MUL NOT AND SWAP1 DUP4 ISZERO ISZERO MUL OR SWAP1 SSTORE POP PUSH1 0x0 PUSH1 0x8 DUP2 SWAP1 SSTORE POP JUMPDEST PUSH32 0x241F67EE5F41B7A5CABF911367329BE7215900F602EBFC47F89DCE2A6BCD847C PUSH1 0x8 SLOAD PUSH1 0x40 MLOAD DUP1 DUP3 DUP2 MSTORE PUSH1 0x20 ADD SWAP2 POP POP PUSH1 0x40 MLOAD DUP1 SWAP2 SUB SWAP1 LOG1 POP POP JUMP JUMPDEST PUSH1 0x7 SLOAD DUP2 JUMP JUMPDEST PUSH1 0x2 PUSH1 0x1 SLOAD EQ ISZERO PUSH2 0x1AF5 JUMPI PUSH1 0x40 MLOAD PUSH32 0x8C379A000000000000000000000000000000000000000000000000000000000 DUP2 MSTORE PUSH1 0x4 ADD DUP1 DUP1 PUSH1 0x20 ADD DUP3 DUP2 SUB DUP3 MSTORE PUSH1 0x1F DUP2 MSTORE PUSH1 0x20 ADD DUP1 PUSH32 0x5265656E7472616E637947756172643A207265656E7472616E742063616C6C00 DUP2 MSTORE POP PUSH1 0x20 ADD SWAP2 POP POP PUSH1 0x40 MLOAD DUP1 SWAP2 SUB SWAP1 REVERT JUMPDEST PUSH1 0x2 PUSH1 0x1 DUP2 SWAP1 SSTORE POP PUSH1 0x0 PUSH1 0xD PUSH1 0x0 CALLER PUSH20 0xFFFFFFFFFFFFFFFFFFFFFFFFFFFFFFFFFFFFFFFF AND PUSH20 0xFFFFFFFFFFFFFFFFFFFFFFFFFFFFFFFFFFFFFFFF AND DUP2 MSTORE PUSH1 0x20 ADD SWAP1 DUP2 MSTORE PUSH1 0x20 ADD PUSH1 0x0 KECCAK256 SWAP1 POP PUSH1 0x2 PUSH1 0x14 SWAP1 SLOAD SWAP1 PUSH2 0x100 EXP SWAP1 DIV PUSH1 0xFF AND ISZERO PUSH2 0x1BE4 JUMPI PUSH1 0x8 SLOAD PUSH2 0x1B6F DUP3 PUSH1 0x0 ADD SLOAD DUP5 PUSH2 0x2581 SWAP1 SWAP2 SWAP1 PUSH4 0xFFFFFFFF AND JUMP JUMPDEST GT ISZERO PUSH2 0x1BE3 JUMPI PUSH1 0x40 MLOAD PUSH32 0x8C379A000000000000000000000000000000000000000000000000000000000 DUP2 MSTORE PUSH1 0x4 ADD DUP1 DUP1 PUSH1 0x20 ADD DUP3 DUP2 SUB DUP3 MSTORE PUSH1 0x17 DUP2 MSTORE PUSH1 0x20 ADD DUP1 PUSH32 0x5573657220616D6F756E742061626F7665206C696D6974000000000000000000 DUP2 MSTORE POP PUSH1 0x20 ADD SWAP2 POP POP PUSH1 0x40 MLOAD DUP1 SWAP2 SUB SWAP1 REVERT JUMPDEST JUMPDEST DUP2 PUSH1 0x4 PUSH1 0x0 DUP3 DUP3 SLOAD ADD SWAP3 POP POP DUP2 SWAP1 SSTORE POP PUSH2 0x1BFC PUSH2 0x2323 JUMP JUMPDEST PUSH1 0x0 DUP2 PUSH1 0x0 ADD SLOAD GT ISZERO PUSH2 0x1CA9 JUMPI PUSH1 0x0 PUSH2 0x1C4E DUP3 PUSH1 0x1 ADD SLOAD PUSH2 0x1C40 PUSH1 0xA SLOAD PUSH2 0x1C32 PUSH1 0x3 SLOAD DUP8 PUSH1 0x0 ADD SLOAD PUSH2 0x23C5 SWAP1 SWAP2 SWAP1 PUSH4 0xFFFFFFFF AND JUMP JUMPDEST PUSH2 0x244B SWAP1 SWAP2 SWAP1 PUSH4 0xFFFFFFFF AND JUMP JUMPDEST PUSH2 0x2495 SWAP1 SWAP2 SWAP1 PUSH4 0xFFFFFFFF AND JUMP JUMPDEST SWAP1 POP PUSH1 0x0 DUP2 GT ISZERO PUSH2 0x1CA7 JUMPI PUSH2 0x1CA6 CALLER DUP3 PUSH1 0xB PUSH1 0x0 SWAP1 SLOAD SWAP1 PUSH2 0x100 EXP SWAP1 DIV PUSH20 0xFFFFFFFFFFFFFFFFFFFFFFFFFFFFFFFFFFFFFFFF AND PUSH20 0xFFFFFFFFFFFFFFFFFFFFFFFFFFFFFFFFFFFFFFFF AND PUSH2 0x24DF SWAP1 SWAP3 SWAP2 SWAP1 PUSH4 0xFFFFFFFF AND JUMP JUMPDEST JUMPDEST POP JUMPDEST PUSH1 0x0 DUP3 GT ISZERO PUSH2 0x1D21 JUMPI PUSH2 0x1CC9 DUP3 DUP3 PUSH1 0x0 ADD SLOAD PUSH2 0x2581 SWAP1 SWAP2 SWAP1 PUSH4 0xFFFFFFFF AND JUMP JUMPDEST DUP2 PUSH1 0x0 ADD DUP2 SWAP1 SSTORE POP PUSH2 0x1D20 CALLER ADDRESS DUP5 PUSH1 0xC PUSH1 0x0 SWAP1 SLOAD SWAP1 PUSH2 0x100 EXP SWAP1 DIV PUSH20 0xFFFFFFFFFFFFFFFFFFFFFFFFFFFFFFFFFFFFFFFF AND PUSH20 0xFFFFFFFFFFFFFFFFFFFFFFFFFFFFFFFFFFFFFFFF AND PUSH2 0x2609 SWAP1 SWAP4 SWAP3 SWAP2 SWAP1 PUSH4 0xFFFFFFFF AND JUMP JUMPDEST JUMPDEST PUSH2 0x1D4E PUSH1 0xA SLOAD PUSH2 0x1D40 PUSH1 0x3 SLOAD DUP5 PUSH1 0x0 ADD SLOAD PUSH2 0x23C5 SWAP1 SWAP2 SWAP1 PUSH4 0xFFFFFFFF AND JUMP JUMPDEST PUSH2 0x244B SWAP1 SWAP2 SWAP1 PUSH4 0xFFFFFFFF AND JUMP JUMPDEST DUP2 PUSH1 0x1 ADD DUP2 SWAP1 SSTORE POP CALLER PUSH20 0xFFFFFFFFFFFFFFFFFFFFFFFFFFFFFFFFFFFFFFFF AND PUSH32 0xE1FFFCC4923D04B559F4D29A8BFC6CDA04EB5B0D3C460751C2402C5C5CC9109C DUP4 PUSH1 0x40 MLOAD DUP1 DUP3 DUP2 MSTORE PUSH1 0x20 ADD SWAP2 POP POP PUSH1 0x40 MLOAD DUP1 SWAP2 SUB SWAP1 LOG2 POP PUSH1 0x1 DUP1 DUP2 SWAP1 SSTORE POP POP JUMP JUMPDEST PUSH1 0xC PUSH1 0x0 SWAP1 SLOAD SWAP1 PUSH2 0x100 EXP SWAP1 DIV PUSH20 0xFFFFFFFFFFFFFFFFFFFFFFFFFFFFFFFFFFFFFFFF AND DUP2 JUMP JUMPDEST PUSH1 0xA SLOAD DUP2 JUMP JUMPDEST PUSH1 0x2 PUSH1 0x1 SLOAD EQ ISZERO PUSH2 0x1E54 JUMPI PUSH1 0x40 MLOAD PUSH32 0x8C379A000000000000000000000000000000000000000000000000000000000 DUP2 MSTORE PUSH1 0x4 ADD DUP1 DUP1 PUSH1 0x20 ADD DUP3 DUP2 SUB DUP3 MSTORE PUSH1 0x1F DUP2 MSTORE PUSH1 0x20 ADD DUP1 PUSH32 0x5265656E7472616E637947756172643A207265656E7472616E742063616C6C00 DUP2 MSTORE POP PUSH1 0x20 ADD SWAP2 POP POP PUSH1 0x40 MLOAD DUP1 SWAP2 SUB SWAP1 REVERT JUMPDEST PUSH1 0x2 PUSH1 0x1 DUP2 SWAP1 SSTORE POP PUSH1 0x0 PUSH1 0xD PUSH1 0x0 CALLER PUSH20 0xFFFFFFFFFFFFFFFFFFFFFFFFFFFFFFFFFFFFFFFF AND PUSH20 0xFFFFFFFFFFFFFFFFFFFFFFFFFFFFFFFFFFFFFFFF AND DUP2 MSTORE PUSH1 0x20 ADD SWAP1 DUP2 MSTORE PUSH1 0x20 ADD PUSH1 0x0 KECCAK256 SWAP1 POP PUSH1 0x0 DUP2 PUSH1 0x0 ADD SLOAD SWAP1 POP PUSH1 0x0 DUP3 PUSH1 0x0 ADD DUP2 SWAP1 SSTORE POP PUSH1 0x0 DUP3 PUSH1 0x1 ADD DUP2 SWAP1 SSTORE POP PUSH1 0x0 DUP2 GT ISZERO PUSH2 0x1F23 JUMPI PUSH2 0x1F12 CALLER DUP3 PUSH1 0xC PUSH1 0x0 SWAP1 SLOAD SWAP1 PUSH2 0x100 EXP SWAP1 DIV PUSH20 0xFFFFFFFFFFFFFFFFFFFFFFFFFFFFFFFFFFFFFFFF AND PUSH20 0xFFFFFFFFFFFFFFFFFFFFFFFFFFFFFFFFFFFFFFFF AND PUSH2 0x24DF SWAP1 SWAP3 SWAP2 SWAP1 PUSH4 0xFFFFFFFF AND JUMP JUMPDEST DUP1 PUSH1 0x4 PUSH1 0x0 DUP3 DUP3 SLOAD SUB SWAP3 POP POP DUP2 SWAP1 SSTORE POP JUMPDEST CALLER PUSH20 0xFFFFFFFFFFFFFFFFFFFFFFFFFFFFFFFFFFFFFFFF AND PUSH32 0x5FAFA99D0643513820BE26656B45130B01E1C03062E1266BF36F88CBD3BD9695 DUP4 PUSH1 0x0 ADD SLOAD PUSH1 0x40 MLOAD DUP1 DUP3 DUP2 MSTORE PUSH1 0x20 ADD SWAP2 POP POP PUSH1 0x40 MLOAD DUP1 SWAP2 SUB SWAP1 LOG2 POP POP PUSH1 0x1 DUP1 DUP2 SWAP1 SSTORE POP JUMP JUMPDEST PUSH2 0x1F88 PUSH2 0x231B JUMP JUMPDEST PUSH20 0xFFFFFFFFFFFFFFFFFFFFFFFFFFFFFFFFFFFFFFFF AND PUSH1 0x0 DUP1 SLOAD SWAP1 PUSH2 0x100 EXP SWAP1 DIV PUSH20 0xFFFFFFFFFFFFFFFFFFFFFFFFFFFFFFFFFFFFFFFF AND PUSH20 0xFFFFFFFFFFFFFFFFFFFFFFFFFFFFFFFFFFFFFFFF AND EQ PUSH2 0x2048 JUMPI PUSH1 0x40 MLOAD PUSH32 0x8C379A000000000000000000000000000000000000000000000000000000000 DUP2 MSTORE PUSH1 0x4 ADD DUP1 DUP1 PUSH1 0x20 ADD DUP3 DUP2 SUB DUP3 MSTORE PUSH1 0x20 DUP2 MSTORE PUSH1 0x20 ADD DUP1 PUSH32 0x4F776E61626C653A2063616C6C6572206973206E6F7420746865206F776E6572 DUP2 MSTORE POP PUSH1 0x20 ADD SWAP2 POP POP PUSH1 0x40 MLOAD DUP1 SWAP2 SUB SWAP1 REVERT JUMPDEST PUSH1 0x0 PUSH20 0xFFFFFFFFFFFFFFFFFFFFFFFFFFFFFFFFFFFFFFFF AND DUP2 PUSH20 0xFFFFFFFFFFFFFFFFFFFFFFFFFFFFFFFFFFFFFFFF AND EQ ISZERO PUSH2 0x20CE JUMPI PUSH1 0x40 MLOAD PUSH32 0x8C379A000000000000000000000000000000000000000000000000000000000 DUP2 MSTORE PUSH1 0x4 ADD DUP1 DUP1 PUSH1 0x20 ADD DUP3 DUP2 SUB DUP3 MSTORE PUSH1 0x26 DUP2 MSTORE PUSH1 0x20 ADD DUP1 PUSH2 0x2C5F PUSH1 0x26 SWAP2 CODECOPY PUSH1 0x40 ADD SWAP2 POP POP PUSH1 0x40 MLOAD DUP1 SWAP2 SUB SWAP1 REVERT JUMPDEST DUP1 PUSH20 0xFFFFFFFFFFFFFFFFFFFFFFFFFFFFFFFFFFFFFFFF AND PUSH1 0x0 DUP1 SLOAD SWAP1 PUSH2 0x100 EXP SWAP1 DIV PUSH20 0xFFFFFFFFFFFFFFFFFFFFFFFFFFFFFFFFFFFFFFFF AND PUSH20 0xFFFFFFFFFFFFFFFFFFFFFFFFFFFFFFFFFFFFFFFF AND PUSH32 0x8BE0079C531659141344CD1FD0A4F28419497F9722A3DAAFE3B4186F6B6457E0 PUSH1 0x40 MLOAD PUSH1 0x40 MLOAD DUP1 SWAP2 SUB SWAP1 LOG3 DUP1 PUSH1 0x0 DUP1 PUSH2 0x100 EXP DUP2 SLOAD DUP2 PUSH20 0xFFFFFFFFFFFFFFFFFFFFFFFFFFFFFFFFFFFFFFFF MUL NOT AND SWAP1 DUP4 PUSH20 0xFFFFFFFFFFFFFFFFFFFFFFFFFFFFFFFFFFFFFFFF AND MUL OR SWAP1 SSTORE POP POP JUMP JUMPDEST PUSH1 0x4 SLOAD DUP2 JUMP JUMPDEST PUSH1 0x0 DUP1 PUSH1 0xD PUSH1 0x0 DUP5 PUSH20 0xFFFFFFFFFFFFFFFFFFFFFFFFFFFFFFFFFFFFFFFF AND PUSH20 0xFFFFFFFFFFFFFFFFFFFFFFFFFFFFFFFFFFFFFFFF AND DUP2 MSTORE PUSH1 0x20 ADD SWAP1 DUP2 MSTORE PUSH1 0x20 ADD PUSH1 0x0 KECCAK256 SWAP1 POP PUSH1 0x0 PUSH1 0x4 SLOAD SWAP1 POP PUSH1 0x7 SLOAD NUMBER GT DUP1 ISZERO PUSH2 0x21EE JUMPI POP PUSH1 0x0 DUP2 EQ ISZERO JUMPDEST ISZERO PUSH2 0x22A8 JUMPI PUSH1 0x0 PUSH2 0x2201 PUSH1 0x7 SLOAD NUMBER PUSH2 0x26CA JUMP JUMPDEST SWAP1 POP PUSH1 0x0 PUSH2 0x221A PUSH1 0x9 SLOAD DUP4 PUSH2 0x23C5 SWAP1 SWAP2 SWAP1 PUSH4 0xFFFFFFFF AND JUMP JUMPDEST SWAP1 POP PUSH1 0x0 PUSH2 0x2259 PUSH2 0x2248 DUP6 PUSH2 0x223A PUSH1 0xA SLOAD DUP7 PUSH2 0x23C5 SWAP1 SWAP2 SWAP1 PUSH4 0xFFFFFFFF AND JUMP JUMPDEST PUSH2 0x244B SWAP1 SWAP2 SWAP1 PUSH4 0xFFFFFFFF AND JUMP JUMPDEST PUSH1 0x3 SLOAD PUSH2 0x2581 SWAP1 SWAP2 SWAP1 PUSH4 0xFFFFFFFF AND JUMP JUMPDEST SWAP1 POP PUSH2 0x229C DUP6 PUSH1 0x1 ADD SLOAD PUSH2 0x228E PUSH1 0xA SLOAD PUSH2 0x2280 DUP6 DUP11 PUSH1 0x0 ADD SLOAD PUSH2 0x23C5 SWAP1 SWAP2 SWAP1 PUSH4 0xFFFFFFFF AND JUMP JUMPDEST PUSH2 0x244B SWAP1 SWAP2 SWAP1 PUSH4 0xFFFFFFFF AND JUMP JUMPDEST PUSH2 0x2495 SWAP1 SWAP2 SWAP1 PUSH4 0xFFFFFFFF AND JUMP JUMPDEST SWAP6 POP POP POP POP POP POP PUSH2 0x22F0 JUMP JUMPDEST PUSH2 0x22EB DUP3 PUSH1 0x1 ADD SLOAD PUSH2 0x22DD PUSH1 0xA SLOAD PUSH2 0x22CF PUSH1 0x3 SLOAD DUP8 PUSH1 0x0 ADD SLOAD PUSH2 0x23C5 SWAP1 SWAP2 SWAP1 PUSH4 0xFFFFFFFF AND JUMP JUMPDEST PUSH2 0x244B SWAP1 SWAP2 SWAP1 PUSH4 0xFFFFFFFF AND JUMP JUMPDEST PUSH2 0x2495 SWAP1 SWAP2 SWAP1 PUSH4 0xFFFFFFFF AND JUMP JUMPDEST SWAP3 POP POP POP JUMPDEST SWAP2 SWAP1 POP JUMP JUMPDEST PUSH1 0xB PUSH1 0x0 SWAP1 SLOAD SWAP1 PUSH2 0x100 EXP SWAP1 DIV PUSH20 0xFFFFFFFFFFFFFFFFFFFFFFFFFFFFFFFFFFFFFFFF AND DUP2 JUMP JUMPDEST PUSH1 0x0 CALLER SWAP1 POP SWAP1 JUMP JUMPDEST PUSH1 0x7 SLOAD NUMBER GT PUSH2 0x2331 JUMPI PUSH2 0x23C3 JUMP JUMPDEST PUSH1 0x0 PUSH1 0x4 SLOAD SWAP1 POP PUSH1 0x0 DUP2 EQ ISZERO PUSH2 0x234E JUMPI NUMBER PUSH1 0x7 DUP2 SWAP1 SSTORE POP POP PUSH2 0x23C3 JUMP JUMPDEST PUSH1 0x0 PUSH2 0x235C PUSH1 0x7 SLOAD NUMBER PUSH2 0x26CA JUMP JUMPDEST SWAP1 POP PUSH1 0x0 PUSH2 0x2375 PUSH1 0x9 SLOAD DUP4 PUSH2 0x23C5 SWAP1 SWAP2 SWAP1 PUSH4 0xFFFFFFFF AND JUMP JUMPDEST SWAP1 POP PUSH2 0x23B2 PUSH2 0x23A1 DUP5 PUSH2 0x2393 PUSH1 0xA SLOAD DUP6 PUSH2 0x23C5 SWAP1 SWAP2 SWAP1 PUSH4 0xFFFFFFFF AND JUMP JUMPDEST PUSH2 0x244B SWAP1 SWAP2 SWAP1 PUSH4 0xFFFFFFFF AND JUMP JUMPDEST PUSH1 0x3 SLOAD PUSH2 0x2581 SWAP1 SWAP2 SWAP1 PUSH4 0xFFFFFFFF AND JUMP JUMPDEST PUSH1 0x3 DUP2 SWAP1 SSTORE POP NUMBER PUSH1 0x7 DUP2 SWAP1 SSTORE POP POP POP POP JUMPDEST JUMP JUMPDEST PUSH1 0x0 DUP1 DUP4 EQ ISZERO PUSH2 0x23D8 JUMPI PUSH1 0x0 SWAP1 POP PUSH2 0x2445 JUMP JUMPDEST PUSH1 0x0 DUP3 DUP5 MUL SWAP1 POP DUP3 DUP5 DUP3 DUP2 PUSH2 0x23E9 JUMPI INVALID JUMPDEST DIV EQ PUSH2 0x2440 JUMPI PUSH1 0x40 MLOAD PUSH32 0x8C379A000000000000000000000000000000000000000000000000000000000 DUP2 MSTORE PUSH1 0x4 ADD DUP1 DUP1 PUSH1 0x20 ADD DUP3 DUP2 SUB DUP3 MSTORE PUSH1 0x21 DUP2 MSTORE PUSH1 0x20 ADD DUP1 PUSH2 0x2D09 PUSH1 0x21 SWAP2 CODECOPY PUSH1 0x40 ADD SWAP2 POP POP PUSH1 0x40 MLOAD DUP1 SWAP2 SUB SWAP1 REVERT JUMPDEST DUP1 SWAP2 POP POP JUMPDEST SWAP3 SWAP2 POP POP JUMP JUMPDEST PUSH1 0x0 PUSH2 0x248D DUP4 DUP4 PUSH1 0x40 MLOAD DUP1 PUSH1 0x40 ADD PUSH1 0x40 MSTORE DUP1 PUSH1 0x1A DUP2 MSTORE PUSH1 0x20 ADD PUSH32 0x536166654D6174683A206469766973696F6E206279207A65726F000000000000 DUP2 MSTORE POP PUSH2 0x271F JUMP JUMPDEST SWAP1 POP SWAP3 SWAP2 POP POP JUMP JUMPDEST PUSH1 0x0 PUSH2 0x24D7 DUP4 DUP4 PUSH1 0x40 MLOAD DUP1 PUSH1 0x40 ADD PUSH1 0x40 MSTORE DUP1 PUSH1 0x1E DUP2 MSTORE PUSH1 0x20 ADD PUSH32 0x536166654D6174683A207375627472616374696F6E206F766572666C6F770000 DUP2 MSTORE POP PUSH2 0x27E5 JUMP JUMPDEST SWAP1 POP SWAP3 SWAP2 POP POP JUMP JUMPDEST PUSH2 0x257C DUP4 PUSH4 0xA9059CBB PUSH1 0xE0 SHL DUP5 DUP5 PUSH1 0x40 MLOAD PUSH1 0x24 ADD DUP1 DUP4 PUSH20 0xFFFFFFFFFFFFFFFFFFFFFFFFFFFFFFFFFFFFFFFF AND DUP2 MSTORE PUSH1 0x20 ADD DUP3 DUP2 MSTORE PUSH1 0x20 ADD SWAP3 POP POP POP PUSH1 0x40 MLOAD PUSH1 0x20 DUP2 DUP4 SUB SUB DUP2 MSTORE SWAP1 PUSH1 0x40 MSTORE SWAP1 PUSH28 0xFFFFFFFFFFFFFFFFFFFFFFFFFFFFFFFFFFFFFFFFFFFFFFFFFFFFFFFF NOT AND PUSH1 0x20 DUP3 ADD DUP1 MLOAD PUSH28 0xFFFFFFFFFFFFFFFFFFFFFFFFFFFFFFFFFFFFFFFFFFFFFFFFFFFFFFFF DUP4 DUP2 DUP4 AND OR DUP4 MSTORE POP POP POP POP PUSH2 0x28A5 JUMP JUMPDEST POP POP POP JUMP JUMPDEST PUSH1 0x0 DUP1 DUP3 DUP5 ADD SWAP1 POP DUP4 DUP2 LT ISZERO PUSH2 0x25FF JUMPI PUSH1 0x40 MLOAD PUSH32 0x8C379A000000000000000000000000000000000000000000000000000000000 DUP2 MSTORE PUSH1 0x4 ADD DUP1 DUP1 PUSH1 0x20 ADD DUP3 DUP2 SUB DUP3 MSTORE PUSH1 0x1B DUP2 MSTORE PUSH1 0x20 ADD DUP1 PUSH32 0x536166654D6174683A206164646974696F6E206F766572666C6F770000000000 DUP2 MSTORE POP PUSH1 0x20 ADD SWAP2 POP POP PUSH1 0x40 MLOAD DUP1 SWAP2 SUB SWAP1 REVERT JUMPDEST DUP1 SWAP2 POP POP SWAP3 SWAP2 POP POP JUMP JUMPDEST PUSH2 0x26C4 DUP5 PUSH4 0x23B872DD PUSH1 0xE0 SHL DUP6 DUP6 DUP6 PUSH1 0x40 MLOAD PUSH1 0x24 ADD DUP1 DUP5 PUSH20 0xFFFFFFFFFFFFFFFFFFFFFFFFFFFFFFFFFFFFFFFF AND DUP2 MSTORE PUSH1 0x20 ADD DUP4 PUSH20 0xFFFFFFFFFFFFFFFFFFFFFFFFFFFFFFFFFFFFFFFF AND DUP2 MSTORE PUSH1 0x20 ADD DUP3 DUP2 MSTORE PUSH1 0x20 ADD SWAP4 POP POP POP POP PUSH1 0x40 MLOAD PUSH1 0x20 DUP2 DUP4 SUB SUB DUP2 MSTORE SWAP1 PUSH1 0x40 MSTORE SWAP1 PUSH28 0xFFFFFFFFFFFFFFFFFFFFFFFFFFFFFFFFFFFFFFFFFFFFFFFFFFFFFFFF NOT AND PUSH1 0x20 DUP3 ADD DUP1 MLOAD PUSH28 0xFFFFFFFFFFFFFFFFFFFFFFFFFFFFFFFFFFFFFFFFFFFFFFFFFFFFFFFF DUP4 DUP2 DUP4 AND OR DUP4 MSTORE POP POP POP POP PUSH2 0x28A5 JUMP JUMPDEST POP POP POP POP JUMP JUMPDEST PUSH1 0x0 PUSH1 0x5 SLOAD DUP3 GT PUSH2 0x26EF JUMPI PUSH2 0x26E8 DUP4 DUP4 PUSH2 0x2495 SWAP1 SWAP2 SWAP1 PUSH4 0xFFFFFFFF AND JUMP JUMPDEST SWAP1 POP PUSH2 0x2719 JUMP JUMPDEST PUSH1 0x5 SLOAD DUP4 LT PUSH2 0x2701 JUMPI PUSH1 0x0 SWAP1 POP PUSH2 0x2719 JUMP JUMPDEST PUSH2 0x2716 DUP4 PUSH1 0x5 SLOAD PUSH2 0x2495 SWAP1 SWAP2 SWAP1 PUSH4 0xFFFFFFFF AND JUMP JUMPDEST SWAP1 POP JUMPDEST SWAP3 SWAP2 POP POP JUMP JUMPDEST PUSH1 0x0 DUP1 DUP4 GT DUP3 SWAP1 PUSH2 0x27CB JUMPI PUSH1 0x40 MLOAD PUSH32 0x8C379A000000000000000000000000000000000000000000000000000000000 DUP2 MSTORE PUSH1 0x4 ADD DUP1 DUP1 PUSH1 0x20 ADD DUP3 DUP2 SUB DUP3 MSTORE DUP4 DUP2 DUP2 MLOAD DUP2 MSTORE PUSH1 0x20 ADD SWAP2 POP DUP1 MLOAD SWAP1 PUSH1 0x20 ADD SWAP1 DUP1 DUP4 DUP4 PUSH1 0x0 JUMPDEST DUP4 DUP2 LT ISZERO PUSH2 0x2790 JUMPI DUP1 DUP3 ADD MLOAD DUP2 DUP5 ADD MSTORE PUSH1 0x20 DUP2 ADD SWAP1 POP PUSH2 0x2775 JUMP JUMPDEST POP POP POP POP SWAP1 POP SWAP1 DUP2 ADD SWAP1 PUSH1 0x1F AND DUP1 ISZERO PUSH2 0x27BD JUMPI DUP1 DUP3 SUB DUP1 MLOAD PUSH1 0x1 DUP4 PUSH1 0x20 SUB PUSH2 0x100 EXP SUB NOT AND DUP2 MSTORE PUSH1 0x20 ADD SWAP2 POP JUMPDEST POP SWAP3 POP POP POP PUSH1 0x40 MLOAD DUP1 SWAP2 SUB SWAP1 REVERT JUMPDEST POP PUSH1 0x0 DUP4 DUP6 DUP2 PUSH2 0x27D7 JUMPI INVALID JUMPDEST DIV SWAP1 POP DUP1 SWAP2 POP POP SWAP4 SWAP3 POP POP POP JUMP JUMPDEST PUSH1 0x0 DUP4 DUP4 GT ISZERO DUP3 SWAP1 PUSH2 0x2892 JUMPI PUSH1 0x40 MLOAD PUSH32 0x8C379A000000000000000000000000000000000000000000000000000000000 DUP2 MSTORE PUSH1 0x4 ADD DUP1 DUP1 PUSH1 0x20 ADD DUP3 DUP2 SUB DUP3 MSTORE DUP4 DUP2 DUP2 MLOAD DUP2 MSTORE PUSH1 0x20 ADD SWAP2 POP DUP1 MLOAD SWAP1 PUSH1 0x20 ADD SWAP1 DUP1 DUP4 DUP4 PUSH1 0x0 JUMPDEST DUP4 DUP2 LT ISZERO PUSH2 0x2857 JUMPI DUP1 DUP3 ADD MLOAD DUP2 DUP5 ADD MSTORE PUSH1 0x20 DUP2 ADD SWAP1 POP PUSH2 0x283C JUMP JUMPDEST POP POP POP POP SWAP1 POP SWAP1 DUP2 ADD SWAP1 PUSH1 0x1F AND DUP1 ISZERO PUSH2 0x2884 JUMPI DUP1 DUP3 SUB DUP1 MLOAD PUSH1 0x1 DUP4 PUSH1 0x20 SUB PUSH2 0x100 EXP SUB NOT AND DUP2 MSTORE PUSH1 0x20 ADD SWAP2 POP JUMPDEST POP SWAP3 POP POP POP PUSH1 0x40 MLOAD DUP1 SWAP2 SUB SWAP1 REVERT JUMPDEST POP PUSH1 0x0 DUP4 DUP6 SUB SWAP1 POP DUP1 SWAP2 POP POP SWAP4 SWAP3 POP POP POP JUMP JUMPDEST PUSH1 0x60 PUSH2 0x2907 DUP3 PUSH1 0x40 MLOAD DUP1 PUSH1 0x40 ADD PUSH1 0x40 MSTORE DUP1 PUSH1 0x20 DUP2 MSTORE PUSH1 0x20 ADD PUSH32 0x5361666542455032303A206C6F772D6C6576656C2063616C6C206661696C6564 DUP2 MSTORE POP DUP6 PUSH20 0xFFFFFFFFFFFFFFFFFFFFFFFFFFFFFFFFFFFFFFFF AND PUSH2 0x2994 SWAP1 SWAP3 SWAP2 SWAP1 PUSH4 0xFFFFFFFF AND JUMP JUMPDEST SWAP1 POP PUSH1 0x0 DUP2 MLOAD GT ISZERO PUSH2 0x298F JUMPI DUP1 DUP1 PUSH1 0x20 ADD SWAP1 MLOAD PUSH1 0x20 DUP2 LT ISZERO PUSH2 0x2928 JUMPI PUSH1 0x0 DUP1 REVERT JUMPDEST DUP2 ADD SWAP1 DUP1 DUP1 MLOAD SWAP1 PUSH1 0x20 ADD SWAP1 SWAP3 SWAP2 SWAP1 POP POP POP PUSH2 0x298E JUMPI PUSH1 0x40 MLOAD PUSH32 0x8C379A000000000000000000000000000000000000000000000000000000000 DUP2 MSTORE PUSH1 0x4 ADD DUP1 DUP1 PUSH1 0x20 ADD DUP3 DUP2 SUB DUP3 MSTORE PUSH1 0x2A DUP2 MSTORE PUSH1 0x20 ADD DUP1 PUSH2 0x2C35 PUSH1 0x2A SWAP2 CODECOPY PUSH1 0x40 ADD SWAP2 POP POP PUSH1 0x40 MLOAD DUP1 SWAP2 SUB SWAP1 REVERT JUMPDEST JUMPDEST POP POP POP JUMP JUMPDEST PUSH1 0x60 PUSH2 0x29A3 DUP5 DUP5 PUSH1 0x0 DUP6 PUSH2 0x29AC JUMP JUMPDEST SWAP1 POP SWAP4 SWAP3 POP POP POP JUMP JUMPDEST PUSH1 0x60 DUP3 SELFBALANCE LT ISZERO PUSH2 0x2A07 JUMPI PUSH1 0x40 MLOAD PUSH32 0x8C379A000000000000000000000000000000000000000000000000000000000 DUP2 MSTORE PUSH1 0x4 ADD DUP1 DUP1 PUSH1 0x20 ADD DUP3 DUP2 SUB DUP3 MSTORE PUSH1 0x26 DUP2 MSTORE PUSH1 0x20 ADD DUP1 PUSH2 0x2CB3 PUSH1 0x26 SWAP2 CODECOPY PUSH1 0x40 ADD SWAP2 POP POP PUSH1 0x40 MLOAD DUP1 SWAP2 SUB SWAP1 REVERT JUMPDEST PUSH2 0x2A10 DUP6 PUSH2 0x2B55 JUMP JUMPDEST PUSH2 0x2A82 JUMPI PUSH1 0x40 MLOAD PUSH32 0x8C379A000000000000000000000000000000000000000000000000000000000 DUP2 MSTORE PUSH1 0x4 ADD DUP1 DUP1 PUSH1 0x20 ADD DUP3 DUP2 SUB DUP3 MSTORE PUSH1 0x1D DUP2 MSTORE PUSH1 0x20 ADD DUP1 PUSH32 0x416464726573733A2063616C6C20746F206E6F6E2D636F6E7472616374000000 DUP2 MSTORE POP PUSH1 0x20 ADD SWAP2 POP POP PUSH1 0x40 MLOAD DUP1 SWAP2 SUB SWAP1 REVERT JUMPDEST PUSH1 0x0 PUSH1 0x60 DUP7 PUSH20 0xFFFFFFFFFFFFFFFFFFFFFFFFFFFFFFFFFFFFFFFF AND DUP6 DUP8 PUSH1 0x40 MLOAD DUP1 DUP3 DUP1 MLOAD SWAP1 PUSH1 0x20 ADD SWAP1 DUP1 DUP4 DUP4 JUMPDEST PUSH1 0x20 DUP4 LT PUSH2 0x2AD2 JUMPI DUP1 MLOAD DUP3 MSTORE PUSH1 0x20 DUP3 ADD SWAP2 POP PUSH1 0x20 DUP2 ADD SWAP1 POP PUSH1 0x20 DUP4 SUB SWAP3 POP PUSH2 0x2AAF JUMP JUMPDEST PUSH1 0x1 DUP4 PUSH1 0x20 SUB PUSH2 0x100 EXP SUB DUP1 NOT DUP3 MLOAD AND DUP2 DUP5 MLOAD AND DUP1 DUP3 OR DUP6 MSTORE POP POP POP POP POP POP SWAP1 POP ADD SWAP2 POP POP PUSH1 0x0 PUSH1 0x40 MLOAD DUP1 DUP4 SUB DUP2 DUP6 DUP8 GAS CALL SWAP3 POP POP POP RETURNDATASIZE DUP1 PUSH1 0x0 DUP2 EQ PUSH2 0x2B34 JUMPI PUSH1 0x40 MLOAD SWAP2 POP PUSH1 0x1F NOT PUSH1 0x3F RETURNDATASIZE ADD AND DUP3 ADD PUSH1 0x40 MSTORE RETURNDATASIZE DUP3 MSTORE RETURNDATASIZE PUSH1 0x0 PUSH1 0x20 DUP5 ADD RETURNDATACOPY PUSH2 0x2B39 JUMP JUMPDEST PUSH1 0x60 SWAP2 POP JUMPDEST POP SWAP2 POP SWAP2 POP PUSH2 0x2B49 DUP3 DUP3 DUP7 PUSH2 0x2B68 JUMP JUMPDEST SWAP3 POP POP POP SWAP5 SWAP4 POP POP POP POP JUMP JUMPDEST PUSH1 0x0 DUP1 DUP3 EXTCODESIZE SWAP1 POP PUSH1 0x0 DUP2 GT SWAP2 POP POP SWAP2 SWAP1 POP JUMP JUMPDEST PUSH1 0x60 DUP4 ISZERO PUSH2 0x2B78 JUMPI DUP3 SWAP1 POP PUSH2 0x2C2D JUMP JUMPDEST PUSH1 0x0 DUP4 MLOAD GT ISZERO PUSH2 0x2B8B JUMPI DUP3 MLOAD DUP1 DUP5 PUSH1 0x20 ADD REVERT JUMPDEST DUP2 PUSH1 0x40 MLOAD PUSH32 0x8C379A000000000000000000000000000000000000000000000000000000000 DUP2 MSTORE PUSH1 0x4 ADD DUP1 DUP1 PUSH1 0x20 ADD DUP3 DUP2 SUB DUP3 MSTORE DUP4 DUP2 DUP2 MLOAD DUP2 MSTORE PUSH1 0x20 ADD SWAP2 POP DUP1 MLOAD SWAP1 PUSH1 0x20 ADD SWAP1 DUP1 DUP4 DUP4 PUSH1 0x0 JUMPDEST DUP4 DUP2 LT ISZERO PUSH2 0x2BF2 JUMPI DUP1 DUP3 ADD MLOAD DUP2 DUP5 ADD MSTORE PUSH1 0x20 DUP2 ADD SWAP1 POP PUSH2 0x2BD7 JUMP JUMPDEST POP POP POP POP SWAP1 POP SWAP1 DUP2 ADD SWAP1 PUSH1 0x1F AND DUP1 ISZERO PUSH2 0x2C1F JUMPI DUP1 DUP3 SUB DUP1 MLOAD PUSH1 0x1 DUP4 PUSH1 0x20 SUB PUSH2 0x100 EXP SUB NOT AND DUP2 MSTORE PUSH1 0x20 ADD SWAP2 POP JUMPDEST POP SWAP3 POP POP POP PUSH1 0x40 MLOAD DUP1 SWAP2 SUB SWAP1 REVERT JUMPDEST SWAP4 SWAP3 POP POP POP JUMP INVALID MSTORE8 PUSH2 0x6665 TIMESTAMP GASLIMIT POP ORIGIN ADDRESS GASPRICE KECCAK256 TIMESTAMP GASLIMIT POP ORIGIN ADDRESS KECCAK256 PUSH16 0x7065726174696F6E20646964206E6F74 KECCAK256 PUSH20 0x7563636565644F776E61626C653A206E6577206F PUSH24 0x6E657220697320746865207A65726F20616464726573734E PUSH6 0x772073746172 PUSH21 0x426C6F636B206D757374206265206C6F7765722074 PUSH9 0x616E206E657720656E PUSH5 0x426C6F636B COINBASE PUSH5 0x6472657373 GASPRICE KECCAK256 PUSH10 0x6E73756666696369656E PUSH21 0x2062616C616E636520666F722063616C6C4E657720 PUSH20 0x74617274426C6F636B206D757374206265206869 PUSH8 0x686572207468616E KECCAK256 PUSH4 0x75727265 PUSH15 0x7420626C6F636B536166654D617468 GASPRICE KECCAK256 PUSH14 0x756C7469706C69636174696F6E20 PUSH16 0x766572666C6F77A26469706673582212 KECCAK256 PUSH9 0x68EDA0CCD5ED1A6834 BYTE MSIZE 0xEB 0xE1 DUP15 DUP14 SWAP8 0x2D 0xF7 EXTCODESIZE CODECOPY CALLER DELEGATECALL 0x27 0x1E LOG3 0xE 0x48 0xA7 PUSH19 0xB54E64736F6C634300060C0033000000000000 "
				},
				"gasEstimates": {
					"creation": {
						"codeDepositCost": "2323000",
						"executionCost": "infinite",
						"totalCost": "infinite"
					},
					"external": {
						"GenericStakeFactory()": "1137",
						"PRECISION_FACTOR()": "1094",
						"accTokenPerShare()": "1095",
						"availableRewards()": "infinite",
						"bonusEndBlock()": "1096",
						"deposit(uint256)": "infinite",
						"emergencyRewardWithdraw(uint256)": "infinite",
						"emergencyWithdraw()": "infinite",
						"hasUserLimit()": "1142",
						"initialize(address,address,uint256,uint256,uint256,uint256,address)": "infinite",
						"isInitialized()": "1209",
						"lastRewardBlock()": "1116",
						"owner()": "1123",
						"pendingReward(address)": "infinite",
						"poolLimitPerUser()": "1117",
						"recoverWrongTokens(address,uint256)": "infinite",
						"renounceOwnership()": "24336",
						"rewardPerBlock()": "1051",
						"rewardToken()": "1157",
						"stakedByUsers()": "1071",
						"stakedToken()": "1114",
						"startBlock()": "1073",
						"stopReward()": "21126",
						"totalWKDStaked()": "1059",
						"transferOwnership(address)": "infinite",
						"updatePoolLimitPerUser(bool,uint256)": "29976",
						"updateRewardPerBlock(uint256)": "22258",
						"updateStartAndEndBlocks(uint256,uint256)": "infinite",
						"userInfo(address)": "2084",
						"withdraw(uint256)": "infinite"
					},
					"internal": {
						"_getMultiplier(uint256,uint256)": "infinite",
						"_updatePool()": "infinite"
					}
				},
				"methodIdentifiers": {
					"GenericStakeFactory()": "514f4a42",
					"PRECISION_FACTOR()": "ccd34cd5",
					"accTokenPerShare()": "8f662915",
					"availableRewards()": "879d9090",
					"bonusEndBlock()": "1aed6553",
					"deposit(uint256)": "b6b55f25",
					"emergencyRewardWithdraw(uint256)": "3279beab",
					"emergencyWithdraw()": "db2e21bc",
					"hasUserLimit()": "92e8990e",
					"initialize(address,address,uint256,uint256,uint256,uint256,address)": "83a5041c",
					"isInitialized()": "392e53cd",
					"lastRewardBlock()": "a9f8d181",
					"owner()": "8da5cb5b",
					"pendingReward(address)": "f40f0f52",
					"poolLimitPerUser()": "66fe9f8a",
					"recoverWrongTokens(address,uint256)": "3f138d4b",
					"renounceOwnership()": "715018a6",
					"rewardPerBlock()": "8ae39cac",
					"rewardToken()": "f7c618c1",
					"stakedByUsers()": "f36cc893",
					"stakedToken()": "cc7a262e",
					"startBlock()": "48cd4cb1",
					"stopReward()": "80dc0672",
					"totalWKDStaked()": "2de68155",
					"transferOwnership(address)": "f2fde38b",
					"updatePoolLimitPerUser(bool,uint256)": "a0b40905",
					"updateRewardPerBlock(uint256)": "01f8a976",
					"updateStartAndEndBlocks(uint256,uint256)": "9513997f",
					"userInfo(address)": "1959a002",
					"withdraw(uint256)": "2e1a7d4d"
				}
			},
			"storageLayout": {
				"storage": [
					{
						"astId": 30,
						"contract": "src/farm/GenericStake.sol:WakandaPoolInitializable",
						"label": "_owner",
						"offset": 0,
						"slot": "0",
						"type": "t_address"
					},
					{
						"astId": 582,
						"contract": "src/farm/GenericStake.sol:WakandaPoolInitializable",
						"label": "_status",
						"offset": 0,
						"slot": "1",
						"type": "t_uint256"
					},
					{
						"astId": 630,
						"contract": "src/farm/GenericStake.sol:WakandaPoolInitializable",
						"label": "GenericStakeFactory",
						"offset": 0,
						"slot": "2",
						"type": "t_address"
					},
					{
						"astId": 632,
						"contract": "src/farm/GenericStake.sol:WakandaPoolInitializable",
						"label": "hasUserLimit",
						"offset": 20,
						"slot": "2",
						"type": "t_bool"
					},
					{
						"astId": 634,
						"contract": "src/farm/GenericStake.sol:WakandaPoolInitializable",
						"label": "isInitialized",
						"offset": 21,
						"slot": "2",
						"type": "t_bool"
					},
					{
						"astId": 636,
						"contract": "src/farm/GenericStake.sol:WakandaPoolInitializable",
						"label": "accTokenPerShare",
						"offset": 0,
						"slot": "3",
						"type": "t_uint256"
					},
					{
						"astId": 638,
						"contract": "src/farm/GenericStake.sol:WakandaPoolInitializable",
						"label": "stakedByUsers",
						"offset": 0,
						"slot": "4",
						"type": "t_uint256"
					},
					{
						"astId": 640,
						"contract": "src/farm/GenericStake.sol:WakandaPoolInitializable",
						"label": "bonusEndBlock",
						"offset": 0,
						"slot": "5",
						"type": "t_uint256"
					},
					{
						"astId": 642,
						"contract": "src/farm/GenericStake.sol:WakandaPoolInitializable",
						"label": "startBlock",
						"offset": 0,
						"slot": "6",
						"type": "t_uint256"
					},
					{
						"astId": 644,
						"contract": "src/farm/GenericStake.sol:WakandaPoolInitializable",
						"label": "lastRewardBlock",
						"offset": 0,
						"slot": "7",
						"type": "t_uint256"
					},
					{
						"astId": 646,
						"contract": "src/farm/GenericStake.sol:WakandaPoolInitializable",
						"label": "poolLimitPerUser",
						"offset": 0,
						"slot": "8",
						"type": "t_uint256"
					},
					{
						"astId": 648,
						"contract": "src/farm/GenericStake.sol:WakandaPoolInitializable",
						"label": "rewardPerBlock",
						"offset": 0,
						"slot": "9",
						"type": "t_uint256"
					},
					{
						"astId": 650,
						"contract": "src/farm/GenericStake.sol:WakandaPoolInitializable",
						"label": "PRECISION_FACTOR",
						"offset": 0,
						"slot": "10",
						"type": "t_uint256"
					},
					{
						"astId": 652,
						"contract": "src/farm/GenericStake.sol:WakandaPoolInitializable",
						"label": "rewardToken",
						"offset": 0,
						"slot": "11",
						"type": "t_contract(IBEP20)1593"
					},
					{
						"astId": 654,
						"contract": "src/farm/GenericStake.sol:WakandaPoolInitializable",
						"label": "stakedToken",
						"offset": 0,
						"slot": "12",
						"type": "t_contract(IBEP20)1593"
					},
					{
						"astId": 658,
						"contract": "src/farm/GenericStake.sol:WakandaPoolInitializable",
						"label": "userInfo",
						"offset": 0,
						"slot": "13",
						"type": "t_mapping(t_address,t_struct(UserInfo)663_storage)"
					}
				],
				"types": {
					"t_address": {
						"encoding": "inplace",
						"label": "address",
						"numberOfBytes": "20"
					},
					"t_bool": {
						"encoding": "inplace",
						"label": "bool",
						"numberOfBytes": "1"
					},
					"t_contract(IBEP20)1593": {
						"encoding": "inplace",
						"label": "contract IBEP20",
						"numberOfBytes": "20"
					},
					"t_mapping(t_address,t_struct(UserInfo)663_storage)": {
						"encoding": "mapping",
						"key": "t_address",
						"label": "mapping(address => struct WakandaPoolInitializable.UserInfo)",
						"numberOfBytes": "32",
						"value": "t_struct(UserInfo)663_storage"
					},
					"t_struct(UserInfo)663_storage": {
						"encoding": "inplace",
						"label": "struct WakandaPoolInitializable.UserInfo",
						"members": [
							{
								"astId": 660,
								"contract": "src/farm/GenericStake.sol:WakandaPoolInitializable",
								"label": "amount",
								"offset": 0,
								"slot": "0",
								"type": "t_uint256"
							},
							{
								"astId": 662,
								"contract": "src/farm/GenericStake.sol:WakandaPoolInitializable",
								"label": "rewardDebt",
								"offset": 0,
								"slot": "1",
								"type": "t_uint256"
							}
						],
						"numberOfBytes": "64"
					},
					"t_uint256": {
						"encoding": "inplace",
						"label": "uint256",
						"numberOfBytes": "32"
					}
				}
			},
			"userdoc": {
				"kind": "user",
				"methods": {
					"recoverWrongTokens(address,uint256)": {
						"notice": "It allows the admin to recover wrong tokens sent to the contract"
					},
					"updateStartAndEndBlocks(uint256,uint256)": {
						"notice": "It allows the admin to update start and end blocks"
					}
				},
				"version": 1
			}
		}
	}
}